{
  "contractName": "BytesDeserializer",
  "abi": [
    {
      "constant": true,
      "inputs": [
        {
          "name": "b",
          "type": "bytes"
        },
        {
          "name": "offset",
          "type": "uint256"
        }
      ],
      "name": "slice32",
      "outputs": [
        {
          "name": "",
          "type": "bytes32"
        }
      ],
      "payable": false,
      "stateMutability": "pure",
      "type": "function"
    },
    {
      "constant": true,
      "inputs": [
        {
          "name": "b",
          "type": "bytes"
        },
        {
          "name": "offset",
          "type": "uint256"
        }
      ],
      "name": "sliceAddress",
      "outputs": [
        {
          "name": "",
          "type": "address"
        }
      ],
      "payable": false,
      "stateMutability": "pure",
      "type": "function"
    },
    {
      "constant": true,
      "inputs": [
        {
          "name": "b",
          "type": "bytes"
        },
        {
          "name": "offset",
          "type": "uint256"
        }
      ],
      "name": "slice16",
      "outputs": [
        {
          "name": "",
          "type": "bytes16"
        }
      ],
      "payable": false,
      "stateMutability": "pure",
      "type": "function"
    },
    {
      "constant": true,
      "inputs": [
        {
          "name": "b",
          "type": "bytes"
        },
        {
          "name": "offset",
          "type": "uint256"
        }
      ],
      "name": "slice4",
      "outputs": [
        {
          "name": "",
          "type": "bytes4"
        }
      ],
      "payable": false,
      "stateMutability": "pure",
      "type": "function"
    },
    {
      "constant": true,
      "inputs": [
        {
          "name": "b",
          "type": "bytes"
        },
        {
          "name": "offset",
          "type": "uint256"
        }
      ],
      "name": "slice2",
      "outputs": [
        {
          "name": "",
          "type": "bytes2"
        }
      ],
      "payable": false,
      "stateMutability": "pure",
      "type": "function"
    }
  ],
  "bytecode": "0x61047d610030600b82828239805160001a6073146000811461002057610022565bfe5b5030600052607381538281f30073000000000000000000000000000000000000000030146060604052600436106100835763ffffffff7c010000000000000000000000000000000000000000000000000000000060003504166316419aa7811461008857806320956341146100f65780632e1eb7fe14610173578063b655e138146101cd578063d54dd8f91461023e575b600080fd5b6100d060046024813581810190830135806020601f8201819004810201604051908101604052818152929190602084018383808284375094965050933593506102bb92505050565b6040516fffffffffffffffffffffffffffffffff19909116815260200160405180910390f35b61013e60046024813581810190830135806020601f82018190048102016040519081016040528181529291906020840183838082843750949650509335935061031292505050565b6040517fffff000000000000000000000000000000000000000000000000000000000000909116815260200160405180910390f35b6101bb60046024813581810190830135806020601f82018190048102016040519081016040528181529291906020840183838082843750949650509335935061036192505050565b60405190815260200160405180910390f35b61021560046024813581810190830135806020601f8201819004810201604051908101604052818152929190602084018383808284375094965050933593506103b092505050565b60405173ffffffffffffffffffffffffffffffffffffffff909116815260200160405180910390f35b61028660046024813581810190830135806020601f82018190048102016040519081016040528181529291906020840183838082843750949650509335935061040292505050565b6040517fffffffff00000000000000000000000000000000000000000000000000000000909116815260200160405180910390f35b600080805b601081101561030a578060080285828601815181106102db57fe5b016020015160029190910a60f860020a91829004909102600160f860020a0319160491909117906001016102c0565b509392505050565b600080805b600281101561030a5780600802858286018151811061033257fe5b016020015160029190910a60f860020a91829004909102600160f860020a031916049190911790600101610317565b600080805b602081101561030a5780600802858286018151811061038157fe5b016020015160029190910a60f860020a91829004909102600160f860020a031916049190911790600101610366565b600080805b601481101561030a5780600c0160080285828601815181106103d357fe5b016020015160029190910a60f860020a91829004909102600160f860020a0319160491909117906001016103b5565b600080805b600481101561030a5780600802858286018151811061042257fe5b016020015160029190910a60f860020a91829004909102600160f860020a0319160491909117906001016104075600a165627a7a72305820db1a4a2367fabae3e55672b524718277892aff7f02440b7a2f8f836cbf803d450029",
  "source": "pragma solidity 0.4.21;\n/*\n * This smart contract code is Copyright 2017 TokenMarket Ltd. For more information see https://tokenmarket.net\n *\n * Licensed under the Apache License, version 2.0: https://github.com/TokenMarketNet/ico/blob/master/LICENSE.txt\n */\n\n/*\n * Deserialize bytes payloads.\n *\n * Values are in big-endian byte order.\n *\n */\nlibrary BytesDeserializer {\n\n  /*\n   * Extract 256-bit worth of data from the bytes stream.\n   */\n  function slice32(bytes b, uint offset) public pure returns (bytes32) {\n    bytes32 out;\n\n    for (uint i = 0; i < 32; i++) {\n      out |= bytes32(b[offset + i] & 0xFF) >> (i * 8);\n    }\n    return out;\n  }\n\n  /*\n   * Extract Ethereum address worth of data from the bytes stream.\n   */\n  function sliceAddress(bytes b, uint offset) public pure returns (address) {\n    bytes32 out;\n\n    for (uint i = 0; i < 20; i++) {\n      out |= bytes32(b[offset + i] & 0xFF) >> ((i+12) * 8);\n    }\n    return address(uint(out));\n  }\n\n  /*\n   * Extract 128-bit worth of data from the bytes stream.\n   */\n  function slice16(bytes b, uint offset) public pure returns (bytes16) {\n    bytes16 out;\n\n    for (uint i = 0; i < 16; i++) {\n      out |= bytes16(b[offset + i] & 0xFF) >> (i * 8);\n    }\n    return out;\n  }\n\n  /*\n   * Extract 32-bit worth of data from the bytes stream.\n   */\n  function slice4(bytes b, uint offset) public pure returns (bytes4) {\n    bytes4 out;\n\n    for (uint i = 0; i < 4; i++) {\n      out |= bytes4(b[offset + i] & 0xFF) >> (i * 8);\n    }\n    return out;\n  }\n\n  /*\n   * Extract 16-bit worth of data from the bytes stream.\n   */\n  function slice2(bytes b, uint offset) public pure returns (bytes2) {\n    bytes2 out;\n\n    for (uint i = 0; i < 2; i++) {\n      out |= bytes2(b[offset + i] & 0xFF) >> (i * 8);\n    }\n    return out;\n  }\n\n}",
  "sourcePath": "/Users/jackpickering/Desktop/Development/AX1 versions/AX1_portal_staging/contracts/BytesDeserializer.sol",
  "compiler": {
    "name": "solc",
    "version": "0.4.21+commit.dfe3193c.Emscripten.clang"
  },
  "schemaVersion": "2.0.0",
  "updatedAt": "2018-04-04T17:12:25.959Z"
}