{
  "contractName": "CappedCrowdsale",
  "abi": [
    {
      "constant": true,
      "inputs": [],
      "name": "contractAddr",
      "outputs": [
        {
          "name": "",
          "type": "address"
        }
      ],
      "payable": false,
      "stateMutability": "view",
      "type": "function"
    },
    {
      "constant": true,
      "inputs": [],
      "name": "tokensSent",
      "outputs": [
        {
          "name": "",
          "type": "uint256"
        }
      ],
      "payable": false,
      "stateMutability": "view",
      "type": "function"
    },
    {
      "constant": true,
      "inputs": [],
      "name": "rate",
      "outputs": [
        {
          "name": "",
          "type": "uint256"
        }
      ],
      "payable": false,
      "stateMutability": "view",
      "type": "function"
    },
    {
      "constant": true,
      "inputs": [],
      "name": "endTime",
      "outputs": [
        {
          "name": "",
          "type": "uint256"
        }
      ],
      "payable": false,
      "stateMutability": "view",
      "type": "function"
    },
    {
      "constant": true,
      "inputs": [],
      "name": "beneficiary",
      "outputs": [
        {
          "name": "",
          "type": "address"
        }
      ],
      "payable": false,
      "stateMutability": "view",
      "type": "function"
    },
    {
      "constant": true,
      "inputs": [],
      "name": "weiRaised",
      "outputs": [
        {
          "name": "",
          "type": "uint256"
        }
      ],
      "payable": false,
      "stateMutability": "view",
      "type": "function"
    },
    {
      "constant": true,
      "inputs": [],
      "name": "wallet",
      "outputs": [
        {
          "name": "",
          "type": "address"
        }
      ],
      "payable": false,
      "stateMutability": "view",
      "type": "function"
    },
    {
      "constant": true,
      "inputs": [
        {
          "name": "",
          "type": "address"
        }
      ],
      "name": "balanceOf",
      "outputs": [
        {
          "name": "",
          "type": "uint256"
        }
      ],
      "payable": false,
      "stateMutability": "view",
      "type": "function"
    },
    {
      "constant": true,
      "inputs": [],
      "name": "startTime",
      "outputs": [
        {
          "name": "",
          "type": "uint256"
        }
      ],
      "payable": false,
      "stateMutability": "view",
      "type": "function"
    },
    {
      "constant": true,
      "inputs": [
        {
          "name": "",
          "type": "uint128"
        }
      ],
      "name": "balancePerID",
      "outputs": [
        {
          "name": "",
          "type": "uint256"
        }
      ],
      "payable": false,
      "stateMutability": "view",
      "type": "function"
    },
    {
      "constant": true,
      "inputs": [],
      "name": "owner",
      "outputs": [
        {
          "name": "",
          "type": "address"
        }
      ],
      "payable": false,
      "stateMutability": "view",
      "type": "function"
    },
    {
      "constant": true,
      "inputs": [],
      "name": "softCap",
      "outputs": [
        {
          "name": "",
          "type": "uint256"
        }
      ],
      "payable": false,
      "stateMutability": "view",
      "type": "function"
    },
    {
      "constant": true,
      "inputs": [],
      "name": "canWithdraw",
      "outputs": [
        {
          "name": "",
          "type": "bool"
        }
      ],
      "payable": false,
      "stateMutability": "view",
      "type": "function"
    },
    {
      "constant": true,
      "inputs": [],
      "name": "halted",
      "outputs": [
        {
          "name": "",
          "type": "bool"
        }
      ],
      "payable": false,
      "stateMutability": "view",
      "type": "function"
    },
    {
      "constant": true,
      "inputs": [],
      "name": "withdrawn",
      "outputs": [
        {
          "name": "",
          "type": "uint256"
        }
      ],
      "payable": false,
      "stateMutability": "view",
      "type": "function"
    },
    {
      "constant": false,
      "inputs": [],
      "name": "stopICO",
      "outputs": [],
      "payable": false,
      "stateMutability": "nonpayable",
      "type": "function"
    },
    {
      "constant": true,
      "inputs": [
        {
          "name": "",
          "type": "address"
        }
      ],
      "name": "presaleBalanceOf",
      "outputs": [
        {
          "name": "",
          "type": "uint256"
        }
      ],
      "payable": false,
      "stateMutability": "view",
      "type": "function"
    },
    {
      "constant": true,
      "inputs": [
        {
          "name": "",
          "type": "address"
        }
      ],
      "name": "tokenBalanceOf",
      "outputs": [
        {
          "name": "",
          "type": "uint256"
        }
      ],
      "payable": false,
      "stateMutability": "view",
      "type": "function"
    },
    {
      "constant": false,
      "inputs": [
        {
          "name": "newOwner",
          "type": "address"
        }
      ],
      "name": "transferOwnership",
      "outputs": [],
      "payable": false,
      "stateMutability": "nonpayable",
      "type": "function"
    },
    {
      "constant": true,
      "inputs": [],
      "name": "presaleWeiRaised",
      "outputs": [
        {
          "name": "",
          "type": "uint256"
        }
      ],
      "payable": false,
      "stateMutability": "view",
      "type": "function"
    },
    {
      "constant": true,
      "inputs": [],
      "name": "hardCap",
      "outputs": [
        {
          "name": "",
          "type": "uint256"
        }
      ],
      "payable": false,
      "stateMutability": "view",
      "type": "function"
    },
    {
      "constant": true,
      "inputs": [],
      "name": "token",
      "outputs": [
        {
          "name": "",
          "type": "address"
        }
      ],
      "payable": false,
      "stateMutability": "view",
      "type": "function"
    },
    {
      "inputs": [
        {
          "name": "_startTime",
          "type": "uint256"
        },
        {
          "name": "_endTime",
          "type": "uint256"
        },
        {
          "name": "_rate",
          "type": "uint256"
        },
        {
          "name": "_wallet",
          "type": "address"
        },
        {
          "name": "_beneficiary",
          "type": "address"
        },
        {
          "name": "_softCap",
          "type": "uint256"
        },
        {
          "name": "_hardCap",
          "type": "uint256"
        },
        {
          "name": "_token",
          "type": "address"
        }
      ],
      "payable": false,
      "stateMutability": "nonpayable",
      "type": "constructor"
    },
    {
      "anonymous": false,
      "inputs": [
        {
          "indexed": false,
          "name": "admin",
          "type": "address"
        },
        {
          "indexed": false,
          "name": "amount",
          "type": "uint256"
        },
        {
          "indexed": false,
          "name": "datetime",
          "type": "uint256"
        }
      ],
      "name": "BeneficiaryWithdrawal",
      "type": "event"
    },
    {
      "anonymous": false,
      "inputs": [
        {
          "indexed": true,
          "name": "purchaser",
          "type": "address"
        },
        {
          "indexed": true,
          "name": "beneficiary",
          "type": "address"
        },
        {
          "indexed": false,
          "name": "value",
          "type": "uint256"
        },
        {
          "indexed": false,
          "name": "amount",
          "type": "uint256"
        },
        {
          "indexed": false,
          "name": "datetime",
          "type": "uint256"
        }
      ],
      "name": "TokenPurchase",
      "type": "event"
    },
    {
      "anonymous": false,
      "inputs": [
        {
          "indexed": false,
          "name": "owner",
          "type": "address"
        },
        {
          "indexed": false,
          "name": "datetime",
          "type": "uint256"
        }
      ],
      "name": "SaleStopped",
      "type": "event"
    },
    {
      "anonymous": false,
      "inputs": [
        {
          "indexed": true,
          "name": "previousOwner",
          "type": "address"
        },
        {
          "indexed": true,
          "name": "newOwner",
          "type": "address"
        }
      ],
      "name": "OwnershipTransferred",
      "type": "event"
    },
    {
      "constant": true,
      "inputs": [],
      "name": "hasEnded",
      "outputs": [
        {
          "name": "",
          "type": "bool"
        }
      ],
      "payable": false,
      "stateMutability": "view",
      "type": "function"
    },
    {
      "constant": false,
      "inputs": [],
      "name": "successfulWithdraw",
      "outputs": [],
      "payable": false,
      "stateMutability": "nonpayable",
      "type": "function"
    }
  ],
  "bytecode": "0x6060604052341561000f57600080fd5b60405161010080610983833981016040528080519190602001805191906020018051919060200180519190602001805191906020018051919060200180519190602001805160008054600160a060020a03191633600160a060020a03161790559150889050878787844285101561008557600080fd5b8484101561009257600080fd5b6000831161009f57600080fd5b600160a060020a03821615156100b457600080fd5b60018054600160a060020a03808416600160a060020a03199283161790925560028790556003869055600685905560048054928516929091169190911790556101098264010000000061066261017282021704565b505050505060008211801561011e5750600083115b801561012957508183105b151561013457600080fd5b50600e91909155600f55600060105560118054600160a060020a0390921661010002600160a860020a03199092169190911790555061020092505050565b60005433600160a060020a0390811691161461018d57600080fd5b600160a060020a03811615156101a257600080fd5b600054600160a060020a0380831691167f8be0079c531659141344cd1fd0a4f28419497f9722a3daafe3b4186f6b6457e060405160405180910390a360008054600160a060020a031916600160a060020a0392909216919091179055565b6107748061020f6000396000f30060606040526004361061013d5763ffffffff7c010000000000000000000000000000000000000000000000000000000060003504166315a5d9d881146101425780631f130761146101715780632c4e722e146101965780633197cbb6146101a957806338af3eed146101bc5780634042b66f146101cf578063521eb273146101e257806370a08231146101f557806378e97925146102145780637db71fc4146102275780638da5cb5b1461024f578063906a26e014610262578063b51459fe14610275578063b9b8af0b1461029c578063bdd30406146102af578063c80ec522146102c4578063c8e569a8146102d7578063dfc6fbaa146102ea578063e42c08f214610309578063ecb70fb714610328578063f2fde38b1461033b578063f7c00e2f1461035a578063fb86a4041461036d578063fc0c546a14610380575b600080fd5b341561014d57600080fd5b610155610393565b604051600160a060020a03909116815260200160405180910390f35b341561017c57600080fd5b6101846103a2565b60405190815260200160405180910390f35b34156101a157600080fd5b6101846103a8565b34156101b457600080fd5b6101846103ae565b34156101c757600080fd5b6101556103b4565b34156101da57600080fd5b6101846103c8565b34156101ed57600080fd5b6101556103ce565b341561020057600080fd5b610184600160a060020a03600435166103dd565b341561021f57600080fd5b6101846103ef565b341561023257600080fd5b6101846fffffffffffffffffffffffffffffffff600435166103f5565b341561025a57600080fd5b610155610407565b341561026d57600080fd5b610184610416565b341561028057600080fd5b61028861041c565b604051901515815260200160405180910390f35b34156102a757600080fd5b610288610425565b34156102ba57600080fd5b6102c2610446565b005b34156102cf57600080fd5b610184610580565b34156102e257600080fd5b6102c2610586565b34156102f557600080fd5b610184600160a060020a036004351661061c565b341561031457600080fd5b610184600160a060020a036004351661062e565b341561033357600080fd5b610288610640565b341561034657600080fd5b6102c2600160a060020a0360043516610662565b341561036557600080fd5b6101846106fd565b341561037857600080fd5b610184610703565b341561038b57600080fd5b610155610709565b600554600160a060020a031681565b60095481565b60065481565b60035481565b6011546101009004600160a060020a031681565b60075481565b600454600160a060020a031681565b600b6020526000908152604090205481565b60025481565b600a6020526000908152604090205481565b600054600160a060020a031681565b600e5481565b60115460ff1681565b60005474010000000000000000000000000000000000000000900460ff1681565b6000805433600160a060020a0390811691161461046257600080fd5b60005474010000000000000000000000000000000000000000900460ff161561048a57600080fd5b610492610640565b151561049d57600080fd5b60115460ff1615156104ae57600080fd5b600e54600954116104be57600080fd5b6010546007546104d39163ffffffff61071816565b6010549091506104e9908263ffffffff61072a16565b6010556011546101009004600160a060020a03166108fc82150282604051600060405180830381858888f19350505050151561052457600080fd5b7f9f7cbddba892cf26a7cd63d61d3c8d085df04bbbe7601e53311038ca6dab196b3382426040518084600160a060020a0316600160a060020a03168152602001838152602001828152602001935050505060405180910390a150565b60105481565b60005433600160a060020a039081169116146105a157600080fd5b6000805474ff00000000000000000000000000000000000000001916740100000000000000000000000000000000000000001790557f4898556e3bd8b06263e50e938f30f736c1fd2030390474dd6bc0b28d8c5450373342604051600160a060020a03909216825260208201526040908101905180910390a1565b600c6020526000908152604090205481565b600d6020526000908152604090205481565b600f54600954600091901015610654610740565b8061065c5750805b91505090565b60005433600160a060020a0390811691161461067d57600080fd5b600160a060020a038116151561069257600080fd5b600054600160a060020a0380831691167f8be0079c531659141344cd1fd0a4f28419497f9722a3daafe3b4186f6b6457e060405160405180910390a36000805473ffffffffffffffffffffffffffffffffffffffff1916600160a060020a0392909216919091179055565b60085481565b600f5481565b600154600160a060020a031681565b60008282111561072457fe5b50900390565b60008282018381101561073957fe5b9392505050565b6003544211905600a165627a7a72305820e90c9dd0b3633c85703cf5d9b28e34962b06b3a84cc9faf0be1bd45f6b828b770029",
  "source": "pragma solidity 0.4.21;\n\nimport './SafeMath.sol';\nimport './Crowdsale.sol';\n\n/**\n * @title CappedCrowdsale\n * @dev Extension of Crowdsale with a max amount of funds raised\n */\ncontract CappedCrowdsale is Crowdsale {\n  using SafeMath for uint256;\n\n  uint256 public softCap;\n  uint256 public hardCap;\n  uint256 public withdrawn;\n  bool public canWithdraw;\n  address public beneficiary;\n\n  event BeneficiaryWithdrawal(address admin, uint256 amount, uint256 datetime);\n\n  // Changed implentation to include soft/hard caps\n  function CappedCrowdsale(uint256 _startTime, uint256 _endTime, uint256 _rate, address _wallet, address _beneficiary, uint256 _softCap, uint256 _hardCap, PickToken _token) \n    Crowdsale(_startTime, _endTime, _rate, _wallet, _token)\n      public {\n\n    require(_hardCap > 0 && _softCap > 0 && _softCap < _hardCap);\n\n    softCap = _softCap;\n    hardCap = _hardCap;\n    withdrawn = 0;\n    canWithdraw = false;\n    beneficiary = _beneficiary;\n  }\n\n  // overriding Crowdsale#validPurchase to add extra cap logic\n  // @return true if investors can buy at the moment\n  function validPurchase(uint256 _tokens) internal view returns (bool) {\n    bool withinCap = tokensSent.add(_tokens) <= hardCap;\n    return super.validPurchase(_tokens) && withinCap;\n  }\n  \n  // overriding Crowdsale#hasEnded to add cap logic\n  // @return true if crowdsale event has ended\n  function hasEnded() public view returns (bool) {\n    bool capReached = tokensSent >= hardCap;\n    return super.hasEnded() || capReached;\n  }\n\n  // overriding Crowdsale#successfulWithdraw to add cap logic\n  // only allow beneficiary to withdraw if softcap has been reached\n  // Uses withdrawn incase a parent contract requires withdrawing softcap early\n  function successfulWithdraw() external onlyOwner stopInEmergency {\n    require(hasEnded());\n    // This is used for extra functionality if necessary, i.e. KYC checks\n    require(canWithdraw);\n    require(tokensSent > softCap);\n\n    uint256 withdrawalAmount = weiRaised.sub(withdrawn);\n\n    withdrawn = withdrawn.add(withdrawalAmount);\n\n    beneficiary.transfer(withdrawalAmount);\n\n    BeneficiaryWithdrawal(msg.sender, withdrawalAmount, now);\n  }\n\n}",
  "sourcePath": "/Users/jackpickering/Desktop/Development/AX1 versions/AX1_portal_staging/contracts/CappedCrowdsale.sol",
  "compiler": {
    "name": "solc",
    "version": "0.4.21+commit.dfe3193c.Emscripten.clang"
  },
  "schemaVersion": "2.0.0",
  "updatedAt": "2018-04-04T17:00:34.195Z"
}