{
  "contractName": "Crowdsale",
  "abi": [
    {
      "constant": true,
      "inputs": [],
      "name": "contractAddr",
      "outputs": [
        {
          "name": "",
          "type": "address"
        }
      ],
      "payable": false,
      "stateMutability": "view",
      "type": "function"
    },
    {
      "constant": true,
      "inputs": [],
      "name": "tokensSent",
      "outputs": [
        {
          "name": "",
          "type": "uint256"
        }
      ],
      "payable": false,
      "stateMutability": "view",
      "type": "function"
    },
    {
      "constant": true,
      "inputs": [],
      "name": "rate",
      "outputs": [
        {
          "name": "",
          "type": "uint256"
        }
      ],
      "payable": false,
      "stateMutability": "view",
      "type": "function"
    },
    {
      "constant": true,
      "inputs": [],
      "name": "endTime",
      "outputs": [
        {
          "name": "",
          "type": "uint256"
        }
      ],
      "payable": false,
      "stateMutability": "view",
      "type": "function"
    },
    {
      "constant": true,
      "inputs": [],
      "name": "weiRaised",
      "outputs": [
        {
          "name": "",
          "type": "uint256"
        }
      ],
      "payable": false,
      "stateMutability": "view",
      "type": "function"
    },
    {
      "constant": true,
      "inputs": [],
      "name": "wallet",
      "outputs": [
        {
          "name": "",
          "type": "address"
        }
      ],
      "payable": false,
      "stateMutability": "view",
      "type": "function"
    },
    {
      "constant": true,
      "inputs": [
        {
          "name": "",
          "type": "address"
        }
      ],
      "name": "balanceOf",
      "outputs": [
        {
          "name": "",
          "type": "uint256"
        }
      ],
      "payable": false,
      "stateMutability": "view",
      "type": "function"
    },
    {
      "constant": true,
      "inputs": [],
      "name": "startTime",
      "outputs": [
        {
          "name": "",
          "type": "uint256"
        }
      ],
      "payable": false,
      "stateMutability": "view",
      "type": "function"
    },
    {
      "constant": true,
      "inputs": [
        {
          "name": "",
          "type": "uint128"
        }
      ],
      "name": "balancePerID",
      "outputs": [
        {
          "name": "",
          "type": "uint256"
        }
      ],
      "payable": false,
      "stateMutability": "view",
      "type": "function"
    },
    {
      "constant": true,
      "inputs": [],
      "name": "owner",
      "outputs": [
        {
          "name": "",
          "type": "address"
        }
      ],
      "payable": false,
      "stateMutability": "view",
      "type": "function"
    },
    {
      "constant": true,
      "inputs": [],
      "name": "halted",
      "outputs": [
        {
          "name": "",
          "type": "bool"
        }
      ],
      "payable": false,
      "stateMutability": "view",
      "type": "function"
    },
    {
      "constant": false,
      "inputs": [],
      "name": "stopICO",
      "outputs": [],
      "payable": false,
      "stateMutability": "nonpayable",
      "type": "function"
    },
    {
      "constant": true,
      "inputs": [
        {
          "name": "",
          "type": "address"
        }
      ],
      "name": "presaleBalanceOf",
      "outputs": [
        {
          "name": "",
          "type": "uint256"
        }
      ],
      "payable": false,
      "stateMutability": "view",
      "type": "function"
    },
    {
      "constant": true,
      "inputs": [
        {
          "name": "",
          "type": "address"
        }
      ],
      "name": "tokenBalanceOf",
      "outputs": [
        {
          "name": "",
          "type": "uint256"
        }
      ],
      "payable": false,
      "stateMutability": "view",
      "type": "function"
    },
    {
      "constant": false,
      "inputs": [
        {
          "name": "newOwner",
          "type": "address"
        }
      ],
      "name": "transferOwnership",
      "outputs": [],
      "payable": false,
      "stateMutability": "nonpayable",
      "type": "function"
    },
    {
      "constant": true,
      "inputs": [],
      "name": "presaleWeiRaised",
      "outputs": [
        {
          "name": "",
          "type": "uint256"
        }
      ],
      "payable": false,
      "stateMutability": "view",
      "type": "function"
    },
    {
      "constant": true,
      "inputs": [],
      "name": "token",
      "outputs": [
        {
          "name": "",
          "type": "address"
        }
      ],
      "payable": false,
      "stateMutability": "view",
      "type": "function"
    },
    {
      "inputs": [
        {
          "name": "_startTime",
          "type": "uint256"
        },
        {
          "name": "_endTime",
          "type": "uint256"
        },
        {
          "name": "_rate",
          "type": "uint256"
        },
        {
          "name": "_wallet",
          "type": "address"
        },
        {
          "name": "_token",
          "type": "address"
        }
      ],
      "payable": false,
      "stateMutability": "nonpayable",
      "type": "constructor"
    },
    {
      "anonymous": false,
      "inputs": [
        {
          "indexed": true,
          "name": "purchaser",
          "type": "address"
        },
        {
          "indexed": true,
          "name": "beneficiary",
          "type": "address"
        },
        {
          "indexed": false,
          "name": "value",
          "type": "uint256"
        },
        {
          "indexed": false,
          "name": "amount",
          "type": "uint256"
        },
        {
          "indexed": false,
          "name": "datetime",
          "type": "uint256"
        }
      ],
      "name": "TokenPurchase",
      "type": "event"
    },
    {
      "anonymous": false,
      "inputs": [
        {
          "indexed": false,
          "name": "owner",
          "type": "address"
        },
        {
          "indexed": false,
          "name": "datetime",
          "type": "uint256"
        }
      ],
      "name": "SaleStopped",
      "type": "event"
    },
    {
      "anonymous": false,
      "inputs": [
        {
          "indexed": true,
          "name": "previousOwner",
          "type": "address"
        },
        {
          "indexed": true,
          "name": "newOwner",
          "type": "address"
        }
      ],
      "name": "OwnershipTransferred",
      "type": "event"
    },
    {
      "constant": false,
      "inputs": [],
      "name": "successfulWithdraw",
      "outputs": [],
      "payable": false,
      "stateMutability": "nonpayable",
      "type": "function"
    },
    {
      "constant": true,
      "inputs": [],
      "name": "hasEnded",
      "outputs": [
        {
          "name": "",
          "type": "bool"
        }
      ],
      "payable": false,
      "stateMutability": "view",
      "type": "function"
    }
  ],
  "bytecode": "0x6060604052341561000f57600080fd5b60405160a080610750833981016040528080519190602001805191906020018051919060200180519190602001805160008054600160a060020a03191633600160a060020a03161790559150504285101561006957600080fd5b8484101561007657600080fd5b6000831161008357600080fd5b600160a060020a038216151561009857600080fd5b60018054600160a060020a03808416600160a060020a03199283161790925560028790556003869055600685905560048054928516929091169190911790556100ed826401000000006104e06100f782021704565b5050505050610185565b60005433600160a060020a0390811691161461011257600080fd5b600160a060020a038116151561012757600080fd5b600054600160a060020a0380831691167f8be0079c531659141344cd1fd0a4f28419497f9722a3daafe3b4186f6b6457e060405160405180910390a360008054600160a060020a031916600160a060020a0392909216919091179055565b6105bc806101946000396000f3006060604052600436106101065763ffffffff7c010000000000000000000000000000000000000000000000000000000060003504166315a5d9d8811461010b5780631f1307611461013a5780632c4e722e1461015f5780633197cbb6146101725780634042b66f14610185578063521eb2731461019857806370a08231146101ab57806378e97925146101ca5780637db71fc4146101dd5780638da5cb5b14610205578063b9b8af0b14610218578063bdd304061461023f578063c8e569a814610254578063dfc6fbaa14610267578063e42c08f214610286578063ecb70fb7146102a5578063f2fde38b146102b8578063f7c00e2f146102d7578063fc0c546a146102ea575b600080fd5b341561011657600080fd5b61011e6102fd565b604051600160a060020a03909116815260200160405180910390f35b341561014557600080fd5b61014d61030c565b60405190815260200160405180910390f35b341561016a57600080fd5b61014d610312565b341561017d57600080fd5b61014d610318565b341561019057600080fd5b61014d61031e565b34156101a357600080fd5b61011e610324565b34156101b657600080fd5b61014d600160a060020a0360043516610333565b34156101d557600080fd5b61014d610345565b34156101e857600080fd5b61014d6fffffffffffffffffffffffffffffffff6004351661034b565b341561021057600080fd5b61011e61035d565b341561022357600080fd5b61022b61036c565b604051901515815260200160405180910390f35b341561024a57600080fd5b61025261038d565b005b341561025f57600080fd5b61025261041e565b341561027257600080fd5b61014d600160a060020a03600435166104b4565b341561029157600080fd5b61014d600160a060020a03600435166104c6565b34156102b057600080fd5b61022b6104d8565b34156102c357600080fd5b610252600160a060020a03600435166104e0565b34156102e257600080fd5b61014d61057b565b34156102f557600080fd5b61011e610581565b600554600160a060020a031681565b60095481565b60065481565b60035481565b60075481565b600454600160a060020a031681565b600b6020526000908152604090205481565b60025481565b600a6020526000908152604090205481565b600054600160a060020a031681565b60005474010000000000000000000000000000000000000000900460ff1681565b60005433600160a060020a039081169116146103a857600080fd5b60005474010000000000000000000000000000000000000000900460ff16156103d057600080fd5b6103d86104d8565b15156103e357600080fd5b600054600754600160a060020a039091169080156108fc0290604051600060405180830381858888f19350505050151561041c57600080fd5b565b60005433600160a060020a0390811691161461043957600080fd5b6000805474ff00000000000000000000000000000000000000001916740100000000000000000000000000000000000000001790557f4898556e3bd8b06263e50e938f30f736c1fd2030390474dd6bc0b28d8c5450373342604051600160a060020a03909216825260208201526040908101905180910390a1565b600c6020526000908152604090205481565b600d6020526000908152604090205481565b600354421190565b60005433600160a060020a039081169116146104fb57600080fd5b600160a060020a038116151561051057600080fd5b600054600160a060020a0380831691167f8be0079c531659141344cd1fd0a4f28419497f9722a3daafe3b4186f6b6457e060405160405180910390a36000805473ffffffffffffffffffffffffffffffffffffffff1916600160a060020a0392909216919091179055565b60085481565b600154600160a060020a0316815600a165627a7a72305820b66837d5c9d34e952832b46c471176b9d70881a28e5f8350278f70cb84040bd40029",
  "source": "pragma solidity 0.4.21;\n\nimport './PickToken.sol';\nimport './SafeMath.sol';\nimport './Stoppable.sol';\n\n/**\n * @title Crowdsale\n * @dev Crowdsale is a base contract for managing a token crowdsale.\n * Crowdsales have a start and end timestamps, where investors can make\n * token purchases and the crowdsale will assign them tokens based\n * on a token per ETH rate. Funds collected are forwarded to a wallet\n * as they arrive.\n *\n * This base contract has been changed in certain areas by Pickeringware ltd to facilitate extra functionality\n */\ncontract Crowdsale is Stoppable {\n  using SafeMath for uint256;\n\n  // The token being sold\n  PickToken public token;\n\n  // start and end timestamps where investments are allowed (both inclusive)\n  uint256 public startTime;\n  uint256 public endTime;\n\n  // address where funds are collected\n  address public wallet;\n  address public contractAddr;\n  \n  // how many token units a buyer gets per wei\n  uint256 public rate;\n\n  // amount of raised money in wei\n  uint256 public weiRaised;\n  uint256 public presaleWeiRaised;\n\n  // amount of tokens sent\n  uint256 public tokensSent;\n\n  // These store balances of participants by ID, address and in wei, pre-sale wei and tokens\n  mapping(uint128 => uint256) public balancePerID;\n  mapping(address => uint256) public balanceOf;\n  mapping(address => uint256) public presaleBalanceOf;\n  mapping(address => uint256) public tokenBalanceOf;\n\n  /**\n   * event for token purchase logging\n   * @param purchaser who paid for the tokens\n   * @param beneficiary who got the tokens\n   * @param value weis paid for purchase\n   * @param amount amount of tokens purchased\n   */\n  event TokenPurchase(address indexed purchaser, address indexed beneficiary, uint256 value, uint256 amount, uint256 datetime);\n\n  /*\n   * Contructor\n   * This initialises the basic crowdsale data\n   * It transfers ownership of this token to the chosen beneficiary \n  */\n  function Crowdsale(uint256 _startTime, uint256 _endTime, uint256 _rate, address _wallet, PickToken _token) public {\n    require(_startTime >= now);\n    require(_endTime >= _startTime);\n    require(_rate > 0);\n    require(_wallet != address(0));\n\n    token = _token;\n    startTime = _startTime;\n    endTime = _endTime;\n    rate = _rate;\n    wallet = _wallet;\n    transferOwnership(_wallet);\n  }\n\n  /*\n   * This method has been changed by Pickeringware ltd\n   * We have split this method down into overidable functions which may affect how users purchase tokens\n   * We also take in a customerID (UUiD v4) which we store in our back-end in order to track users participation\n  */ \n  function buyTokens(uint128 buyer) internal stopInEmergency {\n    require(buyer != 0);\n\n    uint256 weiAmount = msg.value;\n\n    // calculate token amount to be created\n    uint256 tokens = tokensToRecieve(weiAmount);\n\n    // MUST DO REQUIRE AFTER tokens are calculated to check for cap restrictions in stages\n    require(validPurchase(tokens));\n\n    // We move the participants sliders before we mint the tokens to prevent re-entrancy\n    finalizeSale(weiAmount, tokens, buyer);\n    produceTokens(msg.sender, weiAmount, tokens);\n  }\n\n  // This function was created to be overridden by a parent contract\n  function produceTokens(address buyer, uint256 weiAmount, uint256 tokens) internal {\n    token.mint(buyer, tokens);\n    TokenPurchase(msg.sender, buyer, weiAmount, tokens, now);\n  }\n\n  // This was created to be overriden by stages implementation\n  // It will adjust the stage sliders accordingly if needed\n  function finalizeSale(uint256 _weiAmount, uint256 _tokens, uint128 _buyer) internal {\n    // Collect ETH and send them a token in return\n    balanceOf[msg.sender] = balanceOf[msg.sender].add(_weiAmount);\n    tokenBalanceOf[msg.sender] = tokenBalanceOf[msg.sender].add(_tokens);\n    balancePerID[_buyer] = balancePerID[_buyer].add(_weiAmount);\n\n    // update state\n    weiRaised = weiRaised.add(_weiAmount);\n    tokensSent = tokensSent.add(_tokens);\n  }\n  \n  // This was created to be overridden by the stages implementation\n  // Again, this is dependent on the price of tokens which may or may not be collected in stages\n  function tokensToRecieve(uint256 _wei) internal view returns (uint256 tokens) {\n    return _wei.div(rate);\n  }\n\n  // send ether to the fund collection wallet\n  // override to create custom fund forwarding mechanisms\n  function successfulWithdraw() external onlyOwner stopInEmergency {\n    require(hasEnded());\n\n    owner.transfer(weiRaised);\n  }\n\n  // @return true if the transaction can buy tokens\n  // Receives tokens to send as variable for custom stage implementation\n  // Has an unused variable _tokens which is necessary for capped sale implementation\n  function validPurchase(uint256 _tokens) internal view returns (bool) {\n    bool withinPeriod = now >= startTime && now <= endTime;\n    bool nonZeroPurchase = msg.value != 0;\n    return withinPeriod && nonZeroPurchase;\n  }\n\n  // @return true if crowdsale event has ended\n  function hasEnded() public view returns (bool) {\n    return now > endTime;\n  }\n}\n",
  "sourcePath": "/Users/jackpickering/Desktop/Development/AX1 versions/AX1_portal_staging/contracts/Crowdsale.sol",
  "compiler": {
    "name": "solc",
    "version": "0.4.21+commit.dfe3193c.Emscripten.clang"
  },
  "schemaVersion": "2.0.0",
  "updatedAt": "2018-04-04T17:00:34.196Z"
}