{
  "contractName": "KYCPayloadDeserializer",
  "abi": [
    {
      "constant": true,
      "inputs": [
        {
          "name": "dataframe",
          "type": "bytes"
        }
      ],
      "name": "getKYCPayload",
      "outputs": [
        {
          "name": "whitelistedAddress",
          "type": "address"
        },
        {
          "name": "customerId",
          "type": "uint128"
        },
        {
          "name": "minEth",
          "type": "uint32"
        },
        {
          "name": "maxEth",
          "type": "uint32"
        }
      ],
      "payable": false,
      "stateMutability": "pure",
      "type": "function"
    }
  ],
  "bytecode": "0x6060604052341561000f57600080fd5b6104908061001e6000396000f3006060604052600436106100275763ffffffff60e060020a60003504166373752db4811461002c575b600080fd5b341561003757600080fd5b61007d60046024813581810190830135806020601f820181900481020160405190810160405281815292919060208401838380828437509496506100d895505050505050565b60405173ffffffffffffffffffffffffffffffffffffffff90941684526fffffffffffffffffffffffffffffffff909216602084015263ffffffff908116604080850191909152911660608301526080909101905180910390f35b60008080808080808073__BytesDeserializer_____________________63b655e1388a836040518363ffffffff1660e060020a0281526004018080602001838152602001828103825284818151815260200191508051906020019080838360005b8381101561015257808201518382015260200161013a565b50505050905090810190601f16801561017f5780820380516001836020036101000a031916815260200191505b50935050505060206040518083038186803b151561019c57600080fd5b5af415156101a957600080fd5b5050506040518051945073__BytesDeserializer_____________________90506316419aa78a60146040518363ffffffff1660e060020a0281526004018080602001838152602001828103825284818151815260200191508051906020019080838360005b8381101561022757808201518382015260200161020f565b50505050905090810190601f1680156102545780820380516001836020036101000a031916815260200191505b50935050505060206040518083038186803b151561027157600080fd5b5af4151561027e57600080fd5b50505060405180517001000000000000000000000000000000009004935073__BytesDeserializer_____________________905063d54dd8f98a60246040518363ffffffff1660e060020a0281526004018080602001838152602001828103825284818151815260200191508051906020019080838360005b838110156103105780820151838201526020016102f8565b50505050905090810190601f16801561033d5780820380516001836020036101000a031916815260200191505b50935050505060206040518083038186803b151561035a57600080fd5b5af4151561036757600080fd5b505050604051805160e060020a9004925073__BytesDeserializer_____________________905063d54dd8f98a60286040518363ffffffff1660e060020a0281526004018080602001838152602001828103825284818151815260200191508051906020019080838360005b838110156103ec5780820151838201526020016103d4565b50505050905090810190601f1680156104195780820380516001836020036101000a031916815260200191505b50935050505060206040518083038186803b151561043657600080fd5b5af4151561044357600080fd5b5050506040518051949a9399509197505060e060020a9092049450925050505600a165627a7a72305820601f269f1e347c871c12d22418d9bc27952d678de4d6b6f6fd99f2f44e5972150029",
  "source": "pragma solidity 0.4.21;\n/**\n * This smart contract code is Copyright 2017 TokenMarket Ltd. For more information see https://tokenmarket.net\n *\n * Licensed under the Apache License, version 2.0: https://github.com/TokenMarketNet/ico/blob/master/LICENSE.txt\n */\n\n\nimport \"./BytesDeserializer.sol\";\n\n/**\n * A mix-in contract to decode AML payloads.\n *\n * @notice This should be a library, but for the complexity and toolchain fragility risks involving of linking library inside library, we put this as a mix-in.\n */\ncontract KYCPayloadDeserializer {\n\n  using BytesDeserializer for bytes;\n\n  /**\n   * This function takes the dataframe and unpacks it\n   * We have the users ETH address for verification that they are using their own signature\n   * CustomerID so we can track customer purchases\n   * Min/Max ETH to invest for AML/CTF purposes - this can be supplied by the user OR by the back-end.\n   */\n  function getKYCPayload(bytes dataframe) public pure returns(address whitelistedAddress, uint128 customerId, uint32 minEth, uint32 maxEth) {\n    address _whitelistedAddress = dataframe.sliceAddress(0);\n    uint128 _customerId = uint128(dataframe.slice16(20));\n    uint32 _minETH = uint32(dataframe.slice4(36));\n    uint32 _maxETH = uint32(dataframe.slice4(40));\n    return (_whitelistedAddress, _customerId, _minETH, _maxETH);\n  }\n\n}",
  "sourcePath": "/Users/jackpickering/Desktop/Development/AX1 versions/AX1_portal_staging/contracts/KYCPayloadDeserializer.sol",
  "compiler": {
    "name": "solc",
    "version": "0.4.21+commit.dfe3193c.Emscripten.clang"
  },
  "schemaVersion": "2.0.0",
  "updatedAt": "2018-04-04T17:00:34.200Z"
}