{
  "contractName": "PickToken",
  "abi": [
    {
      "constant": false,
      "inputs": [
        {
          "name": "addr",
          "type": "address"
        },
        {
          "name": "state",
          "type": "bool"
        }
      ],
      "name": "setTransferAgent",
      "outputs": [],
      "payable": false,
      "stateMutability": "nonpayable",
      "type": "function"
    },
    {
      "constant": true,
      "inputs": [],
      "name": "mintingFinished",
      "outputs": [
        {
          "name": "",
          "type": "bool"
        }
      ],
      "payable": false,
      "stateMutability": "view",
      "type": "function"
    },
    {
      "constant": true,
      "inputs": [],
      "name": "name",
      "outputs": [
        {
          "name": "",
          "type": "string"
        }
      ],
      "payable": false,
      "stateMutability": "view",
      "type": "function"
    },
    {
      "constant": false,
      "inputs": [
        {
          "name": "_spender",
          "type": "address"
        },
        {
          "name": "_value",
          "type": "uint256"
        }
      ],
      "name": "approve",
      "outputs": [
        {
          "name": "",
          "type": "bool"
        }
      ],
      "payable": false,
      "stateMutability": "nonpayable",
      "type": "function"
    },
    {
      "constant": true,
      "inputs": [],
      "name": "totalSupply",
      "outputs": [
        {
          "name": "",
          "type": "uint256"
        }
      ],
      "payable": false,
      "stateMutability": "view",
      "type": "function"
    },
    {
      "constant": false,
      "inputs": [
        {
          "name": "_from",
          "type": "address"
        },
        {
          "name": "_to",
          "type": "address"
        },
        {
          "name": "_value",
          "type": "uint256"
        }
      ],
      "name": "transferFrom",
      "outputs": [
        {
          "name": "success",
          "type": "bool"
        }
      ],
      "payable": false,
      "stateMutability": "nonpayable",
      "type": "function"
    },
    {
      "constant": false,
      "inputs": [
        {
          "name": "fromWhom",
          "type": "address"
        }
      ],
      "name": "reclaimAllAndBurn",
      "outputs": [],
      "payable": false,
      "stateMutability": "nonpayable",
      "type": "function"
    },
    {
      "constant": true,
      "inputs": [],
      "name": "decimals",
      "outputs": [
        {
          "name": "",
          "type": "uint8"
        }
      ],
      "payable": false,
      "stateMutability": "view",
      "type": "function"
    },
    {
      "constant": false,
      "inputs": [],
      "name": "setReleaseAgent",
      "outputs": [],
      "payable": false,
      "stateMutability": "nonpayable",
      "type": "function"
    },
    {
      "constant": false,
      "inputs": [
        {
          "name": "_to",
          "type": "address"
        },
        {
          "name": "_amount",
          "type": "uint256"
        }
      ],
      "name": "mint",
      "outputs": [
        {
          "name": "",
          "type": "bool"
        }
      ],
      "payable": false,
      "stateMutability": "nonpayable",
      "type": "function"
    },
    {
      "constant": false,
      "inputs": [],
      "name": "releaseTokenTransfer",
      "outputs": [],
      "payable": false,
      "stateMutability": "nonpayable",
      "type": "function"
    },
    {
      "constant": false,
      "inputs": [
        {
          "name": "_spender",
          "type": "address"
        },
        {
          "name": "_subtractedValue",
          "type": "uint256"
        }
      ],
      "name": "decreaseApproval",
      "outputs": [
        {
          "name": "",
          "type": "bool"
        }
      ],
      "payable": false,
      "stateMutability": "nonpayable",
      "type": "function"
    },
    {
      "constant": true,
      "inputs": [
        {
          "name": "_owner",
          "type": "address"
        }
      ],
      "name": "balanceOf",
      "outputs": [
        {
          "name": "balance",
          "type": "uint256"
        }
      ],
      "payable": false,
      "stateMutability": "view",
      "type": "function"
    },
    {
      "constant": false,
      "inputs": [],
      "name": "finishMinting",
      "outputs": [
        {
          "name": "",
          "type": "bool"
        }
      ],
      "payable": false,
      "stateMutability": "nonpayable",
      "type": "function"
    },
    {
      "constant": true,
      "inputs": [
        {
          "name": "",
          "type": "address"
        }
      ],
      "name": "transferAgents",
      "outputs": [
        {
          "name": "",
          "type": "bool"
        }
      ],
      "payable": false,
      "stateMutability": "view",
      "type": "function"
    },
    {
      "constant": true,
      "inputs": [],
      "name": "owner",
      "outputs": [
        {
          "name": "",
          "type": "address"
        }
      ],
      "payable": false,
      "stateMutability": "view",
      "type": "function"
    },
    {
      "constant": true,
      "inputs": [],
      "name": "symbol",
      "outputs": [
        {
          "name": "",
          "type": "string"
        }
      ],
      "payable": false,
      "stateMutability": "view",
      "type": "function"
    },
    {
      "constant": true,
      "inputs": [],
      "name": "released",
      "outputs": [
        {
          "name": "",
          "type": "bool"
        }
      ],
      "payable": false,
      "stateMutability": "view",
      "type": "function"
    },
    {
      "constant": false,
      "inputs": [
        {
          "name": "_to",
          "type": "address"
        },
        {
          "name": "_value",
          "type": "uint256"
        }
      ],
      "name": "transfer",
      "outputs": [
        {
          "name": "success",
          "type": "bool"
        }
      ],
      "payable": false,
      "stateMutability": "nonpayable",
      "type": "function"
    },
    {
      "constant": true,
      "inputs": [],
      "name": "releaseAgent",
      "outputs": [
        {
          "name": "",
          "type": "address"
        }
      ],
      "payable": false,
      "stateMutability": "view",
      "type": "function"
    },
    {
      "constant": false,
      "inputs": [
        {
          "name": "_spender",
          "type": "address"
        },
        {
          "name": "_addedValue",
          "type": "uint256"
        }
      ],
      "name": "increaseApproval",
      "outputs": [
        {
          "name": "",
          "type": "bool"
        }
      ],
      "payable": false,
      "stateMutability": "nonpayable",
      "type": "function"
    },
    {
      "constant": true,
      "inputs": [
        {
          "name": "_owner",
          "type": "address"
        },
        {
          "name": "_spender",
          "type": "address"
        }
      ],
      "name": "allowance",
      "outputs": [
        {
          "name": "",
          "type": "uint256"
        }
      ],
      "payable": false,
      "stateMutability": "view",
      "type": "function"
    },
    {
      "constant": false,
      "inputs": [
        {
          "name": "newOwner",
          "type": "address"
        }
      ],
      "name": "transferOwnership",
      "outputs": [],
      "payable": false,
      "stateMutability": "nonpayable",
      "type": "function"
    },
    {
      "constant": false,
      "inputs": [
        {
          "name": "fromWhom",
          "type": "address"
        },
        {
          "name": "amount",
          "type": "uint256"
        }
      ],
      "name": "reclaimAndBurn",
      "outputs": [],
      "payable": false,
      "stateMutability": "nonpayable",
      "type": "function"
    },
    {
      "anonymous": false,
      "inputs": [
        {
          "indexed": false,
          "name": "claimedBy",
          "type": "address"
        },
        {
          "indexed": false,
          "name": "fromWhom",
          "type": "address"
        },
        {
          "indexed": false,
          "name": "amount",
          "type": "uint256"
        }
      ],
      "name": "ReclaimedAllAndBurned",
      "type": "event"
    },
    {
      "anonymous": false,
      "inputs": [
        {
          "indexed": false,
          "name": "claimedBy",
          "type": "address"
        },
        {
          "indexed": false,
          "name": "fromWhom",
          "type": "address"
        },
        {
          "indexed": false,
          "name": "amount",
          "type": "uint256"
        }
      ],
      "name": "ReclaimAndBurned",
      "type": "event"
    },
    {
      "anonymous": false,
      "inputs": [
        {
          "indexed": true,
          "name": "to",
          "type": "address"
        },
        {
          "indexed": false,
          "name": "amount",
          "type": "uint256"
        }
      ],
      "name": "Mint",
      "type": "event"
    },
    {
      "anonymous": false,
      "inputs": [],
      "name": "MintFinished",
      "type": "event"
    },
    {
      "anonymous": false,
      "inputs": [
        {
          "indexed": true,
          "name": "previousOwner",
          "type": "address"
        },
        {
          "indexed": true,
          "name": "newOwner",
          "type": "address"
        }
      ],
      "name": "OwnershipTransferred",
      "type": "event"
    },
    {
      "anonymous": false,
      "inputs": [
        {
          "indexed": true,
          "name": "owner",
          "type": "address"
        },
        {
          "indexed": true,
          "name": "spender",
          "type": "address"
        },
        {
          "indexed": false,
          "name": "value",
          "type": "uint256"
        }
      ],
      "name": "Approval",
      "type": "event"
    },
    {
      "anonymous": false,
      "inputs": [
        {
          "indexed": true,
          "name": "from",
          "type": "address"
        },
        {
          "indexed": true,
          "name": "to",
          "type": "address"
        },
        {
          "indexed": false,
          "name": "value",
          "type": "uint256"
        }
      ],
      "name": "Transfer",
      "type": "event"
    }
  ],
  "bytecode": "0x606060409081526004805460a060020a60ff02191690556006805460ff191690558051908101604052601081527f415831204d696e696e6720746f6b656e000000000000000000000000000000006020820152600790805162000067929160200190620000e2565b5060408051908101604052600381527f415831000000000000000000000000000000000000000000000000000000000060208201526008908051620000b1929160200190620000e2565b506009805460ff1916600517905560038054600160a060020a033316600160a060020a031990911617905562000187565b828054600181600116156101000203166002900490600052602060002090601f016020900481019282601f106200012557805160ff191683800117855562000155565b8280016001018555821562000155579182015b828111156200015557825182559160200191906001019062000138565b506200016392915062000167565b5090565b6200018491905b808211156200016357600081556001016200016e565b90565b61108880620001976000396000f30060606040526004361061013d5763ffffffff7c010000000000000000000000000000000000000000000000000000000060003504166302f652a3811461014257806305d2035b1461016857806306fdde031461018f578063095ea7b31461021957806318160ddd1461023b57806323b872dd146102605780632a724f2a14610288578063313ce567146102a75780633e96d28e146102d057806340c10f19146102e35780635f412d4f14610305578063661884631461031857806370a082311461033a5780637d64bcb414610359578063867c28571461036c5780638da5cb5b1461038b57806395d89b41146103ba57806396132521146103cd578063a9059cbb146103e0578063d1f276d314610402578063d73dd62314610415578063dd62ed3e14610437578063f2fde38b1461045c578063fb920ad11461047b575b600080fd5b341561014d57600080fd5b610166600160a060020a0360043516602435151561049d565b005b341561017357600080fd5b61017b6104fe565b604051901515815260200160405180910390f35b341561019a57600080fd5b6101a2610507565b60405160208082528190810183818151815260200191508051906020019080838360005b838110156101de5780820151838201526020016101c6565b50505050905090810190601f16801561020b5780820380516001836020036101000a031916815260200191505b509250505060405180910390f35b341561022457600080fd5b61017b600160a060020a03600435166024356105a5565b341561024657600080fd5b61024e610611565b60405190815260200160405180910390f35b341561026b57600080fd5b61017b600160a060020a0360043581169060243516604435610617565b341561029357600080fd5b610166600160a060020a036004351661066a565b34156102b257600080fd5b6102ba610732565b60405160ff909116815260200160405180910390f35b34156102db57600080fd5b61016661073b565b34156102ee57600080fd5b61017b600160a060020a03600435166024356107a2565b341561031057600080fd5b6101666108a8565b341561032357600080fd5b61017b600160a060020a03600435166024356108e9565b341561034557600080fd5b61024e600160a060020a03600435166109e3565b341561036457600080fd5b61017b6109fe565b341561037757600080fd5b61017b600160a060020a0360043516610a6b565b341561039657600080fd5b61039e610a80565b604051600160a060020a03909116815260200160405180910390f35b34156103c557600080fd5b6101a2610a8f565b34156103d857600080fd5b61017b610afa565b34156103eb57600080fd5b61017b600160a060020a0360043516602435610b0a565b341561040d57600080fd5b61039e610b5b565b341561042057600080fd5b61017b600160a060020a0360043516602435610b6a565b341561044257600080fd5b61024e600160a060020a0360043581169060243516610c0e565b341561046757600080fd5b610166600160a060020a0360043516610c39565b341561048657600080fd5b610166600160a060020a0360043516602435610cd4565b60045433600160a060020a039081169116146104b857600080fd5b60045460009060a060020a900460ff16156104d257600080fd5b50600160a060020a03919091166000908152600560205260409020805460ff1916911515919091179055565b60065460ff1681565b60078054600181600116156101000203166002900480601f01602080910402602001604051908101604052809291908181526020018280546001816001161561010002031660029004801561059d5780601f106105725761010080835404028352916020019161059d565b820191906000526020600020905b81548152906001019060200180831161058057829003601f168201915b505050505081565b600160a060020a03338116600081815260026020908152604080832094871680845294909152808220859055909291907f8c5be1e5ebec7d5bd14f71427d1e84f3dd0314c0f7b2291e5b200ac8c7c3b9259085905190815260200160405180910390a350600192915050565b60005481565b600454600090849060a060020a900460ff16151561065657600160a060020a03811660009081526005602052604090205460ff16151561065657600080fd5b610661858585610db7565b95945050505050565b60045460009033600160a060020a0390811691161461068857600080fd5b60045460009060a060020a900460ff16156106a257600080fd5b6106ab836109e3565b600160a060020a0384166000908152600160205260408120819055549092506106da908363ffffffff610f3916565b6000557f99dac1e42583126a1fd369c8a7c5bd04067b92ad15c37d50ee75083c7da24989338484604051600160a060020a039384168152919092166020820152604080820192909252606001905180910390a1505050565b60095460ff1681565b60035433600160a060020a0390811691161461075657600080fd5b60045460009060a060020a900460ff161561077057600080fd5b506003546004805473ffffffffffffffffffffffffffffffffffffffff1916600160a060020a03909216919091179055565b60035460009033600160a060020a039081169116146107c057600080fd5b60065460ff16156107d057600080fd5b6000546107e3908363ffffffff610f4b16565b6000908155600160a060020a03841681526001602052604090205461080e908363ffffffff610f4b16565b600160a060020a0384166000818152600160205260409081902092909255907f0f6798a560793a54c3bcfe86a93cde1e73087d944c0ea20544137d41213968859084905190815260200160405180910390a2600160a060020a03831660007fddf252ad1be2c89b69c2b068fc378daa952ba7f163c4a11628f55a4df523b3ef8460405190815260200160405180910390a350600192915050565b60045433600160a060020a039081169116146108c357600080fd5b6004805474ff0000000000000000000000000000000000000000191660a060020a179055565b600160a060020a0333811660009081526002602090815260408083209386168352929052908120548083111561094657600160a060020a03338116600090815260026020908152604080832093881683529290529081205561097d565b610956818463ffffffff610f3916565b600160a060020a033381166000908152600260209081526040808320938916835292905220555b600160a060020a0333811660008181526002602090815260408083209489168084529490915290819020547f8c5be1e5ebec7d5bd14f71427d1e84f3dd0314c0f7b2291e5b200ac8c7c3b925915190815260200160405180910390a35060019392505050565b600160a060020a031660009081526001602052604090205490565b60035460009033600160a060020a03908116911614610a1c57600080fd5b60065460ff1615610a2c57600080fd5b6006805460ff191660011790557fae5184fba832cb2b1f702aca6117b8d265eaf03ad33eb133f19dde0f5920fa0860405160405180910390a150600190565b60056020526000908152604090205460ff1681565b600354600160a060020a031681565b60088054600181600116156101000203166002900480601f01602080910402602001604051908101604052809291908181526020018280546001816001161561010002031660029004801561059d5780601f106105725761010080835404028352916020019161059d565b60045460a060020a900460ff1681565b600454600090339060a060020a900460ff161515610b4957600160a060020a03811660009081526005602052604090205460ff161515610b4957600080fd5b610b538484610f61565b949350505050565b600454600160a060020a031681565b600160a060020a033381166000908152600260209081526040808320938616835292905290812054610ba2908363ffffffff610f4b16565b600160a060020a0333811660008181526002602090815260408083209489168084529490915290819020849055919290917f8c5be1e5ebec7d5bd14f71427d1e84f3dd0314c0f7b2291e5b200ac8c7c3b92591905190815260200160405180910390a350600192915050565b600160a060020a03918216600090815260026020908152604080832093909416825291909152205490565b60035433600160a060020a03908116911614610c5457600080fd5b600160a060020a0381161515610c6957600080fd5b600354600160a060020a0380831691167f8be0079c531659141344cd1fd0a4f28419497f9722a3daafe3b4186f6b6457e060405160405180910390a36003805473ffffffffffffffffffffffffffffffffffffffff1916600160a060020a0392909216919091179055565b60045433600160a060020a03908116911614610cef57600080fd5b60045460009060a060020a900460ff1615610d0957600080fd5b600160a060020a038316600090815260016020526040902054610d32908363ffffffff610f3916565b600160a060020a03841660009081526001602052604081209190915554610d5f908363ffffffff610f3916565b6000557f695f34178667d2b4fce11a766e0c9d745bad9429aa5f435302ff673c30d81541338484604051600160a060020a039384168152919092166020820152604080820192909252606001905180910390a1505050565b6000600160a060020a0383161515610dce57600080fd5b600160a060020a038416600090815260016020526040902054821115610df357600080fd5b600160a060020a0380851660009081526002602090815260408083203390941683529290522054821115610e2657600080fd5b600160a060020a038416600090815260016020526040902054610e4f908363ffffffff610f3916565b600160a060020a038086166000908152600160205260408082209390935590851681522054610e84908363ffffffff610f4b16565b600160a060020a03808516600090815260016020908152604080832094909455878316825260028152838220339093168252919091522054610ecc908363ffffffff610f3916565b600160a060020a03808616600081815260026020908152604080832033861684529091529081902093909355908516917fddf252ad1be2c89b69c2b068fc378daa952ba7f163c4a11628f55a4df523b3ef9085905190815260200160405180910390a35060019392505050565b600082821115610f4557fe5b50900390565b600082820183811015610f5a57fe5b9392505050565b6000600160a060020a0383161515610f7857600080fd5b600160a060020a033316600090815260016020526040902054821115610f9d57600080fd5b600160a060020a033316600090815260016020526040902054610fc6908363ffffffff610f3916565b600160a060020a033381166000908152600160205260408082209390935590851681522054610ffb908363ffffffff610f4b16565b600160a060020a0380851660008181526001602052604090819020939093559133909116907fddf252ad1be2c89b69c2b068fc378daa952ba7f163c4a11628f55a4df523b3ef9085905190815260200160405180910390a3506001929150505600a165627a7a72305820d3169b8281afc9491d44b45b56c8598cc1869c85f5c834033558e59a700a106d0029",
  "source": "pragma solidity 0.4.21;\n\n/*\n * This token is part of Pickeringware ltds smart contracts\n * It is used to specify certain details about the token upon release\n */\n\nimport './AMLToken.sol';\n\ncontract PickToken is AMLToken {\n  string public name = \"AX1 Mining token\";\n  string public symbol = \"AX1\";\n  uint8 public decimals = 5;\n}",
  "sourcePath": "/Users/jackpickering/Desktop/Development/AX1 versions/AX1_portal_staging/contracts/PickToken.sol",
  "compiler": {
    "name": "solc",
    "version": "0.4.21+commit.dfe3193c.Emscripten.clang"
  },
  "schemaVersion": "2.0.0",
  "updatedAt": "2018-04-04T17:12:25.961Z"
}