{
  "contractName": "ReleasableToken",
  "abi": [
    {
      "constant": false,
      "inputs": [
        {
          "name": "_spender",
          "type": "address"
        },
        {
          "name": "_value",
          "type": "uint256"
        }
      ],
      "name": "approve",
      "outputs": [
        {
          "name": "",
          "type": "bool"
        }
      ],
      "payable": false,
      "stateMutability": "nonpayable",
      "type": "function"
    },
    {
      "constant": true,
      "inputs": [],
      "name": "totalSupply",
      "outputs": [
        {
          "name": "",
          "type": "uint256"
        }
      ],
      "payable": false,
      "stateMutability": "view",
      "type": "function"
    },
    {
      "constant": false,
      "inputs": [
        {
          "name": "_spender",
          "type": "address"
        },
        {
          "name": "_subtractedValue",
          "type": "uint256"
        }
      ],
      "name": "decreaseApproval",
      "outputs": [
        {
          "name": "",
          "type": "bool"
        }
      ],
      "payable": false,
      "stateMutability": "nonpayable",
      "type": "function"
    },
    {
      "constant": true,
      "inputs": [
        {
          "name": "_owner",
          "type": "address"
        }
      ],
      "name": "balanceOf",
      "outputs": [
        {
          "name": "balance",
          "type": "uint256"
        }
      ],
      "payable": false,
      "stateMutability": "view",
      "type": "function"
    },
    {
      "constant": true,
      "inputs": [
        {
          "name": "",
          "type": "address"
        }
      ],
      "name": "transferAgents",
      "outputs": [
        {
          "name": "",
          "type": "bool"
        }
      ],
      "payable": false,
      "stateMutability": "view",
      "type": "function"
    },
    {
      "constant": true,
      "inputs": [],
      "name": "owner",
      "outputs": [
        {
          "name": "",
          "type": "address"
        }
      ],
      "payable": false,
      "stateMutability": "view",
      "type": "function"
    },
    {
      "constant": true,
      "inputs": [],
      "name": "released",
      "outputs": [
        {
          "name": "",
          "type": "bool"
        }
      ],
      "payable": false,
      "stateMutability": "view",
      "type": "function"
    },
    {
      "constant": true,
      "inputs": [],
      "name": "releaseAgent",
      "outputs": [
        {
          "name": "",
          "type": "address"
        }
      ],
      "payable": false,
      "stateMutability": "view",
      "type": "function"
    },
    {
      "constant": false,
      "inputs": [
        {
          "name": "_spender",
          "type": "address"
        },
        {
          "name": "_addedValue",
          "type": "uint256"
        }
      ],
      "name": "increaseApproval",
      "outputs": [
        {
          "name": "",
          "type": "bool"
        }
      ],
      "payable": false,
      "stateMutability": "nonpayable",
      "type": "function"
    },
    {
      "constant": true,
      "inputs": [
        {
          "name": "_owner",
          "type": "address"
        },
        {
          "name": "_spender",
          "type": "address"
        }
      ],
      "name": "allowance",
      "outputs": [
        {
          "name": "",
          "type": "uint256"
        }
      ],
      "payable": false,
      "stateMutability": "view",
      "type": "function"
    },
    {
      "constant": false,
      "inputs": [
        {
          "name": "newOwner",
          "type": "address"
        }
      ],
      "name": "transferOwnership",
      "outputs": [],
      "payable": false,
      "stateMutability": "nonpayable",
      "type": "function"
    },
    {
      "anonymous": false,
      "inputs": [
        {
          "indexed": true,
          "name": "previousOwner",
          "type": "address"
        },
        {
          "indexed": true,
          "name": "newOwner",
          "type": "address"
        }
      ],
      "name": "OwnershipTransferred",
      "type": "event"
    },
    {
      "anonymous": false,
      "inputs": [
        {
          "indexed": true,
          "name": "owner",
          "type": "address"
        },
        {
          "indexed": true,
          "name": "spender",
          "type": "address"
        },
        {
          "indexed": false,
          "name": "value",
          "type": "uint256"
        }
      ],
      "name": "Approval",
      "type": "event"
    },
    {
      "anonymous": false,
      "inputs": [
        {
          "indexed": true,
          "name": "from",
          "type": "address"
        },
        {
          "indexed": true,
          "name": "to",
          "type": "address"
        },
        {
          "indexed": false,
          "name": "value",
          "type": "uint256"
        }
      ],
      "name": "Transfer",
      "type": "event"
    },
    {
      "constant": false,
      "inputs": [],
      "name": "setReleaseAgent",
      "outputs": [],
      "payable": false,
      "stateMutability": "nonpayable",
      "type": "function"
    },
    {
      "constant": false,
      "inputs": [
        {
          "name": "addr",
          "type": "address"
        },
        {
          "name": "state",
          "type": "bool"
        }
      ],
      "name": "setTransferAgent",
      "outputs": [],
      "payable": false,
      "stateMutability": "nonpayable",
      "type": "function"
    },
    {
      "constant": false,
      "inputs": [],
      "name": "releaseTokenTransfer",
      "outputs": [],
      "payable": false,
      "stateMutability": "nonpayable",
      "type": "function"
    },
    {
      "constant": false,
      "inputs": [
        {
          "name": "_to",
          "type": "address"
        },
        {
          "name": "_value",
          "type": "uint256"
        }
      ],
      "name": "transfer",
      "outputs": [
        {
          "name": "success",
          "type": "bool"
        }
      ],
      "payable": false,
      "stateMutability": "nonpayable",
      "type": "function"
    },
    {
      "constant": false,
      "inputs": [
        {
          "name": "_from",
          "type": "address"
        },
        {
          "name": "_to",
          "type": "address"
        },
        {
          "name": "_value",
          "type": "uint256"
        }
      ],
      "name": "transferFrom",
      "outputs": [
        {
          "name": "success",
          "type": "bool"
        }
      ],
      "payable": false,
      "stateMutability": "nonpayable",
      "type": "function"
    }
  ],
  "bytecode": "0x60606040526004805460a060020a60ff021916905560038054600160a060020a03191633600160a060020a0316179055610aa88061003e6000396000f3006060604052600436106100e55763ffffffff7c010000000000000000000000000000000000000000000000000000000060003504166302f652a381146100ea578063095ea7b31461011057806318160ddd1461014657806323b872dd1461016b5780633e96d28e146101935780635f412d4f146101a657806366188463146101b957806370a08231146101db578063867c2857146101fa5780638da5cb5b146102195780639613252114610248578063a9059cbb1461025b578063d1f276d31461027d578063d73dd62314610290578063dd62ed3e146102b2578063f2fde38b146102d7575b600080fd5b34156100f557600080fd5b61010e600160a060020a036004351660243515156102f6565b005b341561011b57600080fd5b610132600160a060020a0360043516602435610357565b604051901515815260200160405180910390f35b341561015157600080fd5b6101596103c3565b60405190815260200160405180910390f35b341561017657600080fd5b610132600160a060020a03600435811690602435166044356103c9565b341561019e57600080fd5b61010e61041c565b34156101b157600080fd5b61010e610483565b34156101c457600080fd5b610132600160a060020a03600435166024356104c4565b34156101e657600080fd5b610159600160a060020a03600435166105be565b341561020557600080fd5b610132600160a060020a03600435166105d9565b341561022457600080fd5b61022c6105ee565b604051600160a060020a03909116815260200160405180910390f35b341561025357600080fd5b6101326105fd565b341561026657600080fd5b610132600160a060020a036004351660243561060d565b341561028857600080fd5b61022c61065e565b341561029b57600080fd5b610132600160a060020a036004351660243561066d565b34156102bd57600080fd5b610159600160a060020a0360043581169060243516610711565b34156102e257600080fd5b61010e600160a060020a036004351661073c565b60045433600160a060020a0390811691161461031157600080fd5b60045460009060a060020a900460ff161561032b57600080fd5b50600160a060020a03919091166000908152600560205260409020805460ff1916911515919091179055565b600160a060020a03338116600081815260026020908152604080832094871680845294909152808220859055909291907f8c5be1e5ebec7d5bd14f71427d1e84f3dd0314c0f7b2291e5b200ac8c7c3b9259085905190815260200160405180910390a350600192915050565b60005481565b600454600090849060a060020a900460ff16151561040857600160a060020a03811660009081526005602052604090205460ff16151561040857600080fd5b6104138585856107d7565b95945050505050565b60035433600160a060020a0390811691161461043757600080fd5b60045460009060a060020a900460ff161561045157600080fd5b506003546004805473ffffffffffffffffffffffffffffffffffffffff1916600160a060020a03909216919091179055565b60045433600160a060020a0390811691161461049e57600080fd5b6004805474ff0000000000000000000000000000000000000000191660a060020a179055565b600160a060020a0333811660009081526002602090815260408083209386168352929052908120548083111561052157600160a060020a033381166000908152600260209081526040808320938816835292905290812055610558565b610531818463ffffffff61095916565b600160a060020a033381166000908152600260209081526040808320938916835292905220555b600160a060020a0333811660008181526002602090815260408083209489168084529490915290819020547f8c5be1e5ebec7d5bd14f71427d1e84f3dd0314c0f7b2291e5b200ac8c7c3b925915190815260200160405180910390a35060019392505050565b600160a060020a031660009081526001602052604090205490565b60056020526000908152604090205460ff1681565b600354600160a060020a031681565b60045460a060020a900460ff1681565b600454600090339060a060020a900460ff16151561064c57600160a060020a03811660009081526005602052604090205460ff16151561064c57600080fd5b610656848461096b565b949350505050565b600454600160a060020a031681565b600160a060020a0333811660009081526002602090815260408083209386168352929052908120546106a5908363ffffffff610a6616565b600160a060020a0333811660008181526002602090815260408083209489168084529490915290819020849055919290917f8c5be1e5ebec7d5bd14f71427d1e84f3dd0314c0f7b2291e5b200ac8c7c3b92591905190815260200160405180910390a350600192915050565b600160a060020a03918216600090815260026020908152604080832093909416825291909152205490565b60035433600160a060020a0390811691161461075757600080fd5b600160a060020a038116151561076c57600080fd5b600354600160a060020a0380831691167f8be0079c531659141344cd1fd0a4f28419497f9722a3daafe3b4186f6b6457e060405160405180910390a36003805473ffffffffffffffffffffffffffffffffffffffff1916600160a060020a0392909216919091179055565b6000600160a060020a03831615156107ee57600080fd5b600160a060020a03841660009081526001602052604090205482111561081357600080fd5b600160a060020a038085166000908152600260209081526040808320339094168352929052205482111561084657600080fd5b600160a060020a03841660009081526001602052604090205461086f908363ffffffff61095916565b600160a060020a0380861660009081526001602052604080822093909355908516815220546108a4908363ffffffff610a6616565b600160a060020a038085166000908152600160209081526040808320949094558783168252600281528382203390931682529190915220546108ec908363ffffffff61095916565b600160a060020a03808616600081815260026020908152604080832033861684529091529081902093909355908516917fddf252ad1be2c89b69c2b068fc378daa952ba7f163c4a11628f55a4df523b3ef9085905190815260200160405180910390a35060019392505050565b60008282111561096557fe5b50900390565b6000600160a060020a038316151561098257600080fd5b600160a060020a0333166000908152600160205260409020548211156109a757600080fd5b600160a060020a0333166000908152600160205260409020546109d0908363ffffffff61095916565b600160a060020a033381166000908152600160205260408082209390935590851681522054610a05908363ffffffff610a6616565b600160a060020a0380851660008181526001602052604090819020939093559133909116907fddf252ad1be2c89b69c2b068fc378daa952ba7f163c4a11628f55a4df523b3ef9085905190815260200160405180910390a350600192915050565b600082820183811015610a7557fe5b93925050505600a165627a7a723058206cb66896d81d3249f7ff919489e7376846cdffc153c8e418dc45c50d79ad2e280029",
  "source": "/**\n * This smart contract code is Copyright 2017 TokenMarket Ltd. For more information see https://tokenmarket.net\n *\n * Licensed under the Apache License, version 2.0: https://github.com/TokenMarketNet/ico/blob/master/LICENSE.txt\n *\n * Some of this code has been updated by Pickeringware ltd to faciliatte the new solidity compilation requirements\n */\n\npragma solidity 0.4.21;\n\nimport './StandardToken.sol';\nimport './Ownable.sol';\n\n\n/**\n * Define interface for releasing the token transfer after a successful crowdsale.\n */\ncontract ReleasableToken is StandardToken, Ownable {\n\n  /* The finalizer contract that allows unlift the transfer limits on this token */\n  address public releaseAgent;\n\n  /** A crowdsale contract can release us to the wild if ICO success. If false we are are in transfer lock up period.*/\n  bool public released = false;\n\n  /** Map of agents that are allowed to transfer tokens regardless of the lock down period. These are crowdsale contracts and possible the team multisig itself. */\n  mapping (address => bool) public transferAgents;\n\n  /**\n   * Limit token transfer until the crowdsale is over.\n   *\n   */\n  modifier canTransfer(address _sender) {\n    if(!released) {\n        if(!transferAgents[_sender]) {\n            revert();\n        }\n    }\n    _;\n  }\n\n  /**\n   * Set the contract that can call release and make the token transferable.\n   *\n   * Design choice. Allow reset the release agent to fix fat finger mistakes.\n   */\n  function setReleaseAgent() onlyOwner inReleaseState(false) public {\n\n    // We don't do interface check here as we might want to a normal wallet address to act as a release agent\n    releaseAgent = owner;\n  }\n\n  /**\n   * Owner can allow a particular address (a crowdsale contract) to transfer tokens despite the lock up period.\n   */\n  function setTransferAgent(address addr, bool state) onlyReleaseAgent inReleaseState(false) public {\n    transferAgents[addr] = state;\n  }\n\n  /**\n   * One way function to release the tokens to the wild.\n   *\n   * Can be called only from the release agent that is the final ICO contract. It is only called if the crowdsale has been success (first milestone reached).\n   */\n  function releaseTokenTransfer() public onlyReleaseAgent {\n    released = true;\n  }\n\n  /** The function can be called only before or after the tokens have been releasesd */\n  modifier inReleaseState(bool releaseState) {\n    if(releaseState != released) {\n        revert();\n    }\n    _;\n  }\n\n  /** The function can be called only by a whitelisted release agent. */\n  modifier onlyReleaseAgent() {\n    if(msg.sender != releaseAgent) {\n        revert();\n    }\n    _;\n  }\n\n  function transfer(address _to, uint _value) canTransfer(msg.sender) public returns (bool success) {\n    // Call StandardToken.transfer()\n   return super.transfer(_to, _value);\n  }\n\n  function transferFrom(address _from, address _to, uint _value) canTransfer(_from) public returns (bool success) {\n    // Call StandardToken.transferForm()\n    return super.transferFrom(_from, _to, _value);\n  }\n\n}",
  "sourcePath": "/Users/jackpickering/Desktop/Development/AX1 versions/AX1_portal_staging/contracts/ReleasableToken.sol",
  "compiler": {
    "name": "solc",
    "version": "0.4.21+commit.dfe3193c.Emscripten.clang"
  },
  "schemaVersion": "2.0.0",
  "updatedAt": "2018-04-04T17:00:34.226Z"
}