{
  "contractName": "Allocation",
  "abi": [
    {
      "constant": true,
      "inputs": [],
      "name": "name",
      "outputs": [
        {
          "name": "",
          "type": "string"
        }
      ],
      "payable": false,
      "stateMutability": "view",
      "type": "function"
    },
    {
      "constant": true,
      "inputs": [],
      "name": "reservedTokens",
      "outputs": [
        {
          "name": "",
          "type": "uint256"
        }
      ],
      "payable": false,
      "stateMutability": "view",
      "type": "function"
    },
    {
      "constant": true,
      "inputs": [],
      "name": "tokensSent",
      "outputs": [
        {
          "name": "",
          "type": "uint256"
        }
      ],
      "payable": false,
      "stateMutability": "view",
      "type": "function"
    },
    {
      "constant": true,
      "inputs": [],
      "name": "capInETH",
      "outputs": [
        {
          "name": "",
          "type": "bool"
        }
      ],
      "payable": false,
      "stateMutability": "view",
      "type": "function"
    },
    {
      "constant": true,
      "inputs": [],
      "name": "rate",
      "outputs": [
        {
          "name": "",
          "type": "uint256"
        }
      ],
      "payable": false,
      "stateMutability": "view",
      "type": "function"
    },
    {
      "constant": true,
      "inputs": [],
      "name": "endTime",
      "outputs": [
        {
          "name": "",
          "type": "uint256"
        }
      ],
      "payable": false,
      "stateMutability": "view",
      "type": "function"
    },
    {
      "constant": true,
      "inputs": [],
      "name": "beneficiary",
      "outputs": [
        {
          "name": "",
          "type": "address"
        }
      ],
      "payable": false,
      "stateMutability": "view",
      "type": "function"
    },
    {
      "constant": true,
      "inputs": [],
      "name": "weiRaised",
      "outputs": [
        {
          "name": "",
          "type": "uint256"
        }
      ],
      "payable": false,
      "stateMutability": "view",
      "type": "function"
    },
    {
      "constant": true,
      "inputs": [
        {
          "name": "",
          "type": "address"
        }
      ],
      "name": "postsaleLock",
      "outputs": [
        {
          "name": "",
          "type": "uint256"
        }
      ],
      "payable": false,
      "stateMutability": "view",
      "type": "function"
    },
    {
      "constant": true,
      "inputs": [
        {
          "name": "",
          "type": "address"
        }
      ],
      "name": "postsalePercentages",
      "outputs": [
        {
          "name": "",
          "type": "uint256"
        }
      ],
      "payable": false,
      "stateMutability": "view",
      "type": "function"
    },
    {
      "constant": true,
      "inputs": [],
      "name": "capped",
      "outputs": [
        {
          "name": "",
          "type": "bool"
        }
      ],
      "payable": false,
      "stateMutability": "view",
      "type": "function"
    },
    {
      "constant": true,
      "inputs": [
        {
          "name": "",
          "type": "address"
        }
      ],
      "name": "balanceOf",
      "outputs": [
        {
          "name": "",
          "type": "uint256"
        }
      ],
      "payable": false,
      "stateMutability": "view",
      "type": "function"
    },
    {
      "constant": true,
      "inputs": [],
      "name": "startTime",
      "outputs": [
        {
          "name": "",
          "type": "uint256"
        }
      ],
      "payable": false,
      "stateMutability": "view",
      "type": "function"
    },
    {
      "constant": true,
      "inputs": [
        {
          "name": "",
          "type": "uint128"
        }
      ],
      "name": "balancePerID",
      "outputs": [
        {
          "name": "",
          "type": "uint256"
        }
      ],
      "payable": false,
      "stateMutability": "view",
      "type": "function"
    },
    {
      "constant": true,
      "inputs": [],
      "name": "allocation",
      "outputs": [
        {
          "name": "",
          "type": "bool"
        }
      ],
      "payable": false,
      "stateMutability": "view",
      "type": "function"
    },
    {
      "constant": true,
      "inputs": [],
      "name": "owner",
      "outputs": [
        {
          "name": "",
          "type": "address"
        }
      ],
      "payable": false,
      "stateMutability": "view",
      "type": "function"
    },
    {
      "constant": true,
      "inputs": [],
      "name": "halted",
      "outputs": [
        {
          "name": "",
          "type": "bool"
        }
      ],
      "payable": false,
      "stateMutability": "view",
      "type": "function"
    },
    {
      "constant": false,
      "inputs": [],
      "name": "successfulWithdraw",
      "outputs": [],
      "payable": false,
      "stateMutability": "nonpayable",
      "type": "function"
    },
    {
      "constant": true,
      "inputs": [
        {
          "name": "",
          "type": "address"
        }
      ],
      "name": "presaleTokenBalanceOf",
      "outputs": [
        {
          "name": "",
          "type": "uint256"
        }
      ],
      "payable": false,
      "stateMutability": "view",
      "type": "function"
    },
    {
      "constant": true,
      "inputs": [],
      "name": "saleId",
      "outputs": [
        {
          "name": "",
          "type": "uint256"
        }
      ],
      "payable": false,
      "stateMutability": "view",
      "type": "function"
    },
    {
      "constant": false,
      "inputs": [],
      "name": "stopICO",
      "outputs": [],
      "payable": false,
      "stateMutability": "nonpayable",
      "type": "function"
    },
    {
      "constant": false,
      "inputs": [],
      "name": "buyTokens",
      "outputs": [],
      "payable": true,
      "stateMutability": "payable",
      "type": "function"
    },
    {
      "constant": true,
      "inputs": [
        {
          "name": "",
          "type": "address"
        }
      ],
      "name": "presaleBalanceOf",
      "outputs": [
        {
          "name": "",
          "type": "uint256"
        }
      ],
      "payable": false,
      "stateMutability": "view",
      "type": "function"
    },
    {
      "constant": true,
      "inputs": [
        {
          "name": "",
          "type": "address"
        }
      ],
      "name": "tokenBalanceOf",
      "outputs": [
        {
          "name": "",
          "type": "uint256"
        }
      ],
      "payable": false,
      "stateMutability": "view",
      "type": "function"
    },
    {
      "constant": true,
      "inputs": [],
      "name": "hasEnded",
      "outputs": [
        {
          "name": "",
          "type": "bool"
        }
      ],
      "payable": false,
      "stateMutability": "view",
      "type": "function"
    },
    {
      "constant": false,
      "inputs": [
        {
          "name": "newOwner",
          "type": "address"
        }
      ],
      "name": "transferOwnership",
      "outputs": [],
      "payable": false,
      "stateMutability": "nonpayable",
      "type": "function"
    },
    {
      "constant": true,
      "inputs": [],
      "name": "presaleWeiRaised",
      "outputs": [
        {
          "name": "",
          "type": "uint256"
        }
      ],
      "payable": false,
      "stateMutability": "view",
      "type": "function"
    },
    {
      "constant": true,
      "inputs": [],
      "name": "admin",
      "outputs": [
        {
          "name": "",
          "type": "address"
        }
      ],
      "payable": false,
      "stateMutability": "view",
      "type": "function"
    },
    {
      "constant": true,
      "inputs": [],
      "name": "token",
      "outputs": [
        {
          "name": "",
          "type": "address"
        }
      ],
      "payable": false,
      "stateMutability": "view",
      "type": "function"
    },
    {
      "constant": true,
      "inputs": [],
      "name": "presaleTokensSent",
      "outputs": [
        {
          "name": "",
          "type": "uint256"
        }
      ],
      "payable": false,
      "stateMutability": "view",
      "type": "function"
    },
    {
      "inputs": [
        {
          "name": "_name",
          "type": "string"
        },
        {
          "name": "_capped",
          "type": "bool"
        },
        {
          "name": "_capInETH",
          "type": "bool"
        },
        {
          "name": "_saleId",
          "type": "uint256"
        },
        {
          "name": "_allocation",
          "type": "bool"
        },
        {
          "name": "_startTime",
          "type": "uint256"
        },
        {
          "name": "_endTime",
          "type": "uint256"
        },
        {
          "name": "_rate",
          "type": "uint256"
        },
        {
          "name": "_wallet",
          "type": "address"
        },
        {
          "name": "_beneficiary",
          "type": "address"
        },
        {
          "name": "_token",
          "type": "address"
        }
      ],
      "payable": false,
      "stateMutability": "nonpayable",
      "type": "constructor"
    },
    {
      "anonymous": false,
      "inputs": [
        {
          "indexed": true,
          "name": "beneficiary",
          "type": "address"
        },
        {
          "indexed": false,
          "name": "tokens",
          "type": "uint256"
        },
        {
          "indexed": false,
          "name": "price",
          "type": "uint256"
        }
      ],
      "name": "PreAllocation",
      "type": "event"
    },
    {
      "anonymous": false,
      "inputs": [
        {
          "indexed": true,
          "name": "beneficiary",
          "type": "address"
        },
        {
          "indexed": false,
          "name": "percentage",
          "type": "uint256"
        },
        {
          "indexed": false,
          "name": "lockedUntil",
          "type": "uint256"
        }
      ],
      "name": "PostAllocation",
      "type": "event"
    },
    {
      "anonymous": false,
      "inputs": [
        {
          "indexed": true,
          "name": "beneficiary",
          "type": "address"
        },
        {
          "indexed": false,
          "name": "tokens",
          "type": "uint256"
        },
        {
          "indexed": false,
          "name": "time",
          "type": "uint256"
        }
      ],
      "name": "PostAllocationCollected",
      "type": "event"
    },
    {
      "anonymous": false,
      "inputs": [
        {
          "indexed": true,
          "name": "purchaser",
          "type": "address"
        },
        {
          "indexed": true,
          "name": "beneficiary",
          "type": "address"
        },
        {
          "indexed": false,
          "name": "value",
          "type": "uint256"
        },
        {
          "indexed": false,
          "name": "amount",
          "type": "uint256"
        },
        {
          "indexed": false,
          "name": "datetime",
          "type": "uint256"
        }
      ],
      "name": "TokenPurchase",
      "type": "event"
    },
    {
      "anonymous": false,
      "inputs": [
        {
          "indexed": false,
          "name": "beneficiary",
          "type": "address"
        },
        {
          "indexed": false,
          "name": "amount",
          "type": "uint256"
        },
        {
          "indexed": false,
          "name": "datetime",
          "type": "uint256"
        }
      ],
      "name": "BeneficiaryWithdrawal",
      "type": "event"
    },
    {
      "anonymous": false,
      "inputs": [
        {
          "indexed": false,
          "name": "owner",
          "type": "address"
        },
        {
          "indexed": false,
          "name": "datetime",
          "type": "uint256"
        }
      ],
      "name": "SaleStopped",
      "type": "event"
    },
    {
      "anonymous": false,
      "inputs": [
        {
          "indexed": true,
          "name": "previousOwner",
          "type": "address"
        },
        {
          "indexed": true,
          "name": "newOwner",
          "type": "address"
        }
      ],
      "name": "OwnershipTransferred",
      "type": "event"
    },
    {
      "constant": false,
      "inputs": [],
      "name": "setAllocations",
      "outputs": [],
      "payable": false,
      "stateMutability": "nonpayable",
      "type": "function"
    },
    {
      "constant": false,
      "inputs": [
        {
          "name": "receiver",
          "type": "address"
        },
        {
          "name": "tokens",
          "type": "uint256"
        },
        {
          "name": "weiPrice",
          "type": "uint256"
        },
        {
          "name": "included",
          "type": "bool"
        }
      ],
      "name": "preallocate",
      "outputs": [],
      "payable": false,
      "stateMutability": "nonpayable",
      "type": "function"
    },
    {
      "constant": false,
      "inputs": [
        {
          "name": "receiver",
          "type": "address"
        },
        {
          "name": "toAllocate",
          "type": "uint256"
        },
        {
          "name": "lockedUntil",
          "type": "uint256"
        }
      ],
      "name": "postallocate",
      "outputs": [],
      "payable": false,
      "stateMutability": "nonpayable",
      "type": "function"
    },
    {
      "constant": false,
      "inputs": [],
      "name": "claimPostAllocation",
      "outputs": [],
      "payable": false,
      "stateMutability": "nonpayable",
      "type": "function"
    },
    {
      "constant": true,
      "inputs": [
        {
          "name": "_tokensSold",
          "type": "uint256"
        },
        {
          "name": "_percent",
          "type": "uint256"
        }
      ],
      "name": "calculateInclusionPercentage",
      "outputs": [
        {
          "name": "",
          "type": "uint256"
        }
      ],
      "payable": false,
      "stateMutability": "view",
      "type": "function"
    }
  ],
  "bytecode": "0x606060405260006004556012805461ffff1916905534156200002057600080fd5b60405162001384380380620013848339810160405280805182019190602001805191906020018051919060200180519190602001805191906020018051919060200180519190602001805191906020018051919060200180519190602001805160008054600160a060020a03191633600160a060020a031617905591508b90508a8a8a8a8a8a8a8a8a8a8a8a8a8a8a6001858051620000c492916020019062000258565b5060028054600393909355901515620100000262ff0000199315156101000261ff001995151560ff199094169390931794909416919091179190911691909117905550428610156200011557600080fd5b858510156200012357600080fd5b600084116200013157600080fd5b600160a060020a03831615156200014757600080fd5b60058054600160a060020a03808416600160a060020a03199283161790925560068890556007879055600a869055600880548684169083161790556009805492851692909116919091179055620001ac8364010000000062000d2a620001c882021704565b50505050505050505050505050505050505050505050620002fd565b60005433600160a060020a03908116911614620001e457600080fd5b600160a060020a0381161515620001fa57600080fd5b600054600160a060020a0380831691167f8be0079c531659141344cd1fd0a4f28419497f9722a3daafe3b4186f6b6457e060405160405180910390a360008054600160a060020a031916600160a060020a0392909216919091179055565b828054600181600116156101000203166002900490600052602060002090601f016020900481019282601f106200029b57805160ff1916838001178555620002cb565b82800160010185558215620002cb579182015b82811115620002cb578251825591602001919060010190620002ae565b50620002d9929150620002dd565b5090565b620002fa91905b80821115620002d95760008155600101620002e4565b90565b611077806200030d6000396000f30060606040526004361061019d5763ffffffff60e060020a60003504166306fdde0381146101a257806315a553471461022c5780631f13076114610251578063266e0b1b146102645780632c4e722e1461028b5780633197cbb61461029e57806338af3eed146102b15780634042b66f146102e057806347da01c8146102f3578063499c3c9714610308578063532ce7ae146103275780635438fb761461033a5780635eb101c3146103595780636fa3b5581461036c57806370a082311461039657806378e97925146103b55780637a5c856b146103c85780637db71fc4146103e157806388a17bde146104095780638da5cb5b1461041c578063b9b8af0b1461042f578063bdd3040614610442578063c27dd54714610455578063c84c038714610474578063c8e569a814610487578063d0febe4c1461049a578063dfc6fbaa146104a2578063e42c08f2146104c1578063ecb70fb7146104e0578063efda6688146104f3578063f2fde38b14610518578063f7c00e2f14610537578063f851a4401461054a578063fc0c546a1461055d578063ff5f68b714610570575b600080fd5b34156101ad57600080fd5b6101b5610583565b60405160208082528190810183818151815260200191508051906020019080838360005b838110156101f15780820151838201526020016101d9565b50505050905090810190601f16801561021e5780820380516001836020036101000a031916815260200191505b509250505060405180910390f35b341561023757600080fd5b61023f610621565b60405190815260200160405180910390f35b341561025c57600080fd5b61023f610627565b341561026f57600080fd5b61027761062d565b604051901515815260200160405180910390f35b341561029657600080fd5b61023f61063b565b34156102a957600080fd5b61023f610641565b34156102bc57600080fd5b6102c4610647565b604051600160a060020a03909116815260200160405180910390f35b34156102eb57600080fd5b61023f610656565b34156102fe57600080fd5b61030661065c565b005b341561031357600080fd5b61023f600160a060020a036004351661078e565b341561033257600080fd5b6103066107a0565b341561034557600080fd5b61023f600160a060020a03600435166107ca565b341561036457600080fd5b6102776107dc565b341561037757600080fd5b610306600160a060020a036004351660243560443560643515156107e5565b34156103a157600080fd5b61023f600160a060020a0360043516610984565b34156103c057600080fd5b61023f610996565b34156103d357600080fd5b61023f60043560243561099c565b34156103ec57600080fd5b61023f6fffffffffffffffffffffffffffffffff60043516610a00565b341561041457600080fd5b610277610a12565b341561042757600080fd5b6102c4610a21565b341561043a57600080fd5b610277610a30565b341561044d57600080fd5b610306610a51565b341561046057600080fd5b61023f600160a060020a0360043516610b3d565b341561047f57600080fd5b61023f610b4f565b341561049257600080fd5b610306610b55565b610306610beb565b34156104ad57600080fd5b61023f600160a060020a0360043516610c51565b34156104cc57600080fd5b61023f600160a060020a0360043516610c63565b34156104eb57600080fd5b610277610c75565b34156104fe57600080fd5b610306600160a060020a0360043516602435604435610c7d565b341561052357600080fd5b610306600160a060020a0360043516610d2a565b341561054257600080fd5b61023f610dc5565b341561055557600080fd5b6102c4610dcb565b341561056857600080fd5b6102c4610dda565b341561057b57600080fd5b61023f610de9565b60018054600181600116156101000203166002900480601f0160208091040260200160405190810160405280929190818152602001828054600181600116156101000203166002900480156106195780601f106105ee57610100808354040283529160200191610619565b820191906000526020600020905b8154815290600101906020018083116105fc57829003601f168201915b505050505081565b60045481565b600d5481565b600254610100900460ff1681565b600a5481565b60075481565b600954600160a060020a031681565b600b5481565b6000610666610c75565b151561067157600080fd5b600160a060020a033316600090815260166020526040902054421161069557600080fd5b600160a060020a03331660009081526015602052604090205415156106b957600080fd5b6106c1610def565b600160a060020a033316600090815260156020526040812055600d549091506106f0908263ffffffff610e1f16565b600d55600160a060020a03331660009081526011602052604090205461071c908263ffffffff610e1f16565b33600160a060020a038116600090815260116020526040902091909155600a54610747919083610e39565b33600160a060020a03167f6715317b39aaeb09cea0fbe5b19e8a44933166d99a4f36432d173a56348636d1824260405191825260208201526040908101905180910390a250565b60166020526000908152604090205481565b60005433600160a060020a039081169116146107bb57600080fd5b6012805460ff19166001179055565b60156020526000908152604090205481565b60025460ff1681565b600080548190819033600160a060020a0390811691161461080557600080fd5b60125460ff16801561081657600080fd5b600554600160a060020a031663313ce5676040518163ffffffff1660e060020a028152600401602060405180830381600087803b151561085557600080fd5b5af1151561086257600080fd5b5050506040518051905060ff16935083600a0a8702925086860291506108888386610f06565b60175461089b908363ffffffff610e1f16565b6017556018546108b1908463ffffffff610e1f16565b601855600160a060020a0388166000908152601460205260409020546108dd908463ffffffff610e1f16565b600160a060020a038916600090815260146020908152604080832093909355601390522054610912908363ffffffff610e1f16565b600160a060020a038916600090815260136020526040902055610936888385610e39565b87600160a060020a03167f11de3dbd27fca3973eba7e4ac6b4af86964946f3a9cd7c14c6a3d2a2c0195ba4888860405191825260208201526040908101905180910390a25050505050505050565b600f6020526000908152604090205481565b60065481565b60006402540be4006064839003828080806109bd898763ffffffff610f1416565b93506109cf848663ffffffff610f3f16565b92506109e1838963ffffffff610f1416565b91506109f3828763ffffffff610f3f16565b9998505050505050505050565b600e6020526000908152604090205481565b60025462010000900460ff1681565b600054600160a060020a031681565b60005474010000000000000000000000000000000000000000900460ff1681565b60005433600160a060020a03908116911614610a6c57600080fd5b60005474010000000000000000000000000000000000000000900460ff1615610a9457600080fd5b610a9c610c75565b1515610aa757600080fd5b600954600b54600160a060020a039091169080156108fc0290604051600060405180830381858888f193505050501515610ae057600080fd5b7f9f7cbddba892cf26a7cd63d61d3c8d085df04bbbe7601e53311038ca6dab196b33600b54426040518084600160a060020a0316600160a060020a03168152602001838152602001828152602001935050505060405180910390a1565b60146020526000908152604090205481565b60035481565b60005433600160a060020a03908116911614610b7057600080fd5b6000805474ff00000000000000000000000000000000000000001916740100000000000000000000000000000000000000001790557f4898556e3bd8b06263e50e938f30f736c1fd2030390474dd6bc0b28d8c5450373342604051600160a060020a03909216825260208201526040908101905180910390a1565b60008054819074010000000000000000000000000000000000000000900460ff1615610c1657600080fd5b349150610c2282610f56565b9050610c2d81610f73565b1515610c3857600080fd5b610c428282610fa4565b610c4d338383610e39565b5050565b60136020526000908152604090205481565b60116020526000908152604090205481565b600754421190565b60005433600160a060020a03908116911614610c9857600080fd5b601254610100900460ff168015610cae57600080fd5b6006544210610cbc57600080fd5b600160a060020a03841660008181526015602090815260408083208054880190556016909152908190208490557f21523178fc56a687bc2d3b20d54499bde0d88cd484307c2a3cfb90e317cd858a90859085905191825260208201526040908101905180910390a250505050565b60005433600160a060020a03908116911614610d4557600080fd5b600160a060020a0381161515610d5a57600080fd5b600054600160a060020a0380831691167f8be0079c531659141344cd1fd0a4f28419497f9722a3daafe3b4186f6b6457e060405160405180910390a36000805473ffffffffffffffffffffffffffffffffffffffff1916600160a060020a0392909216919091179055565b60175481565b600854600160a060020a031681565b600554600160a060020a031681565b60185481565b600160a060020a033316600090815260156020526040812054600d54829190610e18908261099c565b9392505050565b600082820183811015610e2e57fe5b8091505b5092915050565b600554600160a060020a03166340c10f19848360405160e060020a63ffffffff8516028152600160a060020a0390921660048301526024820152604401602060405180830381600087803b1515610e8f57600080fd5b5af11515610e9c57600080fd5b505050604051805190505082600160a060020a031633600160a060020a03167efe0e12b43090c1fc19a34aefa5cc138a4eeafc60ab800f855c730b3fb9480e84844260405180848152602001838152602001828152602001935050505060405180910390a3505050565b6006544210610c4d57600080fd5b600080831515610f275760009150610e32565b50828202828482811515610f3757fe5b0414610e2e57fe5b6000808284811515610f4d57fe5b04949350505050565b6000610f6d600a5483610f3f90919063ffffffff16565b92915050565b60008060006006544210158015610f8c57506007544211155b915050341515818015610f9c5750805b949350505050565b600160a060020a0333166000908152600f6020526040902054610fcd908363ffffffff610e1f16565b600160a060020a0333166000908152600f6020908152604080832093909355601190522054611002908263ffffffff610e1f16565b600160a060020a033316600090815260116020526040902055600b5461102e908363ffffffff610e1f16565b600b55600d54611044908263ffffffff610e1f16565b600d5550505600a165627a7a7230582033fd39fbfd4ac242198965e9b9a63563e8d0426bd75b4b6e9340c269a04dd3af0029",
  "source": "pragma solidity 0.4.21;\n\nimport './PickToken.sol';\nimport './Crowdsale.sol';\nimport './SafeMath.sol';\n\n/*\n * Allocation is used for pre and post allocations of tokens, these are usually for things such as noting down buyers in \n * a private pre-sale and for allocating percentages of tokens to different things such as bounty/founders etc.\n *\n * NOTE: We need to think about how this affects the hard/soft cap (do we count it or not count the tokens we've allocated)?\n*/\ncontract Allocation is Crowdsale {\n\n  using SafeMath for uint256;\n\n  bool preallocated = false;\n  bool postallocated = false;\n\n  mapping(address => uint256) public presaleBalanceOf;\n  mapping(address => uint256) public presaleTokenBalanceOf;\n  mapping(address => uint256) public postsalePercentages;\n  mapping(address => uint256) public postsaleLock;\n\n  uint256 public presaleWeiRaised;\n  uint256 public presaleTokensSent;\n\n  event PreAllocation(address indexed beneficiary, uint256 tokens, uint256 price);\n  event PostAllocation(address indexed beneficiary, uint percentage, uint256 lockedUntil);\n  event PostAllocationCollected(address indexed beneficiary, uint tokens, uint time);\n  \n  modifier untilSet(bool _check) {\n    if(_check) {\n      revert();\n    }\n    _;\n  }\n\n  function Allocation(string _name, bool _capped, bool _capInETH, uint256 _saleId, bool _allocation, uint256 _startTime, uint256 _endTime, uint256 _rate, address _wallet, address _beneficiary, PickToken _token)\n    Crowdsale(_name, _capped, _capInETH, _saleId, _allocation, _startTime, _endTime, _rate, _wallet, _beneficiary, _token)\n     public {}\n\n  function setAllocations() public onlyOwner {\n    preallocated = true;\n  }\n\n  /**\n   * Preallocate tokens for the early investors.\n   * This will be a fixed amount of tokens i.e. for pre-sale buyers\n   * This will NOT be included in tokensSent for the public sale\n   */\n  function preallocate(address receiver, uint tokens, uint weiPrice, bool included) public onlyOwner untilSet(preallocated) {\n    uint decimals = token.decimals();\n    uint tokenAmount = tokens * 10 ** decimals;\n    uint weiAmount = weiPrice * tokens; \n\n    validPreallocation(tokenAmount, included);\n\n    // Add presale data about tokens sent\n    presaleWeiRaised = presaleWeiRaised.add(weiAmount);\n    presaleTokensSent = presaleTokensSent.add(tokenAmount);\n\n    presaleTokenBalanceOf[receiver] = presaleTokenBalanceOf[receiver].add(tokenAmount);\n    presaleBalanceOf[receiver] = presaleBalanceOf[receiver].add(weiAmount);\n\n    produceTokens(receiver, weiAmount, tokenAmount);\n    PreAllocation(receiver, tokens, weiPrice);\n  }\n\n  // This is here to be overwritten by capped logic if necessary\n  function validPreallocation(uint tokenAmount, bool included) internal {\n    // Sale must not have started\n    require(now < startTime);\n  }\n\n  /*\n   * Allocate a % of tokens to various peers/teams.\n   * This will occur after the sale has finished (as need to know how many tokens sold)\n   * There is also an option to lock these tokens for a certain period of time\n   * I.e. 5% of tokens goes to the founders, but they are locked for 12 months\n   */\n   // May have to store inclusion/exclusion\n  function postallocate(address receiver, uint toAllocate, uint256 lockedUntil) public onlyOwner untilSet(postallocated) {\n    // Sale must not have started\n    require(now < startTime);\n\n    postsalePercentages[receiver] = postsalePercentages[receiver] + toAllocate;\n    postsaleLock[receiver] = lockedUntil;\n\n    PostAllocation(receiver, toAllocate, lockedUntil);\n  }\n\n  /*\n   * Allowing someone to claim their post allocation\n   * The funds must not be locked and the sale must have ended.  \n   */\n  function claimPostAllocation() external {\n    // Sale must have ended, tokens must not be locked and the sender must actually have something to withdraw\n    require(hasEnded());\n    require(now > postsaleLock[msg.sender]);\n    require(postsalePercentages[msg.sender] != 0);\n\n    uint toSend = getTokensToAllocate();\n\n    postsalePercentages[msg.sender] = 0;\n\n    tokensSent = tokensSent.add(toSend);\n    tokenBalanceOf[msg.sender] = tokenBalanceOf[msg.sender].add(toSend);\n\n    produceTokens(msg.sender, rate, toSend);\n    PostAllocationCollected(msg.sender, toSend, now);\n  }\n\n  /*\n   * Get amount of tokens to allocate to call the calculate Percent function\n   * This can be overwritten for appropriate cap logic\n  */\n  function getTokensToAllocate() internal view returns (uint) {\n    uint256 toSend;\n\n    uint256 percent = postsalePercentages[msg.sender];\n    toSend = calculateInclusionPercentage(tokensSent, percent);\n\n    return toSend;\n  }\n\n  /*\n   * Calculate the % of funds for teams/peers in open ended sale\n   * This is used in open sales where the owner would like the teams to then own X% of the total supply of tokens after the sale is finished\n   * I.e. we have 1000 tokens and we sell 500 tokens and would like to allocate 10% of total supply to the team\n   * The owner would not want to simply allocate 50 tokens as shown above, instead he must do the following:\n   * 1. Take total sold and divide by 90 (to find 1%) which in our example is 5.5556\n   * 2. Multiply the 1% by 10 to get the 10% of tokens that should be allocated which is 55.55556\n   * -- This is then 555.5556 tokens allocated with the team owning 55.5556 which equates to 10% of total supply\n   */\n  function calculateInclusionPercentage(uint _tokensSold, uint _percent) public view returns (uint) {\n    // Using the example above:\n\n    // Use for decimals\n    uint precision = 10 ** 10;\n    \n    // 100 - 10% = 90\n    uint divisor = 100 - _percent;\n    // tokens sold = 500 multiplied for precision\n    uint tokens = _tokensSold.mul(precision);\n    // 1% = 90% / 90 so 500/90 (or 1%) = 5.5556 (with precision this is actually 5555556)\n    uint one_percent = tokens.div(divisor);\n    // 1% * 10 = 10% so 5.5556 * 10 = 55.5556 (with precision this is actually 5555556)\n    uint toSend = one_percent.mul(_percent);\n    // Take off precision to leave us with the closest number possible (5555556 -> 55.55556 or 55 tokens)\n    uint answer = toSend.div(precision);\n\n    return answer;\n  }\n\n}",
  "sourcePath": "/Users/jackpickering/Desktop/Development/Iconemy/create_basic_sale/contracts/Allocation.sol",
  "compiler": {
    "name": "solc",
    "version": "0.4.21+commit.dfe3193c.Emscripten.clang"
  },
  "schemaVersion": "2.0.0",
  "updatedAt": "2018-08-22T13:07:48.936Z"
}