{
  "contractName": "AMLToken",
  "abi": [
    {
      "constant": false,
      "inputs": [
        {
          "name": "addr",
          "type": "address"
        },
        {
          "name": "state",
          "type": "bool"
        }
      ],
      "name": "setTransferAgent",
      "outputs": [],
      "payable": false,
      "stateMutability": "nonpayable",
      "type": "function"
    },
    {
      "constant": true,
      "inputs": [],
      "name": "mintingFinished",
      "outputs": [
        {
          "name": "",
          "type": "bool"
        }
      ],
      "payable": false,
      "stateMutability": "view",
      "type": "function"
    },
    {
      "constant": false,
      "inputs": [
        {
          "name": "_spender",
          "type": "address"
        },
        {
          "name": "_value",
          "type": "uint256"
        }
      ],
      "name": "approve",
      "outputs": [
        {
          "name": "",
          "type": "bool"
        }
      ],
      "payable": false,
      "stateMutability": "nonpayable",
      "type": "function"
    },
    {
      "constant": true,
      "inputs": [],
      "name": "totalSupply",
      "outputs": [
        {
          "name": "",
          "type": "uint256"
        }
      ],
      "payable": false,
      "stateMutability": "view",
      "type": "function"
    },
    {
      "constant": false,
      "inputs": [
        {
          "name": "_from",
          "type": "address"
        },
        {
          "name": "_to",
          "type": "address"
        },
        {
          "name": "_value",
          "type": "uint256"
        }
      ],
      "name": "transferFrom",
      "outputs": [
        {
          "name": "success",
          "type": "bool"
        }
      ],
      "payable": false,
      "stateMutability": "nonpayable",
      "type": "function"
    },
    {
      "constant": false,
      "inputs": [],
      "name": "setReleaseAgent",
      "outputs": [],
      "payable": false,
      "stateMutability": "nonpayable",
      "type": "function"
    },
    {
      "constant": false,
      "inputs": [
        {
          "name": "_to",
          "type": "address"
        },
        {
          "name": "_amount",
          "type": "uint256"
        }
      ],
      "name": "mint",
      "outputs": [
        {
          "name": "",
          "type": "bool"
        }
      ],
      "payable": false,
      "stateMutability": "nonpayable",
      "type": "function"
    },
    {
      "constant": false,
      "inputs": [],
      "name": "releaseTokenTransfer",
      "outputs": [],
      "payable": false,
      "stateMutability": "nonpayable",
      "type": "function"
    },
    {
      "constant": false,
      "inputs": [
        {
          "name": "_spender",
          "type": "address"
        },
        {
          "name": "_subtractedValue",
          "type": "uint256"
        }
      ],
      "name": "decreaseApproval",
      "outputs": [
        {
          "name": "",
          "type": "bool"
        }
      ],
      "payable": false,
      "stateMutability": "nonpayable",
      "type": "function"
    },
    {
      "constant": true,
      "inputs": [
        {
          "name": "_owner",
          "type": "address"
        }
      ],
      "name": "balanceOf",
      "outputs": [
        {
          "name": "balance",
          "type": "uint256"
        }
      ],
      "payable": false,
      "stateMutability": "view",
      "type": "function"
    },
    {
      "constant": false,
      "inputs": [],
      "name": "finishMinting",
      "outputs": [
        {
          "name": "",
          "type": "bool"
        }
      ],
      "payable": false,
      "stateMutability": "nonpayable",
      "type": "function"
    },
    {
      "constant": true,
      "inputs": [
        {
          "name": "",
          "type": "address"
        }
      ],
      "name": "transferAgents",
      "outputs": [
        {
          "name": "",
          "type": "bool"
        }
      ],
      "payable": false,
      "stateMutability": "view",
      "type": "function"
    },
    {
      "constant": true,
      "inputs": [],
      "name": "owner",
      "outputs": [
        {
          "name": "",
          "type": "address"
        }
      ],
      "payable": false,
      "stateMutability": "view",
      "type": "function"
    },
    {
      "constant": true,
      "inputs": [],
      "name": "released",
      "outputs": [
        {
          "name": "",
          "type": "bool"
        }
      ],
      "payable": false,
      "stateMutability": "view",
      "type": "function"
    },
    {
      "constant": false,
      "inputs": [
        {
          "name": "_to",
          "type": "address"
        },
        {
          "name": "_value",
          "type": "uint256"
        }
      ],
      "name": "transfer",
      "outputs": [
        {
          "name": "success",
          "type": "bool"
        }
      ],
      "payable": false,
      "stateMutability": "nonpayable",
      "type": "function"
    },
    {
      "constant": true,
      "inputs": [],
      "name": "releaseAgent",
      "outputs": [
        {
          "name": "",
          "type": "address"
        }
      ],
      "payable": false,
      "stateMutability": "view",
      "type": "function"
    },
    {
      "constant": false,
      "inputs": [
        {
          "name": "_spender",
          "type": "address"
        },
        {
          "name": "_addedValue",
          "type": "uint256"
        }
      ],
      "name": "increaseApproval",
      "outputs": [
        {
          "name": "",
          "type": "bool"
        }
      ],
      "payable": false,
      "stateMutability": "nonpayable",
      "type": "function"
    },
    {
      "constant": true,
      "inputs": [
        {
          "name": "_owner",
          "type": "address"
        },
        {
          "name": "_spender",
          "type": "address"
        }
      ],
      "name": "allowance",
      "outputs": [
        {
          "name": "",
          "type": "uint256"
        }
      ],
      "payable": false,
      "stateMutability": "view",
      "type": "function"
    },
    {
      "constant": false,
      "inputs": [
        {
          "name": "newOwner",
          "type": "address"
        }
      ],
      "name": "transferOwnership",
      "outputs": [],
      "payable": false,
      "stateMutability": "nonpayable",
      "type": "function"
    },
    {
      "anonymous": false,
      "inputs": [
        {
          "indexed": false,
          "name": "claimedBy",
          "type": "address"
        },
        {
          "indexed": false,
          "name": "fromWhom",
          "type": "address"
        },
        {
          "indexed": false,
          "name": "amount",
          "type": "uint256"
        }
      ],
      "name": "ReclaimedAllAndBurned",
      "type": "event"
    },
    {
      "anonymous": false,
      "inputs": [
        {
          "indexed": false,
          "name": "claimedBy",
          "type": "address"
        },
        {
          "indexed": false,
          "name": "fromWhom",
          "type": "address"
        },
        {
          "indexed": false,
          "name": "amount",
          "type": "uint256"
        }
      ],
      "name": "ReclaimAndBurned",
      "type": "event"
    },
    {
      "anonymous": false,
      "inputs": [
        {
          "indexed": true,
          "name": "to",
          "type": "address"
        },
        {
          "indexed": false,
          "name": "amount",
          "type": "uint256"
        }
      ],
      "name": "Mint",
      "type": "event"
    },
    {
      "anonymous": false,
      "inputs": [],
      "name": "MintFinished",
      "type": "event"
    },
    {
      "anonymous": false,
      "inputs": [
        {
          "indexed": true,
          "name": "previousOwner",
          "type": "address"
        },
        {
          "indexed": true,
          "name": "newOwner",
          "type": "address"
        }
      ],
      "name": "OwnershipTransferred",
      "type": "event"
    },
    {
      "anonymous": false,
      "inputs": [
        {
          "indexed": true,
          "name": "owner",
          "type": "address"
        },
        {
          "indexed": true,
          "name": "spender",
          "type": "address"
        },
        {
          "indexed": false,
          "name": "value",
          "type": "uint256"
        }
      ],
      "name": "Approval",
      "type": "event"
    },
    {
      "anonymous": false,
      "inputs": [
        {
          "indexed": true,
          "name": "from",
          "type": "address"
        },
        {
          "indexed": true,
          "name": "to",
          "type": "address"
        },
        {
          "indexed": false,
          "name": "value",
          "type": "uint256"
        }
      ],
      "name": "Transfer",
      "type": "event"
    },
    {
      "constant": false,
      "inputs": [
        {
          "name": "fromWhom",
          "type": "address"
        }
      ],
      "name": "reclaimAllAndBurn",
      "outputs": [],
      "payable": false,
      "stateMutability": "nonpayable",
      "type": "function"
    },
    {
      "constant": false,
      "inputs": [
        {
          "name": "fromWhom",
          "type": "address"
        },
        {
          "name": "amount",
          "type": "uint256"
        }
      ],
      "name": "reclaimAndBurn",
      "outputs": [],
      "payable": false,
      "stateMutability": "nonpayable",
      "type": "function"
    }
  ],
  "bytecode": "0x60606040526004805460a060020a60ff02191690556006805460ff1916905560038054600160a060020a03191633600160a060020a0316179055610e8f806100486000396000f30060606040526004361061011c5763ffffffff7c010000000000000000000000000000000000000000000000000000000060003504166302f652a3811461012157806305d2035b14610147578063095ea7b31461016e57806318160ddd1461019057806323b872dd146101b55780632a724f2a146101dd5780633e96d28e146101fc57806340c10f191461020f5780635f412d4f14610231578063661884631461024457806370a08231146102665780637d64bcb414610285578063867c2857146102985780638da5cb5b146102b757806396132521146102e6578063a9059cbb146102f9578063d1f276d31461031b578063d73dd6231461032e578063dd62ed3e14610350578063f2fde38b14610375578063fb920ad114610394575b600080fd5b341561012c57600080fd5b610145600160a060020a036004351660243515156103b6565b005b341561015257600080fd5b61015a610417565b604051901515815260200160405180910390f35b341561017957600080fd5b61015a600160a060020a0360043516602435610420565b341561019b57600080fd5b6101a361048c565b60405190815260200160405180910390f35b34156101c057600080fd5b61015a600160a060020a0360043581169060243516604435610492565b34156101e857600080fd5b610145600160a060020a03600435166104e5565b341561020757600080fd5b6101456105ad565b341561021a57600080fd5b61015a600160a060020a0360043516602435610614565b341561023c57600080fd5b61014561071a565b341561024f57600080fd5b61015a600160a060020a036004351660243561075b565b341561027157600080fd5b6101a3600160a060020a0360043516610855565b341561029057600080fd5b61015a610870565b34156102a357600080fd5b61015a600160a060020a03600435166108dd565b34156102c257600080fd5b6102ca6108f2565b604051600160a060020a03909116815260200160405180910390f35b34156102f157600080fd5b61015a610901565b341561030457600080fd5b61015a600160a060020a0360043516602435610911565b341561032657600080fd5b6102ca610962565b341561033957600080fd5b61015a600160a060020a0360043516602435610971565b341561035b57600080fd5b6101a3600160a060020a0360043581169060243516610a15565b341561038057600080fd5b610145600160a060020a0360043516610a40565b341561039f57600080fd5b610145600160a060020a0360043516602435610adb565b60045433600160a060020a039081169116146103d157600080fd5b60045460009060a060020a900460ff16156103eb57600080fd5b50600160a060020a03919091166000908152600560205260409020805460ff1916911515919091179055565b60065460ff1681565b600160a060020a03338116600081815260026020908152604080832094871680845294909152808220859055909291907f8c5be1e5ebec7d5bd14f71427d1e84f3dd0314c0f7b2291e5b200ac8c7c3b9259085905190815260200160405180910390a350600192915050565b60005481565b600454600090849060a060020a900460ff1615156104d157600160a060020a03811660009081526005602052604090205460ff1615156104d157600080fd5b6104dc858585610bbe565b95945050505050565b60045460009033600160a060020a0390811691161461050357600080fd5b60045460009060a060020a900460ff161561051d57600080fd5b61052683610855565b600160a060020a038416600090815260016020526040812081905554909250610555908363ffffffff610d4016565b6000557f99dac1e42583126a1fd369c8a7c5bd04067b92ad15c37d50ee75083c7da24989338484604051600160a060020a039384168152919092166020820152604080820192909252606001905180910390a1505050565b60035433600160a060020a039081169116146105c857600080fd5b60045460009060a060020a900460ff16156105e257600080fd5b506003546004805473ffffffffffffffffffffffffffffffffffffffff1916600160a060020a03909216919091179055565b60035460009033600160a060020a0390811691161461063257600080fd5b60065460ff161561064257600080fd5b600054610655908363ffffffff610d5216565b6000908155600160a060020a038416815260016020526040902054610680908363ffffffff610d5216565b600160a060020a0384166000818152600160205260409081902092909255907f0f6798a560793a54c3bcfe86a93cde1e73087d944c0ea20544137d41213968859084905190815260200160405180910390a2600160a060020a03831660007fddf252ad1be2c89b69c2b068fc378daa952ba7f163c4a11628f55a4df523b3ef8460405190815260200160405180910390a350600192915050565b60045433600160a060020a0390811691161461073557600080fd5b6004805474ff0000000000000000000000000000000000000000191660a060020a179055565b600160a060020a033381166000908152600260209081526040808320938616835292905290812054808311156107b857600160a060020a0333811660009081526002602090815260408083209388168352929052908120556107ef565b6107c8818463ffffffff610d4016565b600160a060020a033381166000908152600260209081526040808320938916835292905220555b600160a060020a0333811660008181526002602090815260408083209489168084529490915290819020547f8c5be1e5ebec7d5bd14f71427d1e84f3dd0314c0f7b2291e5b200ac8c7c3b925915190815260200160405180910390a35060019392505050565b600160a060020a031660009081526001602052604090205490565b60035460009033600160a060020a0390811691161461088e57600080fd5b60065460ff161561089e57600080fd5b6006805460ff191660011790557fae5184fba832cb2b1f702aca6117b8d265eaf03ad33eb133f19dde0f5920fa0860405160405180910390a150600190565b60056020526000908152604090205460ff1681565b600354600160a060020a031681565b60045460a060020a900460ff1681565b600454600090339060a060020a900460ff16151561095057600160a060020a03811660009081526005602052604090205460ff16151561095057600080fd5b61095a8484610d68565b949350505050565b600454600160a060020a031681565b600160a060020a0333811660009081526002602090815260408083209386168352929052908120546109a9908363ffffffff610d5216565b600160a060020a0333811660008181526002602090815260408083209489168084529490915290819020849055919290917f8c5be1e5ebec7d5bd14f71427d1e84f3dd0314c0f7b2291e5b200ac8c7c3b92591905190815260200160405180910390a350600192915050565b600160a060020a03918216600090815260026020908152604080832093909416825291909152205490565b60035433600160a060020a03908116911614610a5b57600080fd5b600160a060020a0381161515610a7057600080fd5b600354600160a060020a0380831691167f8be0079c531659141344cd1fd0a4f28419497f9722a3daafe3b4186f6b6457e060405160405180910390a36003805473ffffffffffffffffffffffffffffffffffffffff1916600160a060020a0392909216919091179055565b60045433600160a060020a03908116911614610af657600080fd5b60045460009060a060020a900460ff1615610b1057600080fd5b600160a060020a038316600090815260016020526040902054610b39908363ffffffff610d4016565b600160a060020a03841660009081526001602052604081209190915554610b66908363ffffffff610d4016565b6000557f695f34178667d2b4fce11a766e0c9d745bad9429aa5f435302ff673c30d81541338484604051600160a060020a039384168152919092166020820152604080820192909252606001905180910390a1505050565b6000600160a060020a0383161515610bd557600080fd5b600160a060020a038416600090815260016020526040902054821115610bfa57600080fd5b600160a060020a0380851660009081526002602090815260408083203390941683529290522054821115610c2d57600080fd5b600160a060020a038416600090815260016020526040902054610c56908363ffffffff610d4016565b600160a060020a038086166000908152600160205260408082209390935590851681522054610c8b908363ffffffff610d5216565b600160a060020a03808516600090815260016020908152604080832094909455878316825260028152838220339093168252919091522054610cd3908363ffffffff610d4016565b600160a060020a03808616600081815260026020908152604080832033861684529091529081902093909355908516917fddf252ad1be2c89b69c2b068fc378daa952ba7f163c4a11628f55a4df523b3ef9085905190815260200160405180910390a35060019392505050565b600082821115610d4c57fe5b50900390565b600082820183811015610d6157fe5b9392505050565b6000600160a060020a0383161515610d7f57600080fd5b600160a060020a033316600090815260016020526040902054821115610da457600080fd5b600160a060020a033316600090815260016020526040902054610dcd908363ffffffff610d4016565b600160a060020a033381166000908152600160205260408082209390935590851681522054610e02908363ffffffff610d5216565b600160a060020a0380851660008181526001602052604090819020939093559133909116907fddf252ad1be2c89b69c2b068fc378daa952ba7f163c4a11628f55a4df523b3ef9085905190815260200160405180910390a3506001929150505600a165627a7a72305820f165914ade87d9a5b9ba2ca8582796c4c2d659b3c5c0b59f028e480a57228e8c0029",
  "source": "/**\n * This contract has been written by Pickeringware ltd in some areas to facilitate custom crwodsale features\n */\n\npragma solidity 0.4.21;\n\nimport \"./MintableToken.sol\";\n\n\n/**\n * The AML Token\n *\n * This subset of MintableCrowdsaleToken gives the Owner a possibility to\n * reclaim tokens from a participant before the token is released\n * after a participant has failed a prolonged AML process.\n *\n * It is assumed that the anti-money laundering process depends on blockchain data.\n * The data is not available before the transaction and not for the smart contract.\n * Thus, we need to implement logic to handle AML failure cases post payment.\n * We give a time window before the token release for the token sale owners to\n * complete the AML and claw back all token transactions that were\n * caused by rejected purchases.\n */\ncontract AMLToken is MintableToken {\n\n  // An event when the owner has reclaimed non-released tokens\n  event ReclaimedAllAndBurned(address claimedBy, address fromWhom, uint amount);\n\n    // An event when the owner has reclaimed non-released tokens\n  event ReclaimAndBurned(address claimedBy, address fromWhom, uint amount);\n\n  /// @dev Here the owner can reclaim the tokens from a participant if\n  ///      the token is not released yet. Refund will be handled in sale contract.\n  /// We also burn the tokens in the interest of economic value to the token holder\n  /// @param fromWhom address of the participant whose tokens we want to claim\n  function reclaimAllAndBurn(address fromWhom) public onlyReleaseAgent inReleaseState(false) {\n    uint amount = balanceOf(fromWhom);    \n    balances[fromWhom] = 0;\n    totalSupply = totalSupply.sub(amount);\n    \n    ReclaimedAllAndBurned(msg.sender, fromWhom, amount);\n  }\n\n  /// @dev Here the owner can reclaim the tokens from a participant if\n  ///      the token is not released yet. Refund will be handled in sale contract.\n  /// We also burn the tokens in the interest of economic value to the token holder\n  /// @param fromWhom address of the participant whose tokens we want to claim\n  function reclaimAndBurn(address fromWhom, uint256 amount) public onlyReleaseAgent inReleaseState(false) {       \n    balances[fromWhom] = balances[fromWhom].sub(amount);\n    totalSupply = totalSupply.sub(amount);\n    \n    ReclaimAndBurned(msg.sender, fromWhom, amount);\n  }\n}",
  "sourcePath": "/Users/jackpickering/Desktop/Development/AX1 versions/AX1_portal_staging/contracts/AMLToken.sol",
  "compiler": {
    "name": "solc",
    "version": "0.4.21+commit.dfe3193c.Emscripten.clang"
  },
  "schemaVersion": "2.0.0",
  "updatedAt": "2018-04-04T17:00:34.212Z"
}