{
  "contractName": "CappedCrowdsale",
  "abi": [
    {
      "constant": true,
      "inputs": [],
      "name": "name",
      "outputs": [
        {
          "name": "",
          "type": "string"
        }
      ],
      "payable": false,
      "stateMutability": "view",
      "type": "function"
    },
    {
      "constant": true,
      "inputs": [],
      "name": "reservedTokens",
      "outputs": [
        {
          "name": "",
          "type": "uint256"
        }
      ],
      "payable": false,
      "stateMutability": "view",
      "type": "function"
    },
    {
      "constant": true,
      "inputs": [],
      "name": "tokensSent",
      "outputs": [
        {
          "name": "",
          "type": "uint256"
        }
      ],
      "payable": false,
      "stateMutability": "view",
      "type": "function"
    },
    {
      "constant": true,
      "inputs": [],
      "name": "capInETH",
      "outputs": [
        {
          "name": "",
          "type": "bool"
        }
      ],
      "payable": false,
      "stateMutability": "view",
      "type": "function"
    },
    {
      "constant": true,
      "inputs": [],
      "name": "rate",
      "outputs": [
        {
          "name": "",
          "type": "uint256"
        }
      ],
      "payable": false,
      "stateMutability": "view",
      "type": "function"
    },
    {
      "constant": true,
      "inputs": [],
      "name": "endTime",
      "outputs": [
        {
          "name": "",
          "type": "uint256"
        }
      ],
      "payable": false,
      "stateMutability": "view",
      "type": "function"
    },
    {
      "constant": true,
      "inputs": [],
      "name": "beneficiary",
      "outputs": [
        {
          "name": "",
          "type": "address"
        }
      ],
      "payable": false,
      "stateMutability": "view",
      "type": "function"
    },
    {
      "constant": true,
      "inputs": [],
      "name": "weiRaised",
      "outputs": [
        {
          "name": "",
          "type": "uint256"
        }
      ],
      "payable": false,
      "stateMutability": "view",
      "type": "function"
    },
    {
      "constant": false,
      "inputs": [],
      "name": "claimPostAllocation",
      "outputs": [],
      "payable": false,
      "stateMutability": "nonpayable",
      "type": "function"
    },
    {
      "constant": true,
      "inputs": [
        {
          "name": "",
          "type": "address"
        }
      ],
      "name": "postsaleLock",
      "outputs": [
        {
          "name": "",
          "type": "uint256"
        }
      ],
      "payable": false,
      "stateMutability": "view",
      "type": "function"
    },
    {
      "constant": false,
      "inputs": [],
      "name": "setAllocations",
      "outputs": [],
      "payable": false,
      "stateMutability": "nonpayable",
      "type": "function"
    },
    {
      "constant": true,
      "inputs": [
        {
          "name": "",
          "type": "address"
        }
      ],
      "name": "postsalePercentages",
      "outputs": [
        {
          "name": "",
          "type": "uint256"
        }
      ],
      "payable": false,
      "stateMutability": "view",
      "type": "function"
    },
    {
      "constant": true,
      "inputs": [],
      "name": "capped",
      "outputs": [
        {
          "name": "",
          "type": "bool"
        }
      ],
      "payable": false,
      "stateMutability": "view",
      "type": "function"
    },
    {
      "constant": false,
      "inputs": [
        {
          "name": "receiver",
          "type": "address"
        },
        {
          "name": "tokens",
          "type": "uint256"
        },
        {
          "name": "weiPrice",
          "type": "uint256"
        },
        {
          "name": "included",
          "type": "bool"
        }
      ],
      "name": "preallocate",
      "outputs": [],
      "payable": false,
      "stateMutability": "nonpayable",
      "type": "function"
    },
    {
      "constant": true,
      "inputs": [
        {
          "name": "",
          "type": "address"
        }
      ],
      "name": "balanceOf",
      "outputs": [
        {
          "name": "",
          "type": "uint256"
        }
      ],
      "payable": false,
      "stateMutability": "view",
      "type": "function"
    },
    {
      "constant": true,
      "inputs": [],
      "name": "startTime",
      "outputs": [
        {
          "name": "",
          "type": "uint256"
        }
      ],
      "payable": false,
      "stateMutability": "view",
      "type": "function"
    },
    {
      "constant": true,
      "inputs": [
        {
          "name": "_tokensSold",
          "type": "uint256"
        },
        {
          "name": "_percent",
          "type": "uint256"
        }
      ],
      "name": "calculateInclusionPercentage",
      "outputs": [
        {
          "name": "",
          "type": "uint256"
        }
      ],
      "payable": false,
      "stateMutability": "view",
      "type": "function"
    },
    {
      "constant": true,
      "inputs": [
        {
          "name": "",
          "type": "uint128"
        }
      ],
      "name": "balancePerID",
      "outputs": [
        {
          "name": "",
          "type": "uint256"
        }
      ],
      "payable": false,
      "stateMutability": "view",
      "type": "function"
    },
    {
      "constant": true,
      "inputs": [],
      "name": "allocation",
      "outputs": [
        {
          "name": "",
          "type": "bool"
        }
      ],
      "payable": false,
      "stateMutability": "view",
      "type": "function"
    },
    {
      "constant": true,
      "inputs": [],
      "name": "owner",
      "outputs": [
        {
          "name": "",
          "type": "address"
        }
      ],
      "payable": false,
      "stateMutability": "view",
      "type": "function"
    },
    {
      "constant": true,
      "inputs": [],
      "name": "softCap",
      "outputs": [
        {
          "name": "",
          "type": "uint256"
        }
      ],
      "payable": false,
      "stateMutability": "view",
      "type": "function"
    },
    {
      "constant": true,
      "inputs": [],
      "name": "canWithdraw",
      "outputs": [
        {
          "name": "",
          "type": "bool"
        }
      ],
      "payable": false,
      "stateMutability": "view",
      "type": "function"
    },
    {
      "constant": true,
      "inputs": [],
      "name": "halted",
      "outputs": [
        {
          "name": "",
          "type": "bool"
        }
      ],
      "payable": false,
      "stateMutability": "view",
      "type": "function"
    },
    {
      "constant": true,
      "inputs": [
        {
          "name": "",
          "type": "address"
        }
      ],
      "name": "presaleTokenBalanceOf",
      "outputs": [
        {
          "name": "",
          "type": "uint256"
        }
      ],
      "payable": false,
      "stateMutability": "view",
      "type": "function"
    },
    {
      "constant": true,
      "inputs": [],
      "name": "withdrawn",
      "outputs": [
        {
          "name": "",
          "type": "uint256"
        }
      ],
      "payable": false,
      "stateMutability": "view",
      "type": "function"
    },
    {
      "constant": true,
      "inputs": [],
      "name": "saleId",
      "outputs": [
        {
          "name": "",
          "type": "uint256"
        }
      ],
      "payable": false,
      "stateMutability": "view",
      "type": "function"
    },
    {
      "constant": false,
      "inputs": [],
      "name": "stopICO",
      "outputs": [],
      "payable": false,
      "stateMutability": "nonpayable",
      "type": "function"
    },
    {
      "constant": false,
      "inputs": [],
      "name": "buyTokens",
      "outputs": [],
      "payable": true,
      "stateMutability": "payable",
      "type": "function"
    },
    {
      "constant": true,
      "inputs": [
        {
          "name": "",
          "type": "address"
        }
      ],
      "name": "presaleBalanceOf",
      "outputs": [
        {
          "name": "",
          "type": "uint256"
        }
      ],
      "payable": false,
      "stateMutability": "view",
      "type": "function"
    },
    {
      "constant": true,
      "inputs": [
        {
          "name": "",
          "type": "address"
        }
      ],
      "name": "tokenBalanceOf",
      "outputs": [
        {
          "name": "",
          "type": "uint256"
        }
      ],
      "payable": false,
      "stateMutability": "view",
      "type": "function"
    },
    {
      "constant": false,
      "inputs": [
        {
          "name": "receiver",
          "type": "address"
        },
        {
          "name": "toAllocate",
          "type": "uint256"
        },
        {
          "name": "lockedUntil",
          "type": "uint256"
        }
      ],
      "name": "postallocate",
      "outputs": [],
      "payable": false,
      "stateMutability": "nonpayable",
      "type": "function"
    },
    {
      "constant": false,
      "inputs": [
        {
          "name": "newOwner",
          "type": "address"
        }
      ],
      "name": "transferOwnership",
      "outputs": [],
      "payable": false,
      "stateMutability": "nonpayable",
      "type": "function"
    },
    {
      "constant": true,
      "inputs": [],
      "name": "presaleWeiRaised",
      "outputs": [
        {
          "name": "",
          "type": "uint256"
        }
      ],
      "payable": false,
      "stateMutability": "view",
      "type": "function"
    },
    {
      "constant": true,
      "inputs": [],
      "name": "admin",
      "outputs": [
        {
          "name": "",
          "type": "address"
        }
      ],
      "payable": false,
      "stateMutability": "view",
      "type": "function"
    },
    {
      "constant": true,
      "inputs": [],
      "name": "hardCap",
      "outputs": [
        {
          "name": "",
          "type": "uint256"
        }
      ],
      "payable": false,
      "stateMutability": "view",
      "type": "function"
    },
    {
      "constant": true,
      "inputs": [],
      "name": "token",
      "outputs": [
        {
          "name": "",
          "type": "address"
        }
      ],
      "payable": false,
      "stateMutability": "view",
      "type": "function"
    },
    {
      "constant": true,
      "inputs": [],
      "name": "presaleTokensSent",
      "outputs": [
        {
          "name": "",
          "type": "uint256"
        }
      ],
      "payable": false,
      "stateMutability": "view",
      "type": "function"
    },
    {
      "inputs": [
        {
          "name": "_name",
          "type": "string"
        },
        {
          "name": "_capped",
          "type": "bool"
        },
        {
          "name": "_capInETH",
          "type": "bool"
        },
        {
          "name": "_saleId",
          "type": "uint256"
        },
        {
          "name": "_allocation",
          "type": "bool"
        },
        {
          "name": "_startTime",
          "type": "uint256"
        },
        {
          "name": "_endTime",
          "type": "uint256"
        },
        {
          "name": "_rate",
          "type": "uint256"
        },
        {
          "name": "_admin",
          "type": "address"
        },
        {
          "name": "_beneficiary",
          "type": "address"
        },
        {
          "name": "_softCap",
          "type": "uint256"
        },
        {
          "name": "_hardCap",
          "type": "uint256"
        },
        {
          "name": "_token",
          "type": "address"
        }
      ],
      "payable": false,
      "stateMutability": "nonpayable",
      "type": "constructor"
    },
    {
      "anonymous": false,
      "inputs": [
        {
          "indexed": true,
          "name": "beneficiary",
          "type": "address"
        },
        {
          "indexed": false,
          "name": "tokens",
          "type": "uint256"
        },
        {
          "indexed": false,
          "name": "price",
          "type": "uint256"
        }
      ],
      "name": "PreAllocation",
      "type": "event"
    },
    {
      "anonymous": false,
      "inputs": [
        {
          "indexed": true,
          "name": "beneficiary",
          "type": "address"
        },
        {
          "indexed": false,
          "name": "percentage",
          "type": "uint256"
        },
        {
          "indexed": false,
          "name": "lockedUntil",
          "type": "uint256"
        }
      ],
      "name": "PostAllocation",
      "type": "event"
    },
    {
      "anonymous": false,
      "inputs": [
        {
          "indexed": true,
          "name": "beneficiary",
          "type": "address"
        },
        {
          "indexed": false,
          "name": "tokens",
          "type": "uint256"
        },
        {
          "indexed": false,
          "name": "time",
          "type": "uint256"
        }
      ],
      "name": "PostAllocationCollected",
      "type": "event"
    },
    {
      "anonymous": false,
      "inputs": [
        {
          "indexed": true,
          "name": "purchaser",
          "type": "address"
        },
        {
          "indexed": true,
          "name": "beneficiary",
          "type": "address"
        },
        {
          "indexed": false,
          "name": "value",
          "type": "uint256"
        },
        {
          "indexed": false,
          "name": "amount",
          "type": "uint256"
        },
        {
          "indexed": false,
          "name": "datetime",
          "type": "uint256"
        }
      ],
      "name": "TokenPurchase",
      "type": "event"
    },
    {
      "anonymous": false,
      "inputs": [
        {
          "indexed": false,
          "name": "beneficiary",
          "type": "address"
        },
        {
          "indexed": false,
          "name": "amount",
          "type": "uint256"
        },
        {
          "indexed": false,
          "name": "datetime",
          "type": "uint256"
        }
      ],
      "name": "BeneficiaryWithdrawal",
      "type": "event"
    },
    {
      "anonymous": false,
      "inputs": [
        {
          "indexed": false,
          "name": "owner",
          "type": "address"
        },
        {
          "indexed": false,
          "name": "datetime",
          "type": "uint256"
        }
      ],
      "name": "SaleStopped",
      "type": "event"
    },
    {
      "anonymous": false,
      "inputs": [
        {
          "indexed": true,
          "name": "previousOwner",
          "type": "address"
        },
        {
          "indexed": true,
          "name": "newOwner",
          "type": "address"
        }
      ],
      "name": "OwnershipTransferred",
      "type": "event"
    },
    {
      "constant": true,
      "inputs": [],
      "name": "hasEnded",
      "outputs": [
        {
          "name": "",
          "type": "bool"
        }
      ],
      "payable": false,
      "stateMutability": "view",
      "type": "function"
    },
    {
      "constant": false,
      "inputs": [],
      "name": "successfulWithdraw",
      "outputs": [],
      "payable": false,
      "stateMutability": "nonpayable",
      "type": "function"
    }
  ],
  "bytecode": "0x606060405260006004556012805461ffff1916905534156200002057600080fd5b604051620014e4380380620014e483398101604052808051820191906020018051919060200180519190602001805191906020018051919060200180519190602001805191906020018051919060200180519190602001805191906020018051919060200180519190602001805160008054600160a060020a03191633600160a060020a031617905591508d90508c8c8c8c8c8c8c8c8c8a8a8a8a8a8a8a8a8a8a8a8a8a8a8a8a8a6001858051620000dd929160200190620002be565b5060028054600393909355901515620100000262ff0000199315156101000261ff001995151560ff199094169390931794909416919091179190911691909117905550428610156200012e57600080fd5b858510156200013c57600080fd5b600084116200014a57600080fd5b600160a060020a03831615156200016057600080fd5b60058054600160a060020a03808416600160a060020a03199283161790925560068890556007879055600a869055600880548684169083161790556009805492851692909116919091179055620001c58364010000000062000de16200022e82021704565b50505050505050505050505050505050505050505050600082118015620001ec5750600083115b8015620001f857508183105b15156200020457600080fd5b50601991909155601a5550506000601b555050601c805460ff191690555062000363945050505050565b60005433600160a060020a039081169116146200024a57600080fd5b600160a060020a03811615156200026057600080fd5b600054600160a060020a0380831691167f8be0079c531659141344cd1fd0a4f28419497f9722a3daafe3b4186f6b6457e060405160405180910390a360008054600160a060020a031916600160a060020a0392909216919091179055565b828054600181600116156101000203166002900490600052602060002090601f016020900481019282601f106200030157805160ff191683800117855562000331565b8280016001018555821562000331579182015b828111156200033157825182559160200191906001019062000314565b506200033f92915062000343565b5090565b6200036091905b808211156200033f57600081556001016200034a565b90565b61117180620003736000396000f3006060604052600436106101c95763ffffffff60e060020a60003504166306fdde0381146101ce57806315a55347146102585780631f1307611461027d578063266e0b1b146102905780632c4e722e146102b75780633197cbb6146102ca57806338af3eed146102dd5780634042b66f1461030c57806347da01c81461031f578063499c3c9714610334578063532ce7ae146103535780635438fb76146103665780635eb101c3146103855780636fa3b5581461039857806370a08231146103c257806378e97925146103e15780637a5c856b146103f45780637db71fc41461040d57806388a17bde146104355780638da5cb5b14610448578063906a26e01461045b578063b51459fe1461046e578063b9b8af0b14610481578063bdd3040614610494578063c27dd547146104a7578063c80ec522146104c6578063c84c0387146104d9578063c8e569a8146104ec578063d0febe4c146104ff578063dfc6fbaa14610507578063e42c08f214610526578063ecb70fb714610545578063efda668814610558578063f2fde38b1461057d578063f7c00e2f1461059c578063f851a440146105af578063fb86a404146105c2578063fc0c546a146105d5578063ff5f68b7146105e8575b600080fd5b34156101d957600080fd5b6101e16105fb565b60405160208082528190810183818151815260200191508051906020019080838360005b8381101561021d578082015183820152602001610205565b50505050905090810190601f16801561024a5780820380516001836020036101000a031916815260200191505b509250505060405180910390f35b341561026357600080fd5b61026b610699565b60405190815260200160405180910390f35b341561028857600080fd5b61026b61069f565b341561029b57600080fd5b6102a36106a5565b604051901515815260200160405180910390f35b34156102c257600080fd5b61026b6106b3565b34156102d557600080fd5b61026b6106b9565b34156102e857600080fd5b6102f06106bf565b604051600160a060020a03909116815260200160405180910390f35b341561031757600080fd5b61026b6106ce565b341561032a57600080fd5b6103326106d4565b005b341561033f57600080fd5b61026b600160a060020a0360043516610806565b341561035e57600080fd5b610332610818565b341561037157600080fd5b61026b600160a060020a0360043516610842565b341561039057600080fd5b6102a3610854565b34156103a357600080fd5b610332600160a060020a0360043516602435604435606435151561085d565b34156103cd57600080fd5b61026b600160a060020a03600435166109fc565b34156103ec57600080fd5b61026b610a0e565b34156103ff57600080fd5b61026b600435602435610a14565b341561041857600080fd5b61026b6fffffffffffffffffffffffffffffffff60043516610a78565b341561044057600080fd5b6102a3610a8a565b341561045357600080fd5b6102f0610a99565b341561046657600080fd5b61026b610aa8565b341561047957600080fd5b6102a3610aae565b341561048c57600080fd5b6102a3610ab7565b341561049f57600080fd5b610332610ad8565b34156104b257600080fd5b61026b600160a060020a0360043516610bd4565b34156104d157600080fd5b61026b610be6565b34156104e457600080fd5b61026b610bec565b34156104f757600080fd5b610332610bf2565b610332610c88565b341561051257600080fd5b61026b600160a060020a0360043516610cee565b341561053157600080fd5b61026b600160a060020a0360043516610d00565b341561055057600080fd5b6102a3610d12565b341561056357600080fd5b610332600160a060020a0360043516602435604435610d34565b341561058857600080fd5b610332600160a060020a0360043516610de1565b34156105a757600080fd5b61026b610e7c565b34156105ba57600080fd5b6102f0610e82565b34156105cd57600080fd5b61026b610e91565b34156105e057600080fd5b6102f0610e97565b34156105f357600080fd5b61026b610ea6565b60018054600181600116156101000203166002900480601f0160208091040260200160405190810160405280929190818152602001828054600181600116156101000203166002900480156106915780601f1061066657610100808354040283529160200191610691565b820191906000526020600020905b81548152906001019060200180831161067457829003601f168201915b505050505081565b60045481565b600d5481565b600254610100900460ff1681565b600a5481565b60075481565b600954600160a060020a031681565b600b5481565b60006106de610d12565b15156106e957600080fd5b600160a060020a033316600090815260166020526040902054421161070d57600080fd5b600160a060020a033316600090815260156020526040902054151561073157600080fd5b610739610eac565b600160a060020a033316600090815260156020526040812055600d54909150610768908263ffffffff610edc16565b600d55600160a060020a033316600090815260116020526040902054610794908263ffffffff610edc16565b33600160a060020a038116600090815260116020526040902091909155600a546107bf919083610ef6565b33600160a060020a03167f6715317b39aaeb09cea0fbe5b19e8a44933166d99a4f36432d173a56348636d1824260405191825260208201526040908101905180910390a250565b60166020526000908152604090205481565b60005433600160a060020a0390811691161461083357600080fd5b6012805460ff19166001179055565b60156020526000908152604090205481565b60025460ff1681565b600080548190819033600160a060020a0390811691161461087d57600080fd5b60125460ff16801561088e57600080fd5b600554600160a060020a031663313ce5676040518163ffffffff1660e060020a028152600401602060405180830381600087803b15156108cd57600080fd5b5af115156108da57600080fd5b5050506040518051905060ff16935083600a0a8702925086860291506109008386610fc3565b601754610913908363ffffffff610edc16565b601755601854610929908463ffffffff610edc16565b601855600160a060020a038816600090815260146020526040902054610955908463ffffffff610edc16565b600160a060020a03891660009081526014602090815260408083209390935560139052205461098a908363ffffffff610edc16565b600160a060020a0389166000908152601360205260409020556109ae888385610ef6565b87600160a060020a03167f11de3dbd27fca3973eba7e4ac6b4af86964946f3a9cd7c14c6a3d2a2c0195ba4888860405191825260208201526040908101905180910390a25050505050505050565b600f6020526000908152604090205481565b60065481565b60006402540be400606483900382808080610a35898763ffffffff610fd116565b9350610a47848663ffffffff610ffc16565b9250610a59838963ffffffff610fd116565b9150610a6b828763ffffffff610ffc16565b9998505050505050505050565b600e6020526000908152604090205481565b60025462010000900460ff1681565b600054600160a060020a031681565b60195481565b601c5460ff1681565b60005474010000000000000000000000000000000000000000900460ff1681565b60005433600160a060020a03908116911614610af357600080fd5b60005474010000000000000000000000000000000000000000900460ff1615610b1b57600080fd5b610b23610d12565b1515610b2e57600080fd5b601954600d5411610b3e57600080fd5b600954600b54600160a060020a039091169080156108fc0290604051600060405180830381858888f193505050501515610b7757600080fd5b7f9f7cbddba892cf26a7cd63d61d3c8d085df04bbbe7601e53311038ca6dab196b33600b54426040518084600160a060020a0316600160a060020a03168152602001838152602001828152602001935050505060405180910390a1565b60146020526000908152604090205481565b601b5481565b60035481565b60005433600160a060020a03908116911614610c0d57600080fd5b6000805474ff00000000000000000000000000000000000000001916740100000000000000000000000000000000000000001790557f4898556e3bd8b06263e50e938f30f736c1fd2030390474dd6bc0b28d8c5450373342604051600160a060020a03909216825260208201526040908101905180910390a1565b60008054819074010000000000000000000000000000000000000000900460ff1615610cb357600080fd5b349150610cbf82611013565b9050610cca81611030565b1515610cd557600080fd5b610cdf8282611065565b610cea338383610ef6565b5050565b60136020526000908152604090205481565b60116020526000908152604090205481565b601a54600d54600091901015610d2661110c565b80610d2e5750805b91505090565b60005433600160a060020a03908116911614610d4f57600080fd5b601254610100900460ff168015610d6557600080fd5b6006544210610d7357600080fd5b600160a060020a03841660008181526015602090815260408083208054880190556016909152908190208490557f21523178fc56a687bc2d3b20d54499bde0d88cd484307c2a3cfb90e317cd858a90859085905191825260208201526040908101905180910390a250505050565b60005433600160a060020a03908116911614610dfc57600080fd5b600160a060020a0381161515610e1157600080fd5b600054600160a060020a0380831691167f8be0079c531659141344cd1fd0a4f28419497f9722a3daafe3b4186f6b6457e060405160405180910390a36000805473ffffffffffffffffffffffffffffffffffffffff1916600160a060020a0392909216919091179055565b60175481565b600854600160a060020a031681565b601a5481565b600554600160a060020a031681565b60185481565b600160a060020a033316600090815260156020526040812054600d54829190610ed59082610a14565b9392505050565b600082820183811015610eeb57fe5b8091505b5092915050565b600554600160a060020a03166340c10f19848360405160e060020a63ffffffff8516028152600160a060020a0390921660048301526024820152604401602060405180830381600087803b1515610f4c57600080fd5b5af11515610f5957600080fd5b505050604051805190505082600160a060020a031633600160a060020a03167efe0e12b43090c1fc19a34aefa5cc138a4eeafc60ab800f855c730b3fb9480e84844260405180848152602001838152602001828152602001935050505060405180910390a3505050565b6006544210610cea57600080fd5b600080831515610fe45760009150610eef565b50828202828482811515610ff457fe5b0414610eeb57fe5b600080828481151561100a57fe5b04949350505050565b600061102a600a5483610ffc90919063ffffffff16565b92915050565b600080601a5461104b84600d54610edc90919063ffffffff16565b1115905061105883611114565b8015610ed5575092915050565b600160a060020a0333166000908152600f602052604090205461108e908363ffffffff610edc16565b600160a060020a0333166000908152600f60209081526040808320939093556011905220546110c3908263ffffffff610edc16565b600160a060020a033316600090815260116020526040902055600b546110ef908363ffffffff610edc16565b600b55600d54611105908263ffffffff610edc16565b600d555050565b600754421190565b6000806000600654421015801561112d57506007544211155b91505034151581801561113d5750805b9493505050505600a165627a7a7230582086894a6fb4643e20951f29f593d0c3434548a57548fbb32950925138c3688d7c0029",
  "source": "pragma solidity 0.4.21;\n\nimport './SafeMath.sol';\nimport './Allocation.sol';\n\n/**\n * @title CappedCrowdsale\n * @dev Extension of Crowdsale with a max amount of funds raised\n */\ncontract CappedCrowdsale is Allocation {\n  using SafeMath for uint256;\n\n  uint256 public softCap;\n  uint256 public hardCap;\n  uint256 public withdrawn;\n  bool public canWithdraw;\n  \n  // Changed implentation to include soft/hard caps\n  function CappedCrowdsale(string _name, bool _capped, bool _capInETH, uint256 _saleId, bool _allocation, uint256 _startTime, uint256 _endTime, uint256 _rate, address _admin, address _beneficiary, uint256 _softCap, uint256 _hardCap, PickToken _token) \n    Allocation(_name, _capped, _capInETH, _saleId, _allocation, _startTime, _endTime, _rate, _admin, _beneficiary, _token)\n      public {\n\n    require(_hardCap > 0 && _softCap > 0 && _softCap < _hardCap);\n\n    softCap = _softCap;\n    hardCap = _hardCap;\n    withdrawn = 0;\n    canWithdraw = false;\n  }\n\n  // overriding Crowdsale#validPurchase to add extra cap logic\n  // @return true if investors can buy at the moment\n  function validPurchase(uint256 _tokens) internal view returns (bool) {\n    bool withinCap = tokensSent.add(_tokens) <= hardCap;\n    return super.validPurchase(_tokens) && withinCap;\n  }\n  \n  // overriding Crowdsale#hasEnded to add cap logic\n  // @return true if crowdsale event has ended\n  function hasEnded() public view returns (bool) {\n    bool capReached = tokensSent >= hardCap;\n    return super.hasEnded() || capReached;\n  }\n  \n  // overriding Crowdsale#successfulWithdraw to add cap logic\n  // only allow beneficiary to withdraw if softcap has been reached\n  // Uses withdrawn incase a parent contract requires withdrawing softcap early\n  function successfulWithdraw() external onlyOwner stopInEmergency {\n    require(hasEnded());\n    require(tokensSent > softCap);\n\n    beneficiary.transfer(weiRaised);\n    BeneficiaryWithdrawal(msg.sender, weiRaised, now);\n  }\n}",
  "sourcePath": "/Users/jackpickering/Desktop/Development/Iconemy/create_basic_sale/contracts/CappedCrowdsale.sol",
  "compiler": {
    "name": "solc",
    "version": "0.4.21+commit.dfe3193c.Emscripten.clang"
  },
  "schemaVersion": "2.0.0",
  "updatedAt": "2018-08-22T13:07:48.941Z"
}