{
  "contractName": "Crowdsale",
  "abi": [
    {
      "constant": true,
      "inputs": [],
      "name": "name",
      "outputs": [
        {
          "name": "",
          "type": "string"
        }
      ],
      "payable": false,
      "stateMutability": "view",
      "type": "function"
    },
    {
      "constant": true,
      "inputs": [],
      "name": "reservedTokens",
      "outputs": [
        {
          "name": "",
          "type": "uint256"
        }
      ],
      "payable": false,
      "stateMutability": "view",
      "type": "function"
    },
    {
      "constant": true,
      "inputs": [],
      "name": "tokensSent",
      "outputs": [
        {
          "name": "",
          "type": "uint256"
        }
      ],
      "payable": false,
      "stateMutability": "view",
      "type": "function"
    },
    {
      "constant": true,
      "inputs": [],
      "name": "capInETH",
      "outputs": [
        {
          "name": "",
          "type": "bool"
        }
      ],
      "payable": false,
      "stateMutability": "view",
      "type": "function"
    },
    {
      "constant": true,
      "inputs": [],
      "name": "rate",
      "outputs": [
        {
          "name": "",
          "type": "uint256"
        }
      ],
      "payable": false,
      "stateMutability": "view",
      "type": "function"
    },
    {
      "constant": true,
      "inputs": [],
      "name": "endTime",
      "outputs": [
        {
          "name": "",
          "type": "uint256"
        }
      ],
      "payable": false,
      "stateMutability": "view",
      "type": "function"
    },
    {
      "constant": true,
      "inputs": [],
      "name": "beneficiary",
      "outputs": [
        {
          "name": "",
          "type": "address"
        }
      ],
      "payable": false,
      "stateMutability": "view",
      "type": "function"
    },
    {
      "constant": true,
      "inputs": [],
      "name": "weiRaised",
      "outputs": [
        {
          "name": "",
          "type": "uint256"
        }
      ],
      "payable": false,
      "stateMutability": "view",
      "type": "function"
    },
    {
      "constant": true,
      "inputs": [],
      "name": "capped",
      "outputs": [
        {
          "name": "",
          "type": "bool"
        }
      ],
      "payable": false,
      "stateMutability": "view",
      "type": "function"
    },
    {
      "constant": true,
      "inputs": [
        {
          "name": "",
          "type": "address"
        }
      ],
      "name": "balanceOf",
      "outputs": [
        {
          "name": "",
          "type": "uint256"
        }
      ],
      "payable": false,
      "stateMutability": "view",
      "type": "function"
    },
    {
      "constant": true,
      "inputs": [],
      "name": "startTime",
      "outputs": [
        {
          "name": "",
          "type": "uint256"
        }
      ],
      "payable": false,
      "stateMutability": "view",
      "type": "function"
    },
    {
      "constant": true,
      "inputs": [
        {
          "name": "",
          "type": "uint128"
        }
      ],
      "name": "balancePerID",
      "outputs": [
        {
          "name": "",
          "type": "uint256"
        }
      ],
      "payable": false,
      "stateMutability": "view",
      "type": "function"
    },
    {
      "constant": true,
      "inputs": [],
      "name": "allocation",
      "outputs": [
        {
          "name": "",
          "type": "bool"
        }
      ],
      "payable": false,
      "stateMutability": "view",
      "type": "function"
    },
    {
      "constant": true,
      "inputs": [],
      "name": "owner",
      "outputs": [
        {
          "name": "",
          "type": "address"
        }
      ],
      "payable": false,
      "stateMutability": "view",
      "type": "function"
    },
    {
      "constant": true,
      "inputs": [],
      "name": "halted",
      "outputs": [
        {
          "name": "",
          "type": "bool"
        }
      ],
      "payable": false,
      "stateMutability": "view",
      "type": "function"
    },
    {
      "constant": true,
      "inputs": [],
      "name": "saleId",
      "outputs": [
        {
          "name": "",
          "type": "uint256"
        }
      ],
      "payable": false,
      "stateMutability": "view",
      "type": "function"
    },
    {
      "constant": false,
      "inputs": [],
      "name": "stopICO",
      "outputs": [],
      "payable": false,
      "stateMutability": "nonpayable",
      "type": "function"
    },
    {
      "constant": true,
      "inputs": [
        {
          "name": "",
          "type": "address"
        }
      ],
      "name": "presaleBalanceOf",
      "outputs": [
        {
          "name": "",
          "type": "uint256"
        }
      ],
      "payable": false,
      "stateMutability": "view",
      "type": "function"
    },
    {
      "constant": true,
      "inputs": [
        {
          "name": "",
          "type": "address"
        }
      ],
      "name": "tokenBalanceOf",
      "outputs": [
        {
          "name": "",
          "type": "uint256"
        }
      ],
      "payable": false,
      "stateMutability": "view",
      "type": "function"
    },
    {
      "constant": false,
      "inputs": [
        {
          "name": "newOwner",
          "type": "address"
        }
      ],
      "name": "transferOwnership",
      "outputs": [],
      "payable": false,
      "stateMutability": "nonpayable",
      "type": "function"
    },
    {
      "constant": true,
      "inputs": [],
      "name": "presaleWeiRaised",
      "outputs": [
        {
          "name": "",
          "type": "uint256"
        }
      ],
      "payable": false,
      "stateMutability": "view",
      "type": "function"
    },
    {
      "constant": true,
      "inputs": [],
      "name": "admin",
      "outputs": [
        {
          "name": "",
          "type": "address"
        }
      ],
      "payable": false,
      "stateMutability": "view",
      "type": "function"
    },
    {
      "constant": true,
      "inputs": [],
      "name": "token",
      "outputs": [
        {
          "name": "",
          "type": "address"
        }
      ],
      "payable": false,
      "stateMutability": "view",
      "type": "function"
    },
    {
      "inputs": [
        {
          "name": "_name",
          "type": "string"
        },
        {
          "name": "_capped",
          "type": "bool"
        },
        {
          "name": "_capInETH",
          "type": "bool"
        },
        {
          "name": "_saleId",
          "type": "uint256"
        },
        {
          "name": "_allocation",
          "type": "bool"
        },
        {
          "name": "_startTime",
          "type": "uint256"
        },
        {
          "name": "_endTime",
          "type": "uint256"
        },
        {
          "name": "_rate",
          "type": "uint256"
        },
        {
          "name": "_admin",
          "type": "address"
        },
        {
          "name": "_beneficiary",
          "type": "address"
        },
        {
          "name": "_token",
          "type": "address"
        }
      ],
      "payable": false,
      "stateMutability": "nonpayable",
      "type": "constructor"
    },
    {
      "anonymous": false,
      "inputs": [
        {
          "indexed": true,
          "name": "purchaser",
          "type": "address"
        },
        {
          "indexed": true,
          "name": "beneficiary",
          "type": "address"
        },
        {
          "indexed": false,
          "name": "value",
          "type": "uint256"
        },
        {
          "indexed": false,
          "name": "amount",
          "type": "uint256"
        },
        {
          "indexed": false,
          "name": "datetime",
          "type": "uint256"
        }
      ],
      "name": "TokenPurchase",
      "type": "event"
    },
    {
      "anonymous": false,
      "inputs": [
        {
          "indexed": false,
          "name": "beneficiary",
          "type": "address"
        },
        {
          "indexed": false,
          "name": "amount",
          "type": "uint256"
        },
        {
          "indexed": false,
          "name": "datetime",
          "type": "uint256"
        }
      ],
      "name": "BeneficiaryWithdrawal",
      "type": "event"
    },
    {
      "anonymous": false,
      "inputs": [
        {
          "indexed": false,
          "name": "owner",
          "type": "address"
        },
        {
          "indexed": false,
          "name": "datetime",
          "type": "uint256"
        }
      ],
      "name": "SaleStopped",
      "type": "event"
    },
    {
      "anonymous": false,
      "inputs": [
        {
          "indexed": true,
          "name": "previousOwner",
          "type": "address"
        },
        {
          "indexed": true,
          "name": "newOwner",
          "type": "address"
        }
      ],
      "name": "OwnershipTransferred",
      "type": "event"
    },
    {
      "constant": false,
      "inputs": [],
      "name": "buyTokens",
      "outputs": [],
      "payable": true,
      "stateMutability": "payable",
      "type": "function"
    },
    {
      "constant": false,
      "inputs": [],
      "name": "successfulWithdraw",
      "outputs": [],
      "payable": false,
      "stateMutability": "nonpayable",
      "type": "function"
    },
    {
      "constant": true,
      "inputs": [],
      "name": "hasEnded",
      "outputs": [
        {
          "name": "",
          "type": "bool"
        }
      ],
      "payable": false,
      "stateMutability": "view",
      "type": "function"
    }
  ],
  "bytecode": "0x60606040526000600455341561001457600080fd5b60405162000d6838038062000d688339810160405280805182019190602001805191906020018051919060200180519190602001805191906020018051919060200180519190602001805191906020018051919060200180519190602001805160008054600160a060020a03191633600160a060020a031617905591508b90508a8a8a8a60018580516100ab92916020019061022a565b5060028054600393909355901515620100000262ff0000199315156101000261ff001995151560ff199094169390931794909416919091179190911691909117905550428610156100fb57600080fd5b8585101561010857600080fd5b6000841161011557600080fd5b600160a060020a038316151561012a57600080fd5b60058054600160a060020a03808416600160a060020a03199283161790925560068890556007879055600a86905560088054868416908316179055600980549285169290911691909117905561018c836401000000006107a061019c82021704565b50505050505050505050506102c5565b60005433600160a060020a039081169116146101b757600080fd5b600160a060020a03811615156101cc57600080fd5b600054600160a060020a0380831691167f8be0079c531659141344cd1fd0a4f28419497f9722a3daafe3b4186f6b6457e060405160405180910390a360008054600160a060020a031916600160a060020a0392909216919091179055565b828054600181600116156101000203166002900490600052602060002090601f016020900481019282601f1061026b57805160ff1916838001178555610298565b82800160010185558215610298579182015b8281111561029857825182559160200191906001019061027d565b506102a49291506102a8565b5090565b6102c291905b808211156102a457600081556001016102ae565b90565b610a9380620002d56000396000f3006060604052600436106101535763ffffffff7c010000000000000000000000000000000000000000000000000000000060003504166306fdde03811461015857806315a55347146101e25780631f13076114610207578063266e0b1b1461021a5780632c4e722e146102415780633197cbb61461025457806338af3eed146102675780634042b66f146102965780635eb101c3146102a957806370a08231146102bc57806378e97925146102db5780637db71fc4146102ee57806388a17bde146103165780638da5cb5b14610329578063b9b8af0b1461033c578063bdd304061461034f578063c84c038714610364578063c8e569a814610377578063d0febe4c1461038a578063dfc6fbaa14610392578063e42c08f2146103b1578063ecb70fb7146103d0578063f2fde38b146103e3578063f7c00e2f14610402578063f851a44014610415578063fc0c546a14610428575b600080fd5b341561016357600080fd5b61016b61043b565b60405160208082528190810183818151815260200191508051906020019080838360005b838110156101a757808201518382015260200161018f565b50505050905090810190601f1680156101d45780820380516001836020036101000a031916815260200191505b509250505060405180910390f35b34156101ed57600080fd5b6101f56104d9565b60405190815260200160405180910390f35b341561021257600080fd5b6101f56104df565b341561022557600080fd5b61022d6104e5565b604051901515815260200160405180910390f35b341561024c57600080fd5b6101f56104f3565b341561025f57600080fd5b6101f56104f9565b341561027257600080fd5b61027a6104ff565b604051600160a060020a03909116815260200160405180910390f35b34156102a157600080fd5b6101f561050e565b34156102b457600080fd5b61022d610514565b34156102c757600080fd5b6101f5600160a060020a036004351661051d565b34156102e657600080fd5b6101f561052f565b34156102f957600080fd5b6101f56fffffffffffffffffffffffffffffffff60043516610535565b341561032157600080fd5b61022d610547565b341561033457600080fd5b61027a610556565b341561034757600080fd5b61022d610565565b341561035a57600080fd5b610362610586565b005b341561036f57600080fd5b6101f5610672565b341561038257600080fd5b610362610678565b61036261070e565b341561039d57600080fd5b6101f5600160a060020a0360043516610774565b34156103bc57600080fd5b6101f5600160a060020a0360043516610786565b34156103db57600080fd5b61022d610798565b34156103ee57600080fd5b610362600160a060020a03600435166107a0565b341561040d57600080fd5b6101f561083b565b341561042057600080fd5b61027a610841565b341561043357600080fd5b61027a610850565b60018054600181600116156101000203166002900480601f0160208091040260200160405190810160405280929190818152602001828054600181600116156101000203166002900480156104d15780601f106104a6576101008083540402835291602001916104d1565b820191906000526020600020905b8154815290600101906020018083116104b457829003601f168201915b505050505081565b60045481565b600d5481565b600254610100900460ff1681565b600a5481565b60075481565b600954600160a060020a031681565b600b5481565b60025460ff1681565b600f6020526000908152604090205481565b60065481565b600e6020526000908152604090205481565b60025462010000900460ff1681565b600054600160a060020a031681565b60005474010000000000000000000000000000000000000000900460ff1681565b60005433600160a060020a039081169116146105a157600080fd5b60005474010000000000000000000000000000000000000000900460ff16156105c957600080fd5b6105d1610798565b15156105dc57600080fd5b600954600b54600160a060020a039091169080156108fc0290604051600060405180830381858888f19350505050151561061557600080fd5b7f9f7cbddba892cf26a7cd63d61d3c8d085df04bbbe7601e53311038ca6dab196b33600b54426040518084600160a060020a0316600160a060020a03168152602001838152602001828152602001935050505060405180910390a1565b60035481565b60005433600160a060020a0390811691161461069357600080fd5b6000805474ff00000000000000000000000000000000000000001916740100000000000000000000000000000000000000001790557f4898556e3bd8b06263e50e938f30f736c1fd2030390474dd6bc0b28d8c5450373342604051600160a060020a03909216825260208201526040908101905180910390a1565b60008054819074010000000000000000000000000000000000000000900460ff161561073957600080fd5b3491506107458261085f565b90506107508161087c565b151561075b57600080fd5b61076582826108ad565b610770338383610954565b5050565b60106020526000908152604090205481565b60116020526000908152604090205481565b600754421190565b60005433600160a060020a039081169116146107bb57600080fd5b600160a060020a03811615156107d057600080fd5b600054600160a060020a0380831691167f8be0079c531659141344cd1fd0a4f28419497f9722a3daafe3b4186f6b6457e060405160405180910390a36000805473ffffffffffffffffffffffffffffffffffffffff1916600160a060020a0392909216919091179055565b600c5481565b600854600160a060020a031681565b600554600160a060020a031681565b6000610876600a5483610a3a90919063ffffffff16565b92915050565b6000806000600654421015801561089557506007544211155b9150503415158180156108a55750805b949350505050565b600160a060020a0333166000908152600f60205260409020546108d6908363ffffffff610a5116565b600160a060020a0333166000908152600f602090815260408083209390935560119052205461090b908263ffffffff610a5116565b600160a060020a033316600090815260116020526040902055600b54610937908363ffffffff610a5116565b600b55600d5461094d908263ffffffff610a5116565b600d555050565b600554600160a060020a03166340c10f1984836040517c010000000000000000000000000000000000000000000000000000000063ffffffff8516028152600160a060020a0390921660048301526024820152604401602060405180830381600087803b15156109c357600080fd5b5af115156109d057600080fd5b505050604051805190505082600160a060020a031633600160a060020a03167efe0e12b43090c1fc19a34aefa5cc138a4eeafc60ab800f855c730b3fb9480e84844260405180848152602001838152602001828152602001935050505060405180910390a3505050565b6000808284811515610a4857fe5b04949350505050565b600082820183811015610a6057fe5b93925050505600a165627a7a72305820caacc8f06f6751fa530f0e71382751ad47fbf49a44d97bc414c03f357446d8340029",
  "source": "pragma solidity 0.4.21;\n\nimport './PickToken.sol';\nimport './SafeMath.sol';\nimport './Stoppable.sol';\nimport './IconemySale.sol';\n\n/**\n * @title Crowdsale\n * @dev Crowdsale is a base contract for managing a token crowdsale.\n * Crowdsales have a start and end timestamps, where investors can make\n * token purchases and the crowdsale will assign them tokens based\n * on a token per ETH rate. Funds collected are forwarded to a wallet\n * as they arrive.\n *\n * This base contract has been changed in certain areas by Pickeringware ltd to facilitate extra functionality\n */\ncontract Crowdsale is Stoppable, IconemySale {\n  using SafeMath for uint256;\n\n  // The token being sold\n  PickToken public token;\n\n  // start and end timestamps where investments are allowed (both inclusive)\n  uint256 public startTime;\n  uint256 public endTime;\n\n  // address where funds are collected\n  address public admin;\n  address public beneficiary;\n  \n  // how many token units a buyer gets per wei\n  uint256 public rate;\n\n  // amount of raised money in wei\n  uint256 public weiRaised;\n  uint256 public presaleWeiRaised;\n\n  // amount of tokens sent\n  uint256 public tokensSent;\n\n  // These store balances of participants by ID, address and in wei, pre-sale wei and tokens\n  mapping(uint128 => uint256) public balancePerID;\n  mapping(address => uint256) public balanceOf;\n  mapping(address => uint256) public presaleBalanceOf;\n  mapping(address => uint256) public tokenBalanceOf;\n\n  /**\n   * event for token purchase logging\n   * @param purchaser who paid for the tokens\n   * @param beneficiary who got the tokens\n   * @param value weis paid for purchase\n   * @param amount amount of tokens purchased\n   */\n  event TokenPurchase(address indexed purchaser, address indexed beneficiary, uint256 value, uint256 amount, uint256 datetime);\n  event BeneficiaryWithdrawal(address beneficiary, uint256 amount, uint256 datetime);\n\n  /*\n   * Contructor\n   * This initialises the basic crowdsale data\n   * It transfers ownership of this token to the chosen beneficiary \n  */\n  function Crowdsale(string _name, bool _capped, bool _capInETH, uint256 _saleId, bool _allocation, uint256 _startTime, uint256 _endTime, uint256 _rate, address _admin, address _beneficiary, PickToken _token)\n    IconemySale(_name, _capped, _capInETH, _saleId, _allocation)  \n    public {\n      \n    require(_startTime >= now);\n    require(_endTime >= _startTime);\n    require(_rate > 0);\n    require(_admin != address(0));\n\n    token = _token;\n    startTime = _startTime;\n    endTime = _endTime;\n    rate = _rate;\n    admin = _admin;\n    beneficiary = _beneficiary;\n    transferOwnership(_admin);\n  }\n\n  /*\n   * This method has been changed by Pickeringware ltd\n   * We have split this method down into overidable functions which may affect how users purchase tokens\n   * We also take in a customerID (UUiD v4) which we store in our back-end in order to track users participation\n  */ \n  function buyTokens() public payable stopInEmergency {\n    uint256 weiAmount = msg.value;\n\n    // calculate token amount to be created\n    uint256 tokens = tokensToRecieve(weiAmount);\n\n    // MUST DO REQUIRE AFTER tokens are calculated to check for cap restrictions in stages\n    require(validPurchase(tokens));\n\n    // We move the participants sliders before we mint the tokens to prevent re-entrancy\n    finalizeSale(weiAmount, tokens);\n    produceTokens(msg.sender, weiAmount, tokens);\n  }\n\n  // This function was created to be overridden by a parent contract\n  function produceTokens(address buyer, uint256 weiAmount, uint256 tokens) internal {\n    token.mint(buyer, tokens);\n    TokenPurchase(msg.sender, buyer, weiAmount, tokens, now);\n  }\n\n  // This was created to be overriden by stages implementation\n  // It will adjust the stage sliders accordingly if needed\n  function finalizeSale(uint256 _weiAmount, uint256 _tokens) internal {\n    // Collect ETH and send them a token in return\n    balanceOf[msg.sender] = balanceOf[msg.sender].add(_weiAmount);\n    tokenBalanceOf[msg.sender] = tokenBalanceOf[msg.sender].add(_tokens);\n\n    // update state\n    weiRaised = weiRaised.add(_weiAmount);\n    tokensSent = tokensSent.add(_tokens);\n  }\n  \n  // This was created to be overridden by the stages implementation\n  // Again, this is dependent on the price of tokens which may or may not be collected in stages\n  function tokensToRecieve(uint256 _wei) internal view returns (uint256 tokens) {\n    return _wei.div(rate);\n  }\n\n  // send ether to the fund collection wallet\n  // override to create custom fund forwarding mechanisms\n  function successfulWithdraw() external onlyOwner stopInEmergency {\n    require(hasEnded());\n\n    beneficiary.transfer(weiRaised);\n    BeneficiaryWithdrawal(msg.sender, weiRaised, now);\n  }\n\n  // @return true if the transaction can buy tokens\n  // Receives tokens to send as variable for custom stage implementation\n  // Has an unused variable _tokens which is necessary for capped sale implementation\n  function validPurchase(uint256 _tokens) internal view returns (bool) {\n    bool withinPeriod = now >= startTime && now <= endTime;\n    bool nonZeroPurchase = msg.value != 0;\n    return withinPeriod && nonZeroPurchase;\n  }\n\n  // @return true if crowdsale event has ended\n  function hasEnded() public view returns (bool) {\n    return now > endTime;\n  }\n}\n",
  "sourcePath": "/Users/jackpickering/Desktop/Development/Iconemy/create_basic_sale/contracts/Crowdsale.sol",
  "compiler": {
    "name": "solc",
    "version": "0.4.21+commit.dfe3193c.Emscripten.clang"
  },
  "schemaVersion": "2.0.0",
  "updatedAt": "2018-08-22T13:09:55.937Z"
}