{
  "contractName": "IconemySale",
  "abi": [
    {
      "constant": true,
      "inputs": [],
      "name": "name",
      "outputs": [
        {
          "name": "",
          "type": "string"
        }
      ],
      "payable": false,
      "stateMutability": "view",
      "type": "function"
    },
    {
      "constant": true,
      "inputs": [],
      "name": "reservedTokens",
      "outputs": [
        {
          "name": "",
          "type": "uint256"
        }
      ],
      "payable": false,
      "stateMutability": "view",
      "type": "function"
    },
    {
      "constant": true,
      "inputs": [],
      "name": "capInETH",
      "outputs": [
        {
          "name": "",
          "type": "bool"
        }
      ],
      "payable": false,
      "stateMutability": "view",
      "type": "function"
    },
    {
      "constant": true,
      "inputs": [],
      "name": "capped",
      "outputs": [
        {
          "name": "",
          "type": "bool"
        }
      ],
      "payable": false,
      "stateMutability": "view",
      "type": "function"
    },
    {
      "constant": true,
      "inputs": [],
      "name": "allocation",
      "outputs": [
        {
          "name": "",
          "type": "bool"
        }
      ],
      "payable": false,
      "stateMutability": "view",
      "type": "function"
    },
    {
      "constant": true,
      "inputs": [],
      "name": "saleId",
      "outputs": [
        {
          "name": "",
          "type": "uint256"
        }
      ],
      "payable": false,
      "stateMutability": "view",
      "type": "function"
    },
    {
      "inputs": [
        {
          "name": "_name",
          "type": "string"
        },
        {
          "name": "_capped",
          "type": "bool"
        },
        {
          "name": "_capInETH",
          "type": "bool"
        },
        {
          "name": "_saleId",
          "type": "uint256"
        },
        {
          "name": "_allocation",
          "type": "bool"
        }
      ],
      "payable": false,
      "stateMutability": "nonpayable",
      "type": "constructor"
    }
  ],
  "bytecode": "0x60606040526000600355341561001457600080fd5b6040516103d83803806103d88339810160405280805182019190602001805191906020018051919060200180519190602001805191506000905085805161005f9291602001906100a7565b5060018054600293909355901515620100000262ff0000199315156101000261ff001995151560ff199094169390931794909416919091179190911691909117905550610142565b828054600181600116156101000203166002900490600052602060002090601f016020900481019282601f106100e857805160ff1916838001178555610115565b82800160010185558215610115579182015b828111156101155782518255916020019190600101906100fa565b50610121929150610125565b5090565b61013f91905b80821115610121576000815560010161012b565b90565b610287806101516000396000f3006060604052600436106100775763ffffffff7c010000000000000000000000000000000000000000000000000000000060003504166306fdde03811461007c57806315a5534714610106578063266e0b1b1461012b5780635eb101c31461015257806388a17bde14610165578063c84c038714610178575b600080fd5b341561008757600080fd5b61008f61018b565b60405160208082528190810183818151815260200191508051906020019080838360005b838110156100cb5780820151838201526020016100b3565b50505050905090810190601f1680156100f85780820380516001836020036101000a031916815260200191505b509250505060405180910390f35b341561011157600080fd5b610119610229565b60405190815260200160405180910390f35b341561013657600080fd5b61013e61022f565b604051901515815260200160405180910390f35b341561015d57600080fd5b61013e61023d565b341561017057600080fd5b61013e610246565b341561018357600080fd5b610119610255565b60008054600181600116156101000203166002900480601f0160208091040260200160405190810160405280929190818152602001828054600181600116156101000203166002900480156102215780601f106101f657610100808354040283529160200191610221565b820191906000526020600020905b81548152906001019060200180831161020457829003601f168201915b505050505081565b60035481565b600154610100900460ff1681565b60015460ff1681565b60015462010000900460ff1681565b600254815600a165627a7a72305820945b5bae16e573db86387414fc3c952452b25b66e66cc9096671afcd0b4d1f150029",
  "source": "pragma solidity 0.4.21;\n\n/*\n * This token is part of Pickeringware ltds smart contracts\n * It is used to specify certain details about the token upon release\n */\n\ncontract IconemySale {\n  string public name;\n  bool public capped;\n  bool public capInETH;\n  bool public allocation;\n  uint256 public saleId;\n  uint256 public reservedTokens = 0;\n\n  // Changed implentation to include soft/hard caps\n  function IconemySale(string _name, bool _capped, bool _capInETH, uint256 _saleId, bool _allocation) public {\n    name = _name;\n    capped = _capped;\n    capInETH = _capInETH;\n    saleId = _saleId;\n    allocation = _allocation;\n  }\n}",
  "sourcePath": "/Users/jackpickering/Desktop/Development/Iconemy/create_basic_sale/contracts/IconemySale.sol",
  "compiler": {
    "name": "solc",
    "version": "0.4.21+commit.dfe3193c.Emscripten.clang"
  },
  "schemaVersion": "2.0.0",
  "updatedAt": "2018-08-22T13:07:48.949Z"
}