{
  "contractName": "KYCCrowdsale",
  "abi": [
    {
      "constant": true,
      "inputs": [],
      "name": "contractAddr",
      "outputs": [
        {
          "name": "",
          "type": "address"
        }
      ],
      "payable": false,
      "stateMutability": "view",
      "type": "function"
    },
    {
      "constant": true,
      "inputs": [],
      "name": "tokensSent",
      "outputs": [
        {
          "name": "",
          "type": "uint256"
        }
      ],
      "payable": false,
      "stateMutability": "view",
      "type": "function"
    },
    {
      "constant": true,
      "inputs": [],
      "name": "rate",
      "outputs": [
        {
          "name": "",
          "type": "uint256"
        }
      ],
      "payable": false,
      "stateMutability": "view",
      "type": "function"
    },
    {
      "constant": true,
      "inputs": [],
      "name": "endTime",
      "outputs": [
        {
          "name": "",
          "type": "uint256"
        }
      ],
      "payable": false,
      "stateMutability": "view",
      "type": "function"
    },
    {
      "constant": true,
      "inputs": [],
      "name": "beneficiary",
      "outputs": [
        {
          "name": "",
          "type": "address"
        }
      ],
      "payable": false,
      "stateMutability": "view",
      "type": "function"
    },
    {
      "constant": true,
      "inputs": [
        {
          "name": "_stage",
          "type": "uint8"
        }
      ],
      "name": "getStageCap",
      "outputs": [
        {
          "name": "cap",
          "type": "uint256"
        }
      ],
      "payable": false,
      "stateMutability": "view",
      "type": "function"
    },
    {
      "constant": true,
      "inputs": [],
      "name": "weiRaised",
      "outputs": [
        {
          "name": "",
          "type": "uint256"
        }
      ],
      "payable": false,
      "stateMutability": "view",
      "type": "function"
    },
    {
      "constant": false,
      "inputs": [],
      "name": "setPreallocations",
      "outputs": [],
      "payable": false,
      "stateMutability": "nonpayable",
      "type": "function"
    },
    {
      "constant": true,
      "inputs": [],
      "name": "stages",
      "outputs": [
        {
          "name": "stageCount",
          "type": "uint8"
        }
      ],
      "payable": false,
      "stateMutability": "view",
      "type": "function"
    },
    {
      "constant": true,
      "inputs": [],
      "name": "wallet",
      "outputs": [
        {
          "name": "",
          "type": "address"
        }
      ],
      "payable": false,
      "stateMutability": "view",
      "type": "function"
    },
    {
      "constant": true,
      "inputs": [],
      "name": "signerAddress",
      "outputs": [
        {
          "name": "",
          "type": "address"
        }
      ],
      "payable": false,
      "stateMutability": "view",
      "type": "function"
    },
    {
      "constant": false,
      "inputs": [],
      "name": "unsuccessfulWithdrawal",
      "outputs": [],
      "payable": false,
      "stateMutability": "nonpayable",
      "type": "function"
    },
    {
      "constant": true,
      "inputs": [
        {
          "name": "",
          "type": "address"
        }
      ],
      "name": "refundable",
      "outputs": [
        {
          "name": "",
          "type": "uint256"
        }
      ],
      "payable": false,
      "stateMutability": "view",
      "type": "function"
    },
    {
      "constant": true,
      "inputs": [],
      "name": "burntFounder",
      "outputs": [
        {
          "name": "",
          "type": "uint256"
        }
      ],
      "payable": false,
      "stateMutability": "view",
      "type": "function"
    },
    {
      "constant": true,
      "inputs": [
        {
          "name": "",
          "type": "address"
        }
      ],
      "name": "balanceOf",
      "outputs": [
        {
          "name": "",
          "type": "uint256"
        }
      ],
      "payable": false,
      "stateMutability": "view",
      "type": "function"
    },
    {
      "constant": true,
      "inputs": [
        {
          "name": "dataframe",
          "type": "bytes"
        }
      ],
      "name": "getKYCPayload",
      "outputs": [
        {
          "name": "whitelistedAddress",
          "type": "address"
        },
        {
          "name": "customerId",
          "type": "uint128"
        },
        {
          "name": "minEth",
          "type": "uint32"
        },
        {
          "name": "maxEth",
          "type": "uint32"
        }
      ],
      "payable": false,
      "stateMutability": "pure",
      "type": "function"
    },
    {
      "constant": true,
      "inputs": [
        {
          "name": "_stage",
          "type": "uint8"
        }
      ],
      "name": "getStageTokensSold",
      "outputs": [
        {
          "name": "sold",
          "type": "uint256"
        }
      ],
      "payable": false,
      "stateMutability": "view",
      "type": "function"
    },
    {
      "constant": true,
      "inputs": [],
      "name": "startTime",
      "outputs": [
        {
          "name": "",
          "type": "uint256"
        }
      ],
      "payable": false,
      "stateMutability": "view",
      "type": "function"
    },
    {
      "constant": false,
      "inputs": [
        {
          "name": "_newStart",
          "type": "uint256"
        }
      ],
      "name": "extendStart",
      "outputs": [],
      "payable": false,
      "stateMutability": "nonpayable",
      "type": "function"
    },
    {
      "constant": true,
      "inputs": [
        {
          "name": "",
          "type": "uint128"
        }
      ],
      "name": "balancePerID",
      "outputs": [
        {
          "name": "",
          "type": "uint256"
        }
      ],
      "payable": false,
      "stateMutability": "view",
      "type": "function"
    },
    {
      "constant": true,
      "inputs": [
        {
          "name": "_stage",
          "type": "uint8"
        }
      ],
      "name": "getStageDeadline",
      "outputs": [
        {
          "name": "deadline",
          "type": "uint256"
        }
      ],
      "payable": false,
      "stateMutability": "view",
      "type": "function"
    },
    {
      "constant": true,
      "inputs": [],
      "name": "owner",
      "outputs": [
        {
          "name": "",
          "type": "address"
        }
      ],
      "payable": false,
      "stateMutability": "view",
      "type": "function"
    },
    {
      "constant": true,
      "inputs": [],
      "name": "softCap",
      "outputs": [
        {
          "name": "",
          "type": "uint256"
        }
      ],
      "payable": false,
      "stateMutability": "view",
      "type": "function"
    },
    {
      "constant": false,
      "inputs": [
        {
          "name": "_stage",
          "type": "uint8"
        },
        {
          "name": "_price",
          "type": "uint256"
        }
      ],
      "name": "changePrice",
      "outputs": [],
      "payable": false,
      "stateMutability": "nonpayable",
      "type": "function"
    },
    {
      "constant": true,
      "inputs": [],
      "name": "burntBounty",
      "outputs": [
        {
          "name": "",
          "type": "uint256"
        }
      ],
      "payable": false,
      "stateMutability": "view",
      "type": "function"
    },
    {
      "constant": true,
      "inputs": [],
      "name": "canWithdraw",
      "outputs": [
        {
          "name": "",
          "type": "bool"
        }
      ],
      "payable": false,
      "stateMutability": "view",
      "type": "function"
    },
    {
      "constant": true,
      "inputs": [],
      "name": "halted",
      "outputs": [
        {
          "name": "",
          "type": "bool"
        }
      ],
      "payable": false,
      "stateMutability": "view",
      "type": "function"
    },
    {
      "constant": true,
      "inputs": [
        {
          "name": "_stage",
          "type": "uint8"
        }
      ],
      "name": "getStageMinimum",
      "outputs": [
        {
          "name": "min",
          "type": "uint256"
        }
      ],
      "payable": false,
      "stateMutability": "view",
      "type": "function"
    },
    {
      "constant": false,
      "inputs": [],
      "name": "successfulWithdraw",
      "outputs": [],
      "payable": false,
      "stateMutability": "nonpayable",
      "type": "function"
    },
    {
      "constant": true,
      "inputs": [
        {
          "name": "",
          "type": "address"
        }
      ],
      "name": "refunded",
      "outputs": [
        {
          "name": "",
          "type": "bool"
        }
      ],
      "payable": false,
      "stateMutability": "view",
      "type": "function"
    },
    {
      "constant": true,
      "inputs": [],
      "name": "withdrawn",
      "outputs": [
        {
          "name": "",
          "type": "uint256"
        }
      ],
      "payable": false,
      "stateMutability": "view",
      "type": "function"
    },
    {
      "constant": false,
      "inputs": [],
      "name": "stopICO",
      "outputs": [],
      "payable": false,
      "stateMutability": "nonpayable",
      "type": "function"
    },
    {
      "constant": true,
      "inputs": [
        {
          "name": "",
          "type": "address"
        }
      ],
      "name": "presaleBalanceOf",
      "outputs": [
        {
          "name": "",
          "type": "uint256"
        }
      ],
      "payable": false,
      "stateMutability": "view",
      "type": "function"
    },
    {
      "constant": true,
      "inputs": [
        {
          "name": "",
          "type": "address"
        }
      ],
      "name": "tokenBalanceOf",
      "outputs": [
        {
          "name": "",
          "type": "uint256"
        }
      ],
      "payable": false,
      "stateMutability": "view",
      "type": "function"
    },
    {
      "constant": false,
      "inputs": [],
      "name": "setStages",
      "outputs": [],
      "payable": false,
      "stateMutability": "nonpayable",
      "type": "function"
    },
    {
      "constant": true,
      "inputs": [],
      "name": "hasEnded",
      "outputs": [
        {
          "name": "",
          "type": "bool"
        }
      ],
      "payable": false,
      "stateMutability": "view",
      "type": "function"
    },
    {
      "constant": false,
      "inputs": [
        {
          "name": "newOwner",
          "type": "address"
        }
      ],
      "name": "transferOwnership",
      "outputs": [],
      "payable": false,
      "stateMutability": "nonpayable",
      "type": "function"
    },
    {
      "constant": true,
      "inputs": [],
      "name": "presaleWeiRaised",
      "outputs": [
        {
          "name": "",
          "type": "uint256"
        }
      ],
      "payable": false,
      "stateMutability": "view",
      "type": "function"
    },
    {
      "constant": true,
      "inputs": [
        {
          "name": "",
          "type": "address"
        }
      ],
      "name": "blacklist",
      "outputs": [
        {
          "name": "",
          "type": "bool"
        }
      ],
      "payable": false,
      "stateMutability": "view",
      "type": "function"
    },
    {
      "constant": true,
      "inputs": [
        {
          "name": "_stage",
          "type": "uint8"
        }
      ],
      "name": "getStagePrice",
      "outputs": [
        {
          "name": "price",
          "type": "uint256"
        }
      ],
      "payable": false,
      "stateMutability": "view",
      "type": "function"
    },
    {
      "constant": true,
      "inputs": [],
      "name": "hardCap",
      "outputs": [
        {
          "name": "",
          "type": "uint256"
        }
      ],
      "payable": false,
      "stateMutability": "view",
      "type": "function"
    },
    {
      "constant": true,
      "inputs": [],
      "name": "token",
      "outputs": [
        {
          "name": "",
          "type": "address"
        }
      ],
      "payable": false,
      "stateMutability": "view",
      "type": "function"
    },
    {
      "constant": true,
      "inputs": [],
      "name": "getStage",
      "outputs": [
        {
          "name": "stage",
          "type": "uint8"
        }
      ],
      "payable": false,
      "stateMutability": "view",
      "type": "function"
    },
    {
      "inputs": [
        {
          "name": "_startTime",
          "type": "uint256"
        },
        {
          "name": "_endTime",
          "type": "uint256"
        },
        {
          "name": "_rate",
          "type": "uint256"
        },
        {
          "name": "_wallet",
          "type": "address"
        },
        {
          "name": "_beneficiary",
          "type": "address"
        },
        {
          "name": "_buyer",
          "type": "address"
        },
        {
          "name": "_founders",
          "type": "address"
        },
        {
          "name": "_bounty",
          "type": "address"
        },
        {
          "name": "_softCap",
          "type": "uint256"
        },
        {
          "name": "_hardCap",
          "type": "uint256"
        },
        {
          "name": "_token",
          "type": "address"
        }
      ],
      "payable": false,
      "stateMutability": "nonpayable",
      "type": "constructor"
    },
    {
      "anonymous": false,
      "inputs": [
        {
          "indexed": false,
          "name": "signer",
          "type": "address"
        }
      ],
      "name": "SignerChanged",
      "type": "event"
    },
    {
      "anonymous": false,
      "inputs": [
        {
          "indexed": false,
          "name": "user",
          "type": "address"
        },
        {
          "indexed": false,
          "name": "amount",
          "type": "uint256"
        },
        {
          "indexed": false,
          "name": "datetime",
          "type": "uint256"
        }
      ],
      "name": "TokensReclaimed",
      "type": "event"
    },
    {
      "anonymous": false,
      "inputs": [
        {
          "indexed": false,
          "name": "user",
          "type": "address"
        },
        {
          "indexed": false,
          "name": "datetime",
          "type": "uint256"
        }
      ],
      "name": "AddedToBlacklist",
      "type": "event"
    },
    {
      "anonymous": false,
      "inputs": [
        {
          "indexed": false,
          "name": "user",
          "type": "address"
        },
        {
          "indexed": false,
          "name": "datetime",
          "type": "uint256"
        }
      ],
      "name": "RemovedFromBlacklist",
      "type": "event"
    },
    {
      "anonymous": false,
      "inputs": [
        {
          "indexed": false,
          "name": "user",
          "type": "address"
        },
        {
          "indexed": false,
          "name": "datetime",
          "type": "uint256"
        }
      ],
      "name": "RefundCollected",
      "type": "event"
    },
    {
      "anonymous": false,
      "inputs": [
        {
          "indexed": false,
          "name": "agent",
          "type": "address"
        },
        {
          "indexed": false,
          "name": "datetime",
          "type": "uint256"
        },
        {
          "indexed": false,
          "name": "bounty",
          "type": "uint256"
        },
        {
          "indexed": false,
          "name": "founders",
          "type": "uint256"
        }
      ],
      "name": "TokensReleased",
      "type": "event"
    },
    {
      "anonymous": false,
      "inputs": [
        {
          "indexed": false,
          "name": "participant",
          "type": "address"
        },
        {
          "indexed": false,
          "name": "amount",
          "type": "uint256"
        },
        {
          "indexed": false,
          "name": "datetime",
          "type": "uint256"
        }
      ],
      "name": "ParticipantWithdrawal",
      "type": "event"
    },
    {
      "anonymous": false,
      "inputs": [
        {
          "indexed": false,
          "name": "admin",
          "type": "address"
        },
        {
          "indexed": false,
          "name": "stage",
          "type": "uint8"
        },
        {
          "indexed": false,
          "name": "price",
          "type": "uint256"
        }
      ],
      "name": "StagePriceChanged",
      "type": "event"
    },
    {
      "anonymous": false,
      "inputs": [
        {
          "indexed": false,
          "name": "oldStart",
          "type": "uint256"
        },
        {
          "indexed": false,
          "name": "newStart",
          "type": "uint256"
        }
      ],
      "name": "ExtendedStart",
      "type": "event"
    },
    {
      "anonymous": false,
      "inputs": [
        {
          "indexed": false,
          "name": "admin",
          "type": "address"
        },
        {
          "indexed": false,
          "name": "amount",
          "type": "uint256"
        },
        {
          "indexed": false,
          "name": "datetime",
          "type": "uint256"
        }
      ],
      "name": "BeneficiaryWithdrawal",
      "type": "event"
    },
    {
      "anonymous": false,
      "inputs": [
        {
          "indexed": true,
          "name": "purchaser",
          "type": "address"
        },
        {
          "indexed": true,
          "name": "beneficiary",
          "type": "address"
        },
        {
          "indexed": false,
          "name": "value",
          "type": "uint256"
        },
        {
          "indexed": false,
          "name": "amount",
          "type": "uint256"
        },
        {
          "indexed": false,
          "name": "datetime",
          "type": "uint256"
        }
      ],
      "name": "TokenPurchase",
      "type": "event"
    },
    {
      "anonymous": false,
      "inputs": [
        {
          "indexed": false,
          "name": "owner",
          "type": "address"
        },
        {
          "indexed": false,
          "name": "datetime",
          "type": "uint256"
        }
      ],
      "name": "SaleStopped",
      "type": "event"
    },
    {
      "anonymous": false,
      "inputs": [
        {
          "indexed": true,
          "name": "previousOwner",
          "type": "address"
        },
        {
          "indexed": true,
          "name": "newOwner",
          "type": "address"
        }
      ],
      "name": "OwnershipTransferred",
      "type": "event"
    },
    {
      "constant": false,
      "inputs": [],
      "name": "setTokenAgent",
      "outputs": [],
      "payable": false,
      "stateMutability": "nonpayable",
      "type": "function"
    },
    {
      "constant": false,
      "inputs": [
        {
          "name": "participant",
          "type": "address"
        },
        {
          "name": "_stage1",
          "type": "uint256"
        },
        {
          "name": "_stage2",
          "type": "uint256"
        },
        {
          "name": "_stage3",
          "type": "uint256"
        },
        {
          "name": "_stage4",
          "type": "uint256"
        }
      ],
      "name": "refundParticipant",
      "outputs": [],
      "payable": false,
      "stateMutability": "nonpayable",
      "type": "function"
    },
    {
      "constant": false,
      "inputs": [
        {
          "name": "_bounty",
          "type": "uint256"
        },
        {
          "name": "_founders",
          "type": "uint256"
        }
      ],
      "name": "releaseTokens",
      "outputs": [],
      "payable": false,
      "stateMutability": "nonpayable",
      "type": "function"
    },
    {
      "constant": false,
      "inputs": [],
      "name": "collectRefund",
      "outputs": [],
      "payable": false,
      "stateMutability": "nonpayable",
      "type": "function"
    },
    {
      "constant": false,
      "inputs": [
        {
          "name": "dataframe",
          "type": "bytes"
        },
        {
          "name": "v",
          "type": "uint8"
        },
        {
          "name": "r",
          "type": "bytes32"
        },
        {
          "name": "s",
          "type": "bytes32"
        }
      ],
      "name": "buyWithKYCData",
      "outputs": [],
      "payable": true,
      "stateMutability": "payable",
      "type": "function"
    },
    {
      "constant": false,
      "inputs": [
        {
          "name": "_signerAddress",
          "type": "address"
        }
      ],
      "name": "setSignerAddress",
      "outputs": [],
      "payable": false,
      "stateMutability": "nonpayable",
      "type": "function"
    },
    {
      "constant": false,
      "inputs": [
        {
          "name": "_blacklisted",
          "type": "address"
        }
      ],
      "name": "removeFromBlacklist",
      "outputs": [],
      "payable": false,
      "stateMutability": "nonpayable",
      "type": "function"
    }
  ],
  "bytecode": "0x60606040526014805461ffff1916905534156200001b57600080fd5b604051610160806200280b833981016040528080519190602001805191906020018051919060200180519190602001805191906020018051919060200180519190602001805191906020018051919060200180519190602001805160008054600160a060020a03191633600160a060020a031617905591508b90508a8a8a8a8a8a8a8a8a8a8a8a8a8a8a878787878787878442851015620000bb57600080fd5b84841015620000c957600080fd5b60008311620000d757600080fd5b600160a060020a0382161515620000ed57600080fd5b60018054600160a060020a03808416600160a060020a0319928316179092556002879055600386905560068590556004805492851692909116919091179055620001458264010000000062001a31620002b082021704565b50505050506000821180156200015b5750600083115b80156200016757508183105b15156200017357600080fd5b50600e91909155600f55600060105560118054600160a060020a0390921661010002600160a860020a03199092169190911790555073__SaleStagesLib_________________________925063965f01e79150601290506040517c010000000000000000000000000000000000000000000000000000000063ffffffff8416028152600481019190915260240160006040518083038186803b15156200021857600080fd5b5af415156200022657600080fd5b506200024b91506012905060008d81808064010000000062001fad6200034082021704565b505060148054600160a060020a0394851662010000026201000060b060020a03199091161790555060158054918316600160a060020a03199283161790556016805493909216921691909117905550620003b69e505050505050505050505050505050565b60005433600160a060020a03908116911614620002cc57600080fd5b600160a060020a0381161515620002e257600080fd5b600054600160a060020a0380831691167f8be0079c531659141344cd1fd0a4f28419497f9722a3daafe3b4186f6b6457e060405160405180910390a360008054600160a060020a031916600160a060020a0392909216919091179055565b600019850160ff81166000908152602088905260409020548590106200036557600080fd5b5060ff948516600090815260208790526040812094855560018086019490945560028501556003840191909155600490920191909155918201805460ff198116908316909301909116919091179055565b61244580620003c66000396000f3006060604052600436106102425763ffffffff60e060020a600035041663046dc166811461024757806315a5d9d8146102685780631f1307611461029757806326654d57146102bc57806326ce3da0146102e75780632c4e722e146102fa5780633197cbb61461030d57806338af3eed146103205780633c20d1a5146103335780633f4dd2681461034c5780634042b66f146103655780634413a6881461037857806347d203731461038b578063521eb273146103b4578063537df3b6146103c75780635b7633d0146103e65780635edca2b4146103f957806368ec0d991461040c578063693e22791461042b57806370a082311461043e57806373752db41461045d578063756a288e146104fc57806378e97925146105155780637c6bd96d146105285780637db71fc41461053e57806388426aec146105665780638da5cb5b1461057f578063906a26e01461059257806391778b9c146105a55780639944d5e7146105c1578063b0891f4f146105d4578063b51459fe146105e7578063b9b8af0b1461060e578063bcdea6f914610621578063bdd304061461063a578063c033a4901461064d578063c80ec5221461066c578063c8e569a81461067f578063d7c7159c14610692578063dfc6fbaa146106e8578063e42c08f214610707578063e6ca0f4714610726578063ecb70fb714610739578063f2fde38b1461074c578063f7c00e2f1461076b578063f9f92be41461077e578063fb0cf7ab1461079d578063fb86a404146107b6578063fc0c546a146107c9578063fcaa7664146107dc575b600080fd5b341561025257600080fd5b610266600160a060020a03600435166107ef565b005b341561027357600080fd5b61027b61088e565b604051600160a060020a03909116815260200160405180910390f35b34156102a257600080fd5b6102aa61089d565b60405190815260200160405180910390f35b34156102c757600080fd5b610266600160a060020a03600435166024356044356064356084356108a3565b34156102f257600080fd5b610266610a8c565b341561030557600080fd5b6102aa610b6e565b341561031857600080fd5b6102aa610b74565b341561032b57600080fd5b61027b610b7a565b341561033e57600080fd5b6102aa60ff60043516610b8e565b341561035757600080fd5b610266600435602435610ba6565b341561037057600080fd5b6102aa610cc6565b341561038357600080fd5b610266610ccc565b341561039657600080fd5b61039e610d63565b60405160ff909116815260200160405180910390f35b34156103bf57600080fd5b61027b610d6c565b34156103d257600080fd5b610266600160a060020a0360043516610d7b565b34156103f157600080fd5b61027b610e2a565b341561040457600080fd5b610266610e39565b341561041757600080fd5b6102aa600160a060020a0360043516610f53565b341561043657600080fd5b6102aa610f65565b341561044957600080fd5b6102aa600160a060020a0360043516610f6b565b341561046857600080fd5b6104ae60046024813581810190830135806020601f82018190048102016040519081016040528181529291906020840183838082843750949650610f7d95505050505050565b604051600160a060020a0390941684526fffffffffffffffffffffffffffffffff909216602084015263ffffffff908116604080850191909152911660608301526080909101905180910390f35b341561050757600080fd5b6102aa60ff60043516611309565b341561052057600080fd5b6102aa611321565b341561053357600080fd5b610266600435611327565b341561054957600080fd5b6102aa6fffffffffffffffffffffffffffffffff60043516611412565b341561057157600080fd5b6102aa60ff60043516611424565b341561058a57600080fd5b61027b611439565b341561059d57600080fd5b6102aa611448565b34156105b057600080fd5b61026660ff6004351660243561144e565b34156105cc57600080fd5b6102aa6114d2565b34156105df57600080fd5b6102666114d8565b34156105f257600080fd5b6105fa611544565b604051901515815260200160405180910390f35b341561061957600080fd5b6105fa61154d565b341561062c57600080fd5b6102aa60ff6004351661155d565b341561064557600080fd5b610266611575565b341561065857600080fd5b6105fa600160a060020a036004351661169e565b341561067757600080fd5b6102aa6116b3565b341561068a57600080fd5b6102666116b9565b61026660046024813581810190830135806020601f820181900481020160405190810160405281815292919060208401838380828437509496505060ff853516946020810135945060400135925061173e915050565b34156106f357600080fd5b6102aa600160a060020a03600435166118cb565b341561071257600080fd5b6102aa600160a060020a03600435166118dd565b341561073157600080fd5b6102666118ef565b341561074457600080fd5b6105fa611a0f565b341561075757600080fd5b610266600160a060020a0360043516611a31565b341561077657600080fd5b6102aa611acc565b341561078957600080fd5b6105fa600160a060020a0360043516611ad2565b34156107a857600080fd5b6102aa60ff60043516611ae7565b34156107c157600080fd5b6102aa611aff565b34156107d457600080fd5b61027b611b05565b34156107e757600080fd5b61039e611b14565b60005433600160a060020a0390811691161461080a57600080fd5b600160a060020a038116151561081f57600080fd5b6019805473ffffffffffffffffffffffffffffffffffffffff1916600160a060020a0383811691909117918290557f5719a5656c5cfdaafa148ecf366fd3b0a7fae06449ce2a46225977fb7417e29d9116604051600160a060020a03909116815260200160405180910390a150565b600554600160a060020a031681565b60095481565b60008054819033600160a060020a039081169116146108c157600080fd5b600160a060020a0387166000908152600b6020526040812054116108e457600080fd5b5050600160a060020a0385166000908152600b602090815260408083208054600d8452828520805492869055859055601a9093529220819055600754909190610933908363ffffffff611b8116565b600755600954610949908263ffffffff611b8116565b600955600154600160a060020a0316632a724f2a8860405160e060020a63ffffffff8416028152600160a060020a039091166004820152602401600060405180830381600087803b151561099c57600080fd5b5af115156109a957600080fd5b505050600160a060020a0387166000908152601c602052604090819020805460ff191660011790557fc11da825993c0394a75762588c54907093a1361e6d6cb67950b28ba0010b8f39908890429051600160a060020a03909216825260208201526040908101905180910390a1610a2a60128787878763ffffffff611b9316565b7fa06cc0a3867aea08c9e799994171a2eaa01b0db6891bff21ff54cc2639d3e6788782426040518084600160a060020a0316600160a060020a03168152602001838152602001828152602001935050505060405180910390a150505050505050565b600160a060020a0333166000908152601a6020526040812054819011610ab157600080fd5b600160a060020a0333166000908152601b602052604090205460ff1615610ad757600080fd5b50600160a060020a0333166000818152601a602090815260408083208054939055601b90915290919082156108fc0290839051600060405180830381858888f193505050501515610b2757600080fd5b7f1e62ddfe8c731f66f6b6294434d45407c080972bd05b50d1745257de2220a4e43342604051600160a060020a03909216825260208201526040908101905180910390a150565b60065481565b60035481565b6011546101009004600160a060020a031681565b60ff1660009081526012602052604090206004015490565b60005433600160a060020a03908116911614610bc157600080fd5b6000821180610bd35750600f54600954145b1515610bde57600080fd5b6000811180610bf05750600f54600954145b1515610bfb57600080fd5b610c058282611c6a565b600154600160a060020a0316635f412d4f6040518163ffffffff1660e060020a028152600401600060405180830381600087803b1515610c4457600080fd5b5af11515610c5157600080fd5b50506011805460ff19166001179055507f8b81fe67377346f7a0a4a369e94f00c5ae54efa1ff15df40b4d54554e164525a334284846040518085600160a060020a0316600160a060020a0316815260200184815260200183815260200182815260200194505050505060405180910390a15050565b60075481565b60005433600160a060020a03908116911614610ce757600080fd5b60145460ff168015610cf857600080fd5b601654610d1790600160a060020a0316621312d06402540be400611d7f565b601454610d3890620100009004600160a060020a0316621b20716000611d7f565b601554610d5390600160a060020a03166206c81d6000611d7f565b506014805460ff19166001179055565b60135460ff1681565b600454600160a060020a031681565b60005433600160a060020a03908116911614610d9657600080fd5b600160a060020a0381166000908152601c602052604090205460ff161515600114610dc057600080fd5b600160a060020a0381166000908152601c602052604090819020805460ff191690557fa231666d2d1aeb79bb1f0db1a8c9bfc28af2eed3f0a9b68ed157c46ba782c3eb908290429051600160a060020a03909216825260208201526040908101905180910390a150565b601954600160a060020a031681565b600160a060020a0333166000908152600b6020526040812054819011610e5e57600080fd5b610e66611a0f565b8015610e755750600e54600954105b80610e835750610e83611ea6565b1515610e8e57600080fd5b50600160a060020a0333166000818152600b6020526040808220805492905590919082156108fc0290839051600060405180830381858888f193505050501515610ed757600080fd5b600160a060020a0333166000908152600b602052604090205415610ef757fe5b7f399cf6f6b4834b62adc1e73a85b69f3eea1c55f32d09057693655aab33e8b5423382426040518084600160a060020a0316600160a060020a03168152602001838152602001828152602001935050505060405180910390a150565b601a6020526000908152604090205481565b60185481565b600b6020526000908152604090205481565b60008080808080808073__BytesDeserializer_____________________63b655e1388a836040518363ffffffff1660e060020a0281526004018080602001838152602001828103825284818151815260200191508051906020019080838360005b83811015610ff7578082015183820152602001610fdf565b50505050905090810190601f1680156110245780820380516001836020036101000a031916815260200191505b50935050505060206040518083038186803b151561104157600080fd5b5af4151561104e57600080fd5b5050506040518051945073__BytesDeserializer_____________________90506316419aa78a60146040518363ffffffff1660e060020a0281526004018080602001838152602001828103825284818151815260200191508051906020019080838360005b838110156110cc5780820151838201526020016110b4565b50505050905090810190601f1680156110f95780820380516001836020036101000a031916815260200191505b50935050505060206040518083038186803b151561111657600080fd5b5af4151561112357600080fd5b50505060405180517001000000000000000000000000000000009004935073__BytesDeserializer_____________________905063d54dd8f98a60246040518363ffffffff1660e060020a0281526004018080602001838152602001828103825284818151815260200191508051906020019080838360005b838110156111b557808201518382015260200161119d565b50505050905090810190601f1680156111e25780820380516001836020036101000a031916815260200191505b50935050505060206040518083038186803b15156111ff57600080fd5b5af4151561120c57600080fd5b505050604051805160e060020a9004925073__BytesDeserializer_____________________905063d54dd8f98a60286040518363ffffffff1660e060020a0281526004018080602001838152602001828103825284818151815260200191508051906020019080838360005b83811015611291578082015183820152602001611279565b50505050905090810190601f1680156112be5780820380516001836020036101000a031916815260200191505b50935050505060206040518083038186803b15156112db57600080fd5b5af415156112e857600080fd5b5050506040518051949a9399509197505060e060020a909204945092505050565b60ff1660009081526012602052604090206002015490565b60025481565b6000805481908190819033600160a060020a0390811691161461134957600080fd5b600254851161135757600080fd5b42851161136357600080fd5b600254421061137157600080fd5b60028054908690556003805482880390810190915594509250600091505b60048260ff1610156113d1575060ff81166000908152601260208190526040909120548401906113c690838363ffffffff611eb616565b60019091019061138f565b7fb03c6e4d98649731c861f3ac1560370eb9b13fe3950dbe318f413df44aecc1fd838660405191825260208201526040908101905180910390a15050505050565b600a6020526000908152604090205481565b60ff1660009081526012602052604090205490565b600054600160a060020a031681565b600e5481565b60005433600160a060020a0390811691161461146957600080fd5b61147b6012838363ffffffff611eed16565b7f3c943c1401d461f1e9a9793a341ba4f600dc3643686cb337621026d523049715338383604051600160a060020a03909316835260ff90911660208301526040808301919091526060909101905180910390a15050565b60175481565b60005433600160a060020a039081169116146114f357600080fd5b600154600160a060020a0316633e96d28e6040518163ffffffff1660e060020a028152600401600060405180830381600087803b151561153257600080fd5b5af1151561153f57600080fd5b505050565b60115460ff1681565b60005460a060020a900460ff1681565b60ff1660009081526012602052604090206003015490565b6000805433600160a060020a0390811691161461159157600080fd5b60005460a060020a900460ff16156115a857600080fd5b6115b0611a0f565b15156115bb57600080fd5b60115460ff1615156115cc57600080fd5b600e54600954116115dc57600080fd5b6010546007546115f19163ffffffff611b8116565b601054909150611607908263ffffffff611f2716565b6010556011546101009004600160a060020a03166108fc82150282604051600060405180830381858888f19350505050151561164257600080fd5b7f9f7cbddba892cf26a7cd63d61d3c8d085df04bbbe7601e53311038ca6dab196b3382426040518084600160a060020a0316600160a060020a03168152602001838152602001828152602001935050505060405180910390a150565b601b6020526000908152604090205460ff1681565b60105481565b60005433600160a060020a039081169116146116d457600080fd5b6000805474ff0000000000000000000000000000000000000000191660a060020a1790557f4898556e3bd8b06263e50e938f30f736c1fd2030390474dd6bc0b28d8c5450373342604051600160a060020a03909216825260208201526040908101905180910390a1565b60008060008060008060008060028c6040518082805190602001908083835b6020831061177c5780518252601f19909201916020918201910161175d565b6001836020036101000a0380198251168184511680821785525050505050509050019150506020604051808303816000865af115156117ba57600080fd5b50506040518051905097506117ce8c610f7d565b601954939a5091985096509450600160a060020a03166001898d8d8d6040516000815260200160405260405193845260ff9092166020808501919091526040808501929092526060840192909252608090920191516020810390808403906000865af1151561183c57600080fd5b505060206040510351600160a060020a03161461185857600080fd5b33600160a060020a031687600160a060020a031614151561187857600080fd5b503491505063ffffffff808316908416670de0b6b3a76400008202831061189e57600080fd5b670de0b6b3a7640000810283116118b457600080fd5b6118bd86611f3d565b505050505050505050505050565b600c6020526000908152604090205481565b600d6020526000908152604090205481565b60005433600160a060020a0390811691161461190a57600080fd5b601454610100900460ff16801561192057600080fd5b61195c600161193d62093a80600254611f2790919063ffffffff16565b601291906402540be400629896806428bed0160063ffffffff611fad16565b611998600261197962127500600254611f2790919063ffffffff16565b6012919064028fa6ae00624c4b406445d964b80063ffffffff611fad16565b6119d460036119b56224ea00600254611f2790919063ffffffff16565b601291906402cb417800622625a06485e0abb60063ffffffff611fad16565b6003546119fd9060129060049064037e11d600620f42406501d1a94a200063ffffffff611fad16565b506014805461ff001916610100179055565b600f54600954600091901015611a23612022565b80611a2b5750805b91505090565b60005433600160a060020a03908116911614611a4c57600080fd5b600160a060020a0381161515611a6157600080fd5b600054600160a060020a0380831691167f8be0079c531659141344cd1fd0a4f28419497f9722a3daafe3b4186f6b6457e060405160405180910390a36000805473ffffffffffffffffffffffffffffffffffffffff1916600160a060020a0392909216919091179055565b60085481565b601c6020526000908152604090205460ff1681565b60ff1660009081526012602052604090206001015490565b600f5481565b600154600160a060020a031681565b600073__SaleStagesLib_________________________63922d38be601260405160e060020a63ffffffff8416028152600481019190915260240160206040518083038186803b1515611b6657600080fd5b5af41515611b7357600080fd5b505050604051805191505090565b600082821115611b8d57fe5b50900390565b6001600090815260208690526040902060020154611bb7908563ffffffff611b8116565b600160009081526020879052604080822060029081019390935582825290200154611be8908463ffffffff611b8116565b600260008181526020889052604080822083019390935560038152919091200154611c19908363ffffffff611b8116565b60036000908152602087905260408082206002908101939093556004825290200154611c4b908263ffffffff611b8116565b6004600090815260209690965260409095206002019490945550505050565b642964606ca08110611c7b57600080fd5b640a591940208210611c8c57600080fd5b60188190556017829055600154601454600160a060020a039182169163fb920ad191620100009004168360405160e060020a63ffffffff8516028152600160a060020a0390921660048301526024820152604401600060405180830381600087803b1515611cf957600080fd5b5af11515611d0657600080fd5b5050600154601554601754600160a060020a03928316935063fb920ad1929091169060405160e060020a63ffffffff8516028152600160a060020a0390921660048301526024820152604401600060405180830381600087803b1515611d6b57600080fd5b5af11515611d7857600080fd5b5050505050565b60015460009081908190600160a060020a031663313ce5676040518163ffffffff1660e060020a028152600401602060405180830381600087803b1515611dc557600080fd5b5af11515611dd257600080fd5b5050506040518051905060ff16925082600a0a850291508484029050611e0381600854611f2790919063ffffffff16565b600855600954611e19908363ffffffff611f2716565b600955600160a060020a0386166000908152600d6020526040902054611e45908363ffffffff611f2716565b600160a060020a0387166000908152600d6020908152604080832093909355600c90522054611e7a908263ffffffff611f2716565b600160a060020a0387166000908152600c6020526040902055611e9e86828461202a565b505050505050565b60005460a060020a900460ff1690565b60ff8216600090815260208490526040902054429011611ed557600080fd5b60ff9091166000908152602092909252604090912055565b60ff8216600090815260208490526040902054429011611f0c57600080fd5b60ff9091166000908152602092909252604090912060010155565b600082820183811015611f3657fe5b9392505050565b60008054819060a060020a900460ff1615611f5757600080fd5b6fffffffffffffffffffffffffffffffff83161515611f7557600080fd5b349150611f81826120f7565b9050611f8c81612129565b1515611f9757600080fd5b611fa2828285612174565b61153f33838361202a565b600019850160ff8116600090815260208890526040902054859010611fd157600080fd5b5060ff948516600090815260208790526040812094855560018086019490945560028501556003840191909155600490920191909155918201805460ff198116908316909301909116919091179055565b600354421190565b600154600160a060020a03166340c10f19848360405160e060020a63ffffffff8516028152600160a060020a0390921660048301526024820152604401602060405180830381600087803b151561208057600080fd5b5af1151561208d57600080fd5b505050604051805190505082600160a060020a031633600160a060020a03167efe0e12b43090c1fc19a34aefa5cc138a4eeafc60ab800f855c730b3fb9480e84844260405180848152602001838152602001828152602001935050505060405180910390a3505050565b6000806000612104611b14565b915061210f82611ae7565b9050612121848263ffffffff6122b716565b949350505050565b600160a060020a0333166000908152601c6020526040812054819060ff161515600114156121595750600161215d565b5060005b612166836122ce565b8015611f3657501592915050565b600160a060020a0333166000908152600b602052604081205461219d908563ffffffff611f2716565b600160a060020a0333166000908152600b6020908152604080832093909355600d905220546121d2908463ffffffff611f2716565b600160a060020a0333166000908152600d60209081526040808320939093556fffffffffffffffffffffffffffffffff85168252600a9052205461221c908563ffffffff611f2716565b6fffffffffffffffffffffffffffffffff83166000908152600a6020526040902055600754612251908563ffffffff611f2716565b600755600954612267908463ffffffff611f2716565b600955612272611b14565b60ff811660009081526012602052604090206002015490915061229b908463ffffffff611f2716565b60ff909116600090815260126020526040902060020155505050565b60008082848115156122c557fe5b04949350505050565b600080806122da611b14565b90506122ee6012828663ffffffff61232916565b801561230757506123076012828663ffffffff61235816565b1561231157600191505b61231a846123b6565b80156121215750909392505050565b60ff821660009081526020849052604081206003015482101561234e57506000611f36565b5060019392505050565b60ff82166000908152602084905260408120600201548190612380908463ffffffff611f2716565b60ff85166000908152602087905260409020600401549091508111156123a957600091506123ae565b600191505b509392505050565b600080600f546123d184600954611f2790919063ffffffff16565b111590506123de836123eb565b8015611f36575092915050565b6000806000600254421015801561240457506003544211155b915050341515818015612121575093925050505600a165627a7a72305820c79d86a5bb04977f88ff03df265432d906df72c3ba4cb77d280e71bef8c565190029",
  "source": "pragma solidity 0.4.21;\n\n/**\n * This smart contract code is Copyright 2017 TokenMarket Ltd. For more information see https://tokenmarket.net\n *\n * Licensed under the Apache License, version 2.0: https://github.com/TokenMarketNet/ico/blob/master/LICENSE.txt\n *\n * Some implementation has been changed by Pickeringware ltd to achieve custom features\n */\n\nimport \"./KYCPayloadDeserializer.sol\";\nimport \"./PickCrowdsale.sol\";\n\n/*\n * A crowdsale that allows only signed payload with server-side specified buy in limits.\n *\n * The token distribution happens as in the allocated crowdsale contract\n */\ncontract KYCCrowdsale is KYCPayloadDeserializer, PickCrowdsale {\n\n  /* Server holds the private key to this address to decide if the AML payload is valid or not. */\n  address public signerAddress;\n  mapping(address => uint256) public refundable;\n  mapping(address => bool) public refunded;\n  mapping(address => bool) public blacklist;\n\n  /* A new server-side signer key was set to be effective */\n  event SignerChanged(address signer);\n  event TokensReclaimed(address user, uint256 amount, uint256 datetime);\n  event AddedToBlacklist(address user, uint256 datetime);\n  event RemovedFromBlacklist(address user, uint256 datetime);\n  event RefundCollected(address user, uint256 datetime);\n  event TokensReleased(address agent, uint256 datetime, uint256 bounty, uint256 founders);\n\n  /*\n   * Constructor.\n   */\n  function KYCCrowdsale(uint256 _startTime, uint256 _endTime, uint256 _rate, address _wallet, address _beneficiary, address _buyer, address _founders, address _bounty, uint256 _softCap, uint256 _hardCap, PickToken _token) public\n  PickCrowdsale(_startTime, _endTime, _rate, _wallet, _beneficiary, _buyer, _founders, _bounty, _softCap, _hardCap, _token)\n  {}\n\n  // This sets the token agent to the contract, allowing the contract to reclaim and burn tokens if necessary\n  function setTokenAgent() external onlyOwner {\n    // contractAddr = token.owner();\n    // Give the sale contract rights to reclaim tokens\n    token.setReleaseAgent();\n  }\n\n /* \n  * This function was written by Pickeringware ltd to facilitate a refund action upon failure of KYC analysis\n  * \n  * It simply allows the participant to withdraw his ether from the sale\n  * Moves the crowdsale sliders accordingly\n  * Reclaims the users tokens and burns them\n  * Blacklists the user to prevent them from buying any more tokens\n  *\n  * Stage 1, 2, 3, & 4 are all collected from the database prior to calling this function\n  * It allows us to calculate how many tokens need to be taken from each individual stage\n  */\n  function refundParticipant(address participant, uint256 _stage1, uint256 _stage2, uint256 _stage3, uint256 _stage4) external onlyOwner {\n    require(balanceOf[participant] > 0);\n\n    uint256 balance = balanceOf[participant];\n    uint256 tokens = tokenBalanceOf[participant];\n\n    balanceOf[participant] = 0;\n    tokenBalanceOf[participant] = 0;\n\n    // Refund the participant\n    refundable[participant] = balance;\n\n    // Move the crowdsale sliders\n    weiRaised = weiRaised.sub(balance);\n    tokensSent = tokensSent.sub(tokens);\n\n    // Reclaim the participants tokens and burn them\n    token.reclaimAllAndBurn(participant);\n\n    // Blacklist participant so they cannot make further purchases\n    blacklist[participant] = true;\n    AddedToBlacklist(participant, now);\n\n    stages.refundParticipant(_stage1, _stage2, _stage3, _stage4);\n\n    TokensReclaimed(participant, tokens, now);\n  }\n\n  // Allows only the beneficiary to release tokens to people\n  // This is needed as the token is owned by the contract, in order to mint tokens\n  // therefore, the owner essentially gives permission for the contract to release tokens\n  function releaseTokens(uint256 _bounty, uint256 _founders) onlyOwner external {\n      // Unless the hardcap was reached, theremust be tokens to burn\n      require(_bounty > 0 || tokensSent == hardCap);\n      require(_founders > 0 || tokensSent == hardCap);\n\n      burnFoundersTokens(_bounty, _founders);\n\n      token.releaseTokenTransfer();\n\n      canWithdraw = true;\n\n      TokensReleased(msg.sender, now, _bounty, _founders);\n  }\n  \n  // overriding Crowdsale#validPurchase to add extra KYC blacklist logic\n  // @return true if investors can buy at the moment\n  function validPurchase(uint256 _tokens) internal view returns (bool) {\n    bool onBlackList;\n\n    if(blacklist[msg.sender] == true){\n      onBlackList = true;\n    } else {\n      onBlackList = false;\n    }\n    return super.validPurchase(_tokens) && !onBlackList;\n  }\n\n  // This is necessary for the blacklisted user to pull his ether from the contract upon being refunded\n  function collectRefund() external {\n    require(refundable[msg.sender] > 0);\n    require(refunded[msg.sender] == false);\n\n    uint256 theirwei = refundable[msg.sender];\n    refundable[msg.sender] = 0;\n    refunded[msg.sender] == true;\n\n    msg.sender.transfer(theirwei);\n\n    RefundCollected(msg.sender, now);\n  }\n\n  /*\n   * A token purchase with anti-money laundering and KYC checks\n   * This function takes in a dataframe and EC signature to verify if the purchaser has been verified\n   * on the server side of our application and has therefore, participated in KYC. \n   * Upon registering to the site, users are supplied with a signature allowing them to purchase tokens, \n   * which can be revoked at any time, this containst their ETH address, a unique ID and the min and max \n   * ETH that user has stated they will purchase. (Any more than the max may be subject to AML checks).\n   */\n  function buyWithKYCData(bytes dataframe, uint8 v, bytes32 r, bytes32 s) public payable {\n\n      bytes32 hash = sha256(dataframe);\n\n      address whitelistedAddress;\n      uint128 customerId;\n      uint32 minETH;\n      uint32 maxETH;\n      \n      (whitelistedAddress, customerId, minETH, maxETH) = getKYCPayload(dataframe);\n\n      // Check that the KYC data is signed by our server\n      require(ecrecover(hash, v, r, s) == signerAddress);\n\n      // Check that the user is using his own signature\n      require(whitelistedAddress == msg.sender);\n\n      // Check they are buying within their limits - THIS IS ONLY NEEDED IF SPECIFIED BY REGULATORS\n      uint256 weiAmount = msg.value;\n      uint256 max = maxETH;\n      uint256 min = minETH;\n\n      require(weiAmount < (max * 1 ether));\n      require(weiAmount > (min * 1 ether));\n\n      buyTokens(customerId);\n  }  \n\n  /// @dev This function can set the server side address\n  /// @param _signerAddress The address derived from server's private key\n  function setSignerAddress(address _signerAddress) external onlyOwner {\n    // EC rcover returns 0 in case of error therefore, this CANNOT be 0.\n    require(_signerAddress != 0);\n    signerAddress = _signerAddress;\n    SignerChanged(signerAddress);\n  }\n\n  function removeFromBlacklist(address _blacklisted) external onlyOwner {\n    require(blacklist[_blacklisted] == true);\n    blacklist[_blacklisted] = false;\n    RemovedFromBlacklist(_blacklisted, now);\n  }\n\n}",
  "sourcePath": "/Users/jackpickering/Desktop/Development/AX1 versions/AX1_portal_staging/contracts/KYCCrowdsale.sol",
  "compiler": {
    "name": "solc",
    "version": "0.4.21+commit.dfe3193c.Emscripten.clang"
  },
  "schemaVersion": "2.0.0",
  "updatedAt": "2018-04-04T17:12:25.974Z"
}