{
  "contractName": "Migrations",
  "abi": [
    {
      "constant": true,
      "inputs": [],
      "name": "owner",
      "outputs": [
        {
          "name": "",
          "type": "address"
        }
      ],
      "payable": false,
      "stateMutability": "view",
      "type": "function"
    },
    {
      "constant": true,
      "inputs": [],
      "name": "lastCompletedMigration",
      "outputs": [
        {
          "name": "",
          "type": "uint256"
        }
      ],
      "payable": false,
      "stateMutability": "view",
      "type": "function"
    },
    {
      "inputs": [],
      "payable": false,
      "stateMutability": "nonpayable",
      "type": "constructor"
    },
    {
      "constant": false,
      "inputs": [
        {
          "name": "completed",
          "type": "uint256"
        }
      ],
      "name": "setCompleted",
      "outputs": [],
      "payable": false,
      "stateMutability": "nonpayable",
      "type": "function"
    },
    {
      "constant": false,
      "inputs": [
        {
          "name": "new_address",
          "type": "address"
        }
      ],
      "name": "upgrade",
      "outputs": [],
      "payable": false,
      "stateMutability": "nonpayable",
      "type": "function"
    }
  ],
  "bytecode": "0x6060604052341561000f57600080fd5b60008054600160a060020a033316600160a060020a03199091161790556102318061003b6000396000f3006060604052600436106100615763ffffffff7c01000000000000000000000000000000000000000000000000000000006000350416630900f01081146100665780638da5cb5b14610094578063fbdbad3c146100d0578063fdacd576146100f5575b600080fd5b341561007157600080fd5b61009273ffffffffffffffffffffffffffffffffffffffff6004351661010b565b005b341561009f57600080fd5b6100a76101b6565b60405173ffffffffffffffffffffffffffffffffffffffff909116815260200160405180910390f35b34156100db57600080fd5b6100e36101d2565b60405190815260200160405180910390f35b341561010057600080fd5b6100926004356101d8565b600080543373ffffffffffffffffffffffffffffffffffffffff908116911614156101b2578190508073ffffffffffffffffffffffffffffffffffffffff1663fdacd5766001546040517c010000000000000000000000000000000000000000000000000000000063ffffffff84160281526004810191909152602401600060405180830381600087803b15156101a157600080fd5b5af115156101ae57600080fd5b5050505b5050565b60005473ffffffffffffffffffffffffffffffffffffffff1681565b60015481565b6000543373ffffffffffffffffffffffffffffffffffffffff908116911614156102025760018190555b505600a165627a7a72305820a135e6e4733e4511246620c1bd1b1de4275301784665a7f8d5274768a13da1790029",
  "source": "pragma solidity ^0.4.2;\n\ncontract Migrations {\n    address public owner;\n    uint public lastCompletedMigration;\n\n    modifier restricted() {\n        if (msg.sender == owner) _;\n    }\n\n    function Migrations() public {\n        owner = msg.sender;\n    }\n\n    function setCompleted(uint completed) public restricted {\n        lastCompletedMigration = completed;\n    }\n\n    function upgrade(address new_address) public restricted {\n        Migrations upgraded = Migrations(new_address);\n        upgraded.setCompleted(lastCompletedMigration);\n    }\n}\n",
  "sourcePath": "/Users/jackpickering/Desktop/Development/Iconemy/create_basic_sale/contracts/Migrations.sol",
  "compiler": {
    "name": "solc",
    "version": "0.4.21+commit.dfe3193c.Emscripten.clang"
  },
  "schemaVersion": "2.0.0",
  "updatedAt": "2018-08-22T13:09:55.931Z"
}