{
  "contractName": "MintableToken",
  "abi": [
    {
      "constant": false,
      "inputs": [
        {
          "name": "addr",
          "type": "address"
        },
        {
          "name": "state",
          "type": "bool"
        }
      ],
      "name": "setTransferAgent",
      "outputs": [],
      "payable": false,
      "stateMutability": "nonpayable",
      "type": "function"
    },
    {
      "constant": true,
      "inputs": [],
      "name": "mintingFinished",
      "outputs": [
        {
          "name": "",
          "type": "bool"
        }
      ],
      "payable": false,
      "stateMutability": "view",
      "type": "function"
    },
    {
      "constant": false,
      "inputs": [
        {
          "name": "_spender",
          "type": "address"
        },
        {
          "name": "_value",
          "type": "uint256"
        }
      ],
      "name": "approve",
      "outputs": [
        {
          "name": "",
          "type": "bool"
        }
      ],
      "payable": false,
      "stateMutability": "nonpayable",
      "type": "function"
    },
    {
      "constant": true,
      "inputs": [],
      "name": "totalSupply",
      "outputs": [
        {
          "name": "",
          "type": "uint256"
        }
      ],
      "payable": false,
      "stateMutability": "view",
      "type": "function"
    },
    {
      "constant": false,
      "inputs": [
        {
          "name": "_from",
          "type": "address"
        },
        {
          "name": "_to",
          "type": "address"
        },
        {
          "name": "_value",
          "type": "uint256"
        }
      ],
      "name": "transferFrom",
      "outputs": [
        {
          "name": "success",
          "type": "bool"
        }
      ],
      "payable": false,
      "stateMutability": "nonpayable",
      "type": "function"
    },
    {
      "constant": false,
      "inputs": [],
      "name": "setReleaseAgent",
      "outputs": [],
      "payable": false,
      "stateMutability": "nonpayable",
      "type": "function"
    },
    {
      "constant": false,
      "inputs": [],
      "name": "releaseTokenTransfer",
      "outputs": [],
      "payable": false,
      "stateMutability": "nonpayable",
      "type": "function"
    },
    {
      "constant": false,
      "inputs": [
        {
          "name": "_spender",
          "type": "address"
        },
        {
          "name": "_subtractedValue",
          "type": "uint256"
        }
      ],
      "name": "decreaseApproval",
      "outputs": [
        {
          "name": "",
          "type": "bool"
        }
      ],
      "payable": false,
      "stateMutability": "nonpayable",
      "type": "function"
    },
    {
      "constant": true,
      "inputs": [
        {
          "name": "_owner",
          "type": "address"
        }
      ],
      "name": "balanceOf",
      "outputs": [
        {
          "name": "balance",
          "type": "uint256"
        }
      ],
      "payable": false,
      "stateMutability": "view",
      "type": "function"
    },
    {
      "constant": true,
      "inputs": [
        {
          "name": "",
          "type": "address"
        }
      ],
      "name": "transferAgents",
      "outputs": [
        {
          "name": "",
          "type": "bool"
        }
      ],
      "payable": false,
      "stateMutability": "view",
      "type": "function"
    },
    {
      "constant": true,
      "inputs": [],
      "name": "owner",
      "outputs": [
        {
          "name": "",
          "type": "address"
        }
      ],
      "payable": false,
      "stateMutability": "view",
      "type": "function"
    },
    {
      "constant": true,
      "inputs": [],
      "name": "released",
      "outputs": [
        {
          "name": "",
          "type": "bool"
        }
      ],
      "payable": false,
      "stateMutability": "view",
      "type": "function"
    },
    {
      "constant": false,
      "inputs": [
        {
          "name": "_to",
          "type": "address"
        },
        {
          "name": "_value",
          "type": "uint256"
        }
      ],
      "name": "transfer",
      "outputs": [
        {
          "name": "success",
          "type": "bool"
        }
      ],
      "payable": false,
      "stateMutability": "nonpayable",
      "type": "function"
    },
    {
      "constant": true,
      "inputs": [],
      "name": "releaseAgent",
      "outputs": [
        {
          "name": "",
          "type": "address"
        }
      ],
      "payable": false,
      "stateMutability": "view",
      "type": "function"
    },
    {
      "constant": false,
      "inputs": [
        {
          "name": "_spender",
          "type": "address"
        },
        {
          "name": "_addedValue",
          "type": "uint256"
        }
      ],
      "name": "increaseApproval",
      "outputs": [
        {
          "name": "",
          "type": "bool"
        }
      ],
      "payable": false,
      "stateMutability": "nonpayable",
      "type": "function"
    },
    {
      "constant": true,
      "inputs": [
        {
          "name": "_owner",
          "type": "address"
        },
        {
          "name": "_spender",
          "type": "address"
        }
      ],
      "name": "allowance",
      "outputs": [
        {
          "name": "",
          "type": "uint256"
        }
      ],
      "payable": false,
      "stateMutability": "view",
      "type": "function"
    },
    {
      "constant": false,
      "inputs": [
        {
          "name": "newOwner",
          "type": "address"
        }
      ],
      "name": "transferOwnership",
      "outputs": [],
      "payable": false,
      "stateMutability": "nonpayable",
      "type": "function"
    },
    {
      "anonymous": false,
      "inputs": [
        {
          "indexed": true,
          "name": "to",
          "type": "address"
        },
        {
          "indexed": false,
          "name": "amount",
          "type": "uint256"
        }
      ],
      "name": "Mint",
      "type": "event"
    },
    {
      "anonymous": false,
      "inputs": [],
      "name": "MintFinished",
      "type": "event"
    },
    {
      "anonymous": false,
      "inputs": [
        {
          "indexed": true,
          "name": "previousOwner",
          "type": "address"
        },
        {
          "indexed": true,
          "name": "newOwner",
          "type": "address"
        }
      ],
      "name": "OwnershipTransferred",
      "type": "event"
    },
    {
      "anonymous": false,
      "inputs": [
        {
          "indexed": true,
          "name": "owner",
          "type": "address"
        },
        {
          "indexed": true,
          "name": "spender",
          "type": "address"
        },
        {
          "indexed": false,
          "name": "value",
          "type": "uint256"
        }
      ],
      "name": "Approval",
      "type": "event"
    },
    {
      "anonymous": false,
      "inputs": [
        {
          "indexed": true,
          "name": "from",
          "type": "address"
        },
        {
          "indexed": true,
          "name": "to",
          "type": "address"
        },
        {
          "indexed": false,
          "name": "value",
          "type": "uint256"
        }
      ],
      "name": "Transfer",
      "type": "event"
    },
    {
      "constant": false,
      "inputs": [
        {
          "name": "_to",
          "type": "address"
        },
        {
          "name": "_amount",
          "type": "uint256"
        }
      ],
      "name": "mint",
      "outputs": [
        {
          "name": "",
          "type": "bool"
        }
      ],
      "payable": false,
      "stateMutability": "nonpayable",
      "type": "function"
    },
    {
      "constant": false,
      "inputs": [],
      "name": "finishMinting",
      "outputs": [
        {
          "name": "",
          "type": "bool"
        }
      ],
      "payable": false,
      "stateMutability": "nonpayable",
      "type": "function"
    }
  ],
  "bytecode": "0x60606040526004805460a060020a60ff02191690556006805460ff1916905560038054600160a060020a03191633600160a060020a0316179055610c8d806100486000396000f3006060604052600436106101065763ffffffff7c010000000000000000000000000000000000000000000000000000000060003504166302f652a3811461010b57806305d2035b14610131578063095ea7b31461015857806318160ddd1461017a57806323b872dd1461019f5780633e96d28e146101c757806340c10f19146101da5780635f412d4f146101fc578063661884631461020f57806370a08231146102315780637d64bcb414610250578063867c2857146102635780638da5cb5b1461028257806396132521146102b1578063a9059cbb146102c4578063d1f276d3146102e6578063d73dd623146102f9578063dd62ed3e1461031b578063f2fde38b14610340575b600080fd5b341561011657600080fd5b61012f600160a060020a0360043516602435151561035f565b005b341561013c57600080fd5b6101446103c0565b604051901515815260200160405180910390f35b341561016357600080fd5b610144600160a060020a03600435166024356103c9565b341561018557600080fd5b61018d610435565b60405190815260200160405180910390f35b34156101aa57600080fd5b610144600160a060020a036004358116906024351660443561043b565b34156101d257600080fd5b61012f61048e565b34156101e557600080fd5b610144600160a060020a03600435166024356104f5565b341561020757600080fd5b61012f6105fb565b341561021a57600080fd5b610144600160a060020a036004351660243561063c565b341561023c57600080fd5b61018d600160a060020a0360043516610736565b341561025b57600080fd5b610144610751565b341561026e57600080fd5b610144600160a060020a03600435166107be565b341561028d57600080fd5b6102956107d3565b604051600160a060020a03909116815260200160405180910390f35b34156102bc57600080fd5b6101446107e2565b34156102cf57600080fd5b610144600160a060020a03600435166024356107f2565b34156102f157600080fd5b610295610843565b341561030457600080fd5b610144600160a060020a0360043516602435610852565b341561032657600080fd5b61018d600160a060020a03600435811690602435166108f6565b341561034b57600080fd5b61012f600160a060020a0360043516610921565b60045433600160a060020a0390811691161461037a57600080fd5b60045460009060a060020a900460ff161561039457600080fd5b50600160a060020a03919091166000908152600560205260409020805460ff1916911515919091179055565b60065460ff1681565b600160a060020a03338116600081815260026020908152604080832094871680845294909152808220859055909291907f8c5be1e5ebec7d5bd14f71427d1e84f3dd0314c0f7b2291e5b200ac8c7c3b9259085905190815260200160405180910390a350600192915050565b60005481565b600454600090849060a060020a900460ff16151561047a57600160a060020a03811660009081526005602052604090205460ff16151561047a57600080fd5b6104858585856109bc565b95945050505050565b60035433600160a060020a039081169116146104a957600080fd5b60045460009060a060020a900460ff16156104c357600080fd5b506003546004805473ffffffffffffffffffffffffffffffffffffffff1916600160a060020a03909216919091179055565b60035460009033600160a060020a0390811691161461051357600080fd5b60065460ff161561052357600080fd5b600054610536908363ffffffff610b3e16565b6000908155600160a060020a038416815260016020526040902054610561908363ffffffff610b3e16565b600160a060020a0384166000818152600160205260409081902092909255907f0f6798a560793a54c3bcfe86a93cde1e73087d944c0ea20544137d41213968859084905190815260200160405180910390a2600160a060020a03831660007fddf252ad1be2c89b69c2b068fc378daa952ba7f163c4a11628f55a4df523b3ef8460405190815260200160405180910390a350600192915050565b60045433600160a060020a0390811691161461061657600080fd5b6004805474ff0000000000000000000000000000000000000000191660a060020a179055565b600160a060020a0333811660009081526002602090815260408083209386168352929052908120548083111561069957600160a060020a0333811660009081526002602090815260408083209388168352929052908120556106d0565b6106a9818463ffffffff610b5416565b600160a060020a033381166000908152600260209081526040808320938916835292905220555b600160a060020a0333811660008181526002602090815260408083209489168084529490915290819020547f8c5be1e5ebec7d5bd14f71427d1e84f3dd0314c0f7b2291e5b200ac8c7c3b925915190815260200160405180910390a35060019392505050565b600160a060020a031660009081526001602052604090205490565b60035460009033600160a060020a0390811691161461076f57600080fd5b60065460ff161561077f57600080fd5b6006805460ff191660011790557fae5184fba832cb2b1f702aca6117b8d265eaf03ad33eb133f19dde0f5920fa0860405160405180910390a150600190565b60056020526000908152604090205460ff1681565b600354600160a060020a031681565b60045460a060020a900460ff1681565b600454600090339060a060020a900460ff16151561083157600160a060020a03811660009081526005602052604090205460ff16151561083157600080fd5b61083b8484610b66565b949350505050565b600454600160a060020a031681565b600160a060020a03338116600090815260026020908152604080832093861683529290529081205461088a908363ffffffff610b3e16565b600160a060020a0333811660008181526002602090815260408083209489168084529490915290819020849055919290917f8c5be1e5ebec7d5bd14f71427d1e84f3dd0314c0f7b2291e5b200ac8c7c3b92591905190815260200160405180910390a350600192915050565b600160a060020a03918216600090815260026020908152604080832093909416825291909152205490565b60035433600160a060020a0390811691161461093c57600080fd5b600160a060020a038116151561095157600080fd5b600354600160a060020a0380831691167f8be0079c531659141344cd1fd0a4f28419497f9722a3daafe3b4186f6b6457e060405160405180910390a36003805473ffffffffffffffffffffffffffffffffffffffff1916600160a060020a0392909216919091179055565b6000600160a060020a03831615156109d357600080fd5b600160a060020a0384166000908152600160205260409020548211156109f857600080fd5b600160a060020a0380851660009081526002602090815260408083203390941683529290522054821115610a2b57600080fd5b600160a060020a038416600090815260016020526040902054610a54908363ffffffff610b5416565b600160a060020a038086166000908152600160205260408082209390935590851681522054610a89908363ffffffff610b3e16565b600160a060020a03808516600090815260016020908152604080832094909455878316825260028152838220339093168252919091522054610ad1908363ffffffff610b5416565b600160a060020a03808616600081815260026020908152604080832033861684529091529081902093909355908516917fddf252ad1be2c89b69c2b068fc378daa952ba7f163c4a11628f55a4df523b3ef9085905190815260200160405180910390a35060019392505050565b600082820183811015610b4d57fe5b9392505050565b600082821115610b6057fe5b50900390565b6000600160a060020a0383161515610b7d57600080fd5b600160a060020a033316600090815260016020526040902054821115610ba257600080fd5b600160a060020a033316600090815260016020526040902054610bcb908363ffffffff610b5416565b600160a060020a033381166000908152600160205260408082209390935590851681522054610c00908363ffffffff610b3e16565b600160a060020a0380851660008181526001602052604090819020939093559133909116907fddf252ad1be2c89b69c2b068fc378daa952ba7f163c4a11628f55a4df523b3ef9085905190815260200160405180910390a3506001929150505600a165627a7a723058208a474c898e167f8b528c1366f3dc5df3fcdeb93cd1caa9ac2b2435832e633d910029",
  "source": "pragma solidity ^0.4.18;\n\n\nimport './ReleasableToken.sol';\n\n/**\n * @title Mintable token\n * @dev Simple ERC20 Token example, with mintable token creation\n * @dev Issue: * https://github.com/OpenZeppelin/zeppelin-solidity/issues/120\n * Based on code by TokenMarketNet: https://github.com/TokenMarketNet/ico/blob/master/contracts/MintableToken.sol\n * \n * Some of this code has been changed by Pickeringware ltd to facilitate solidities new compilation requirements\n */\n\ncontract MintableToken is ReleasableToken {\n  event Mint(address indexed to, uint256 amount);\n  event MintFinished();\n\n  bool public mintingFinished = false;\n\n  modifier canMint() {\n    require(!mintingFinished);\n    _;\n  }\n\n  /**\n   * @dev Function to mint tokens\n   * @param _to The address that will receive the minted tokens.\n   * @param _amount The amount of tokens to mint.\n   * @return A boolean that indicates if the operation was successful.\n   */\n  function mint(address _to, uint256 _amount) onlyOwner canMint public returns (bool) {\n    totalSupply = totalSupply.add(_amount);\n    balances[_to] = balances[_to].add(_amount);\n    Mint(_to, _amount);\n    Transfer(address(0), _to, _amount);\n    return true;\n  }\n\n  /**\n   * @dev Function to stop minting new tokens.\n   * @return True if the operation was successful.\n   */\n  function finishMinting() onlyOwner canMint public returns (bool) {\n    mintingFinished = true;\n    MintFinished();\n    return true;\n  }\n}",
  "sourcePath": "/Users/jackpickering/Desktop/Development/AX1 versions/AX1_portal_staging/contracts/MintableToken.sol",
  "compiler": {
    "name": "solc",
    "version": "0.4.21+commit.dfe3193c.Emscripten.clang"
  },
  "schemaVersion": "2.0.0",
  "updatedAt": "2018-04-04T17:00:34.220Z"
}