{
  "contractName": "PickCrowdsale",
  "abi": [
    {
      "constant": true,
      "inputs": [],
      "name": "contractAddr",
      "outputs": [
        {
          "name": "",
          "type": "address"
        }
      ],
      "payable": false,
      "stateMutability": "view",
      "type": "function"
    },
    {
      "constant": true,
      "inputs": [],
      "name": "tokensSent",
      "outputs": [
        {
          "name": "",
          "type": "uint256"
        }
      ],
      "payable": false,
      "stateMutability": "view",
      "type": "function"
    },
    {
      "constant": true,
      "inputs": [],
      "name": "rate",
      "outputs": [
        {
          "name": "",
          "type": "uint256"
        }
      ],
      "payable": false,
      "stateMutability": "view",
      "type": "function"
    },
    {
      "constant": true,
      "inputs": [],
      "name": "endTime",
      "outputs": [
        {
          "name": "",
          "type": "uint256"
        }
      ],
      "payable": false,
      "stateMutability": "view",
      "type": "function"
    },
    {
      "constant": true,
      "inputs": [],
      "name": "beneficiary",
      "outputs": [
        {
          "name": "",
          "type": "address"
        }
      ],
      "payable": false,
      "stateMutability": "view",
      "type": "function"
    },
    {
      "constant": true,
      "inputs": [],
      "name": "weiRaised",
      "outputs": [
        {
          "name": "",
          "type": "uint256"
        }
      ],
      "payable": false,
      "stateMutability": "view",
      "type": "function"
    },
    {
      "constant": true,
      "inputs": [],
      "name": "stages",
      "outputs": [
        {
          "name": "stageCount",
          "type": "uint8"
        }
      ],
      "payable": false,
      "stateMutability": "view",
      "type": "function"
    },
    {
      "constant": true,
      "inputs": [],
      "name": "wallet",
      "outputs": [
        {
          "name": "",
          "type": "address"
        }
      ],
      "payable": false,
      "stateMutability": "view",
      "type": "function"
    },
    {
      "constant": true,
      "inputs": [],
      "name": "burntFounder",
      "outputs": [
        {
          "name": "",
          "type": "uint256"
        }
      ],
      "payable": false,
      "stateMutability": "view",
      "type": "function"
    },
    {
      "constant": true,
      "inputs": [
        {
          "name": "",
          "type": "address"
        }
      ],
      "name": "balanceOf",
      "outputs": [
        {
          "name": "",
          "type": "uint256"
        }
      ],
      "payable": false,
      "stateMutability": "view",
      "type": "function"
    },
    {
      "constant": true,
      "inputs": [],
      "name": "startTime",
      "outputs": [
        {
          "name": "",
          "type": "uint256"
        }
      ],
      "payable": false,
      "stateMutability": "view",
      "type": "function"
    },
    {
      "constant": true,
      "inputs": [
        {
          "name": "",
          "type": "uint128"
        }
      ],
      "name": "balancePerID",
      "outputs": [
        {
          "name": "",
          "type": "uint256"
        }
      ],
      "payable": false,
      "stateMutability": "view",
      "type": "function"
    },
    {
      "constant": true,
      "inputs": [],
      "name": "owner",
      "outputs": [
        {
          "name": "",
          "type": "address"
        }
      ],
      "payable": false,
      "stateMutability": "view",
      "type": "function"
    },
    {
      "constant": true,
      "inputs": [],
      "name": "softCap",
      "outputs": [
        {
          "name": "",
          "type": "uint256"
        }
      ],
      "payable": false,
      "stateMutability": "view",
      "type": "function"
    },
    {
      "constant": true,
      "inputs": [],
      "name": "burntBounty",
      "outputs": [
        {
          "name": "",
          "type": "uint256"
        }
      ],
      "payable": false,
      "stateMutability": "view",
      "type": "function"
    },
    {
      "constant": true,
      "inputs": [],
      "name": "canWithdraw",
      "outputs": [
        {
          "name": "",
          "type": "bool"
        }
      ],
      "payable": false,
      "stateMutability": "view",
      "type": "function"
    },
    {
      "constant": true,
      "inputs": [],
      "name": "halted",
      "outputs": [
        {
          "name": "",
          "type": "bool"
        }
      ],
      "payable": false,
      "stateMutability": "view",
      "type": "function"
    },
    {
      "constant": false,
      "inputs": [],
      "name": "successfulWithdraw",
      "outputs": [],
      "payable": false,
      "stateMutability": "nonpayable",
      "type": "function"
    },
    {
      "constant": true,
      "inputs": [],
      "name": "withdrawn",
      "outputs": [
        {
          "name": "",
          "type": "uint256"
        }
      ],
      "payable": false,
      "stateMutability": "view",
      "type": "function"
    },
    {
      "constant": false,
      "inputs": [],
      "name": "stopICO",
      "outputs": [],
      "payable": false,
      "stateMutability": "nonpayable",
      "type": "function"
    },
    {
      "constant": true,
      "inputs": [
        {
          "name": "",
          "type": "address"
        }
      ],
      "name": "presaleBalanceOf",
      "outputs": [
        {
          "name": "",
          "type": "uint256"
        }
      ],
      "payable": false,
      "stateMutability": "view",
      "type": "function"
    },
    {
      "constant": true,
      "inputs": [
        {
          "name": "",
          "type": "address"
        }
      ],
      "name": "tokenBalanceOf",
      "outputs": [
        {
          "name": "",
          "type": "uint256"
        }
      ],
      "payable": false,
      "stateMutability": "view",
      "type": "function"
    },
    {
      "constant": true,
      "inputs": [],
      "name": "hasEnded",
      "outputs": [
        {
          "name": "",
          "type": "bool"
        }
      ],
      "payable": false,
      "stateMutability": "view",
      "type": "function"
    },
    {
      "constant": false,
      "inputs": [
        {
          "name": "newOwner",
          "type": "address"
        }
      ],
      "name": "transferOwnership",
      "outputs": [],
      "payable": false,
      "stateMutability": "nonpayable",
      "type": "function"
    },
    {
      "constant": true,
      "inputs": [],
      "name": "presaleWeiRaised",
      "outputs": [
        {
          "name": "",
          "type": "uint256"
        }
      ],
      "payable": false,
      "stateMutability": "view",
      "type": "function"
    },
    {
      "constant": true,
      "inputs": [],
      "name": "hardCap",
      "outputs": [
        {
          "name": "",
          "type": "uint256"
        }
      ],
      "payable": false,
      "stateMutability": "view",
      "type": "function"
    },
    {
      "constant": true,
      "inputs": [],
      "name": "token",
      "outputs": [
        {
          "name": "",
          "type": "address"
        }
      ],
      "payable": false,
      "stateMutability": "view",
      "type": "function"
    },
    {
      "inputs": [
        {
          "name": "_startTime",
          "type": "uint256"
        },
        {
          "name": "_endTime",
          "type": "uint256"
        },
        {
          "name": "_rate",
          "type": "uint256"
        },
        {
          "name": "_wallet",
          "type": "address"
        },
        {
          "name": "_beneficiary",
          "type": "address"
        },
        {
          "name": "_buyer",
          "type": "address"
        },
        {
          "name": "_founders",
          "type": "address"
        },
        {
          "name": "_bounty",
          "type": "address"
        },
        {
          "name": "_softCap",
          "type": "uint256"
        },
        {
          "name": "_hardCap",
          "type": "uint256"
        },
        {
          "name": "_token",
          "type": "address"
        }
      ],
      "payable": false,
      "stateMutability": "nonpayable",
      "type": "constructor"
    },
    {
      "anonymous": false,
      "inputs": [
        {
          "indexed": false,
          "name": "participant",
          "type": "address"
        },
        {
          "indexed": false,
          "name": "amount",
          "type": "uint256"
        },
        {
          "indexed": false,
          "name": "datetime",
          "type": "uint256"
        }
      ],
      "name": "ParticipantWithdrawal",
      "type": "event"
    },
    {
      "anonymous": false,
      "inputs": [
        {
          "indexed": false,
          "name": "admin",
          "type": "address"
        },
        {
          "indexed": false,
          "name": "stage",
          "type": "uint8"
        },
        {
          "indexed": false,
          "name": "price",
          "type": "uint256"
        }
      ],
      "name": "StagePriceChanged",
      "type": "event"
    },
    {
      "anonymous": false,
      "inputs": [
        {
          "indexed": false,
          "name": "oldStart",
          "type": "uint256"
        },
        {
          "indexed": false,
          "name": "newStart",
          "type": "uint256"
        }
      ],
      "name": "ExtendedStart",
      "type": "event"
    },
    {
      "anonymous": false,
      "inputs": [
        {
          "indexed": false,
          "name": "admin",
          "type": "address"
        },
        {
          "indexed": false,
          "name": "amount",
          "type": "uint256"
        },
        {
          "indexed": false,
          "name": "datetime",
          "type": "uint256"
        }
      ],
      "name": "BeneficiaryWithdrawal",
      "type": "event"
    },
    {
      "anonymous": false,
      "inputs": [
        {
          "indexed": true,
          "name": "purchaser",
          "type": "address"
        },
        {
          "indexed": true,
          "name": "beneficiary",
          "type": "address"
        },
        {
          "indexed": false,
          "name": "value",
          "type": "uint256"
        },
        {
          "indexed": false,
          "name": "amount",
          "type": "uint256"
        },
        {
          "indexed": false,
          "name": "datetime",
          "type": "uint256"
        }
      ],
      "name": "TokenPurchase",
      "type": "event"
    },
    {
      "anonymous": false,
      "inputs": [
        {
          "indexed": false,
          "name": "owner",
          "type": "address"
        },
        {
          "indexed": false,
          "name": "datetime",
          "type": "uint256"
        }
      ],
      "name": "SaleStopped",
      "type": "event"
    },
    {
      "anonymous": false,
      "inputs": [
        {
          "indexed": true,
          "name": "previousOwner",
          "type": "address"
        },
        {
          "indexed": true,
          "name": "newOwner",
          "type": "address"
        }
      ],
      "name": "OwnershipTransferred",
      "type": "event"
    },
    {
      "constant": false,
      "inputs": [],
      "name": "setPreallocations",
      "outputs": [],
      "payable": false,
      "stateMutability": "nonpayable",
      "type": "function"
    },
    {
      "constant": false,
      "inputs": [],
      "name": "setStages",
      "outputs": [],
      "payable": false,
      "stateMutability": "nonpayable",
      "type": "function"
    },
    {
      "constant": false,
      "inputs": [
        {
          "name": "_stage",
          "type": "uint8"
        },
        {
          "name": "_price",
          "type": "uint256"
        }
      ],
      "name": "changePrice",
      "outputs": [],
      "payable": false,
      "stateMutability": "nonpayable",
      "type": "function"
    },
    {
      "constant": true,
      "inputs": [],
      "name": "getStage",
      "outputs": [
        {
          "name": "stage",
          "type": "uint8"
        }
      ],
      "payable": false,
      "stateMutability": "view",
      "type": "function"
    },
    {
      "constant": true,
      "inputs": [
        {
          "name": "_stage",
          "type": "uint8"
        }
      ],
      "name": "getStageDeadline",
      "outputs": [
        {
          "name": "deadline",
          "type": "uint256"
        }
      ],
      "payable": false,
      "stateMutability": "view",
      "type": "function"
    },
    {
      "constant": true,
      "inputs": [
        {
          "name": "_stage",
          "type": "uint8"
        }
      ],
      "name": "getStageTokensSold",
      "outputs": [
        {
          "name": "sold",
          "type": "uint256"
        }
      ],
      "payable": false,
      "stateMutability": "view",
      "type": "function"
    },
    {
      "constant": true,
      "inputs": [
        {
          "name": "_stage",
          "type": "uint8"
        }
      ],
      "name": "getStageCap",
      "outputs": [
        {
          "name": "cap",
          "type": "uint256"
        }
      ],
      "payable": false,
      "stateMutability": "view",
      "type": "function"
    },
    {
      "constant": true,
      "inputs": [
        {
          "name": "_stage",
          "type": "uint8"
        }
      ],
      "name": "getStageMinimum",
      "outputs": [
        {
          "name": "min",
          "type": "uint256"
        }
      ],
      "payable": false,
      "stateMutability": "view",
      "type": "function"
    },
    {
      "constant": true,
      "inputs": [
        {
          "name": "_stage",
          "type": "uint8"
        }
      ],
      "name": "getStagePrice",
      "outputs": [
        {
          "name": "price",
          "type": "uint256"
        }
      ],
      "payable": false,
      "stateMutability": "view",
      "type": "function"
    },
    {
      "constant": false,
      "inputs": [
        {
          "name": "_newStart",
          "type": "uint256"
        }
      ],
      "name": "extendStart",
      "outputs": [],
      "payable": false,
      "stateMutability": "nonpayable",
      "type": "function"
    },
    {
      "constant": false,
      "inputs": [],
      "name": "unsuccessfulWithdrawal",
      "outputs": [],
      "payable": false,
      "stateMutability": "nonpayable",
      "type": "function"
    }
  ],
  "bytecode": "0x60606040526014805461ffff1916905534156200001b57600080fd5b6040516101608062001521833981016040528080519190602001805191906020018051919060200180519190602001805191906020018051919060200180519190602001805191906020018051919060200180519190602001805160008054600160a060020a03191633600160a060020a031617905591508b90508a8a8a8a878787878787878442851015620000b057600080fd5b84841015620000be57600080fd5b60008311620000cc57600080fd5b600160a060020a0382161515620000e257600080fd5b60018054600160a060020a03808416600160a060020a03199283161790925560028790556003869055600685905560048054928516929091169190911790556200013a8264010000000062000cdf6200029a82021704565b5050505050600082118015620001505750600083115b80156200015c57508183105b15156200016857600080fd5b50600e91909155600f55600060105560118054600160a060020a0390921661010002600160a860020a03199092169190911790555073__SaleStagesLib_________________________925063965f01e79150601290506040517c010000000000000000000000000000000000000000000000000000000063ffffffff8416028152600481019190915260240160006040518083038186803b15156200020d57600080fd5b5af415156200021b57600080fd5b506200024091506012905060008d81808064010000000062000ffb6200032a82021704565b505060148054600160a060020a0394851662010000026201000060b060020a03199091161790555060158054918316600160a060020a03199283161790556016805493909216921691909117905550620003a09350505050565b60005433600160a060020a03908116911614620002b657600080fd5b600160a060020a0381161515620002cc57600080fd5b600054600160a060020a0380831691167f8be0079c531659141344cd1fd0a4f28419497f9722a3daafe3b4186f6b6457e060405160405180910390a360008054600160a060020a031916600160a060020a0392909216919091179055565b600019850160ff81166000908152602088905260409020548590106200034f57600080fd5b5060ff948516600090815260208790526040812094855560018086019490945560028501556003840191909155600490920191909155918201805460ff198116908316909301909116919091179055565b61117180620003b06000396000f3006060604052600436106101be5763ffffffff60e060020a60003504166315a5d9d881146101c35780631f130761146101f25780632c4e722e146102175780633197cbb61461022a57806338af3eed1461023d5780633c20d1a5146102505780634042b66f146102695780634413a6881461027c57806347d2037314610291578063521eb273146102ba5780635edca2b4146102cd578063693e2279146102e057806370a08231146102f3578063756a288e1461031257806378e979251461032b5780637c6bd96d1461033e5780637db71fc41461035457806388426aec1461037c5780638da5cb5b14610395578063906a26e0146103a857806391778b9c146103bb5780639944d5e7146103d7578063b51459fe146103ea578063b9b8af0b14610411578063bcdea6f914610424578063bdd304061461043d578063c80ec52214610450578063c8e569a814610463578063dfc6fbaa14610476578063e42c08f214610495578063e6ca0f47146104b4578063ecb70fb7146104c7578063f2fde38b146104da578063f7c00e2f146104f9578063fb0cf7ab1461050c578063fb86a40414610525578063fc0c546a14610538578063fcaa76641461054b575b600080fd5b34156101ce57600080fd5b6101d661055e565b604051600160a060020a03909116815260200160405180910390f35b34156101fd57600080fd5b61020561056d565b60405190815260200160405180910390f35b341561022257600080fd5b610205610573565b341561023557600080fd5b610205610579565b341561024857600080fd5b6101d661057f565b341561025b57600080fd5b61020560ff60043516610593565b341561027457600080fd5b6102056105ab565b341561028757600080fd5b61028f6105b1565b005b341561029c57600080fd5b6102a4610648565b60405160ff909116815260200160405180910390f35b34156102c557600080fd5b6101d6610651565b34156102d857600080fd5b61028f610660565b34156102eb57600080fd5b61020561077a565b34156102fe57600080fd5b610205600160a060020a0360043516610780565b341561031d57600080fd5b61020560ff60043516610792565b341561033657600080fd5b6102056107aa565b341561034957600080fd5b61028f6004356107b0565b341561035f57600080fd5b6102056fffffffffffffffffffffffffffffffff6004351661089b565b341561038757600080fd5b61020560ff600435166108ad565b34156103a057600080fd5b6101d66108c2565b34156103b357600080fd5b6102056108d1565b34156103c657600080fd5b61028f60ff600435166024356108d7565b34156103e257600080fd5b61020561095b565b34156103f557600080fd5b6103fd610961565b604051901515815260200160405180910390f35b341561041c57600080fd5b6103fd61096a565b341561042f57600080fd5b61020560ff6004351661098b565b341561044857600080fd5b61028f6109a3565b341561045b57600080fd5b610205610add565b341561046e57600080fd5b61028f610ae3565b341561048157600080fd5b610205600160a060020a0360043516610b79565b34156104a057600080fd5b610205600160a060020a0360043516610b8b565b34156104bf57600080fd5b61028f610b9d565b34156104d257600080fd5b6103fd610cbd565b34156104e557600080fd5b61028f600160a060020a0360043516610cdf565b341561050457600080fd5b610205610d7a565b341561051757600080fd5b61020560ff60043516610d80565b341561053057600080fd5b610205610d98565b341561054357600080fd5b6101d6610d9e565b341561055657600080fd5b6102a4610dad565b600554600160a060020a031681565b60095481565b60065481565b60035481565b6011546101009004600160a060020a031681565b60ff1660009081526012602052604090206004015490565b60075481565b60005433600160a060020a039081169116146105cc57600080fd5b60145460ff1680156105dd57600080fd5b6016546105fc90600160a060020a0316621312d06402540be400610e1a565b60145461061d90620100009004600160a060020a0316621b20716000610e1a565b60155461063890600160a060020a03166206c81d6000610e1a565b506014805460ff19166001179055565b60135460ff1681565b600454600160a060020a031681565b600160a060020a0333166000908152600b602052604081205481901161068557600080fd5b61068d610cbd565b801561069c5750600e54600954105b806106aa57506106aa610f41565b15156106b557600080fd5b50600160a060020a0333166000818152600b6020526040808220805492905590919082156108fc0290839051600060405180830381858888f1935050505015156106fe57600080fd5b600160a060020a0333166000908152600b60205260409020541561071e57fe5b7f399cf6f6b4834b62adc1e73a85b69f3eea1c55f32d09057693655aab33e8b5423382426040518084600160a060020a0316600160a060020a03168152602001838152602001828152602001935050505060405180910390a150565b60185481565b600b6020526000908152604090205481565b60ff1660009081526012602052604090206002015490565b60025481565b6000805481908190819033600160a060020a039081169116146107d257600080fd5b60025485116107e057600080fd5b4285116107ec57600080fd5b60025442106107fa57600080fd5b60028054908690556003805482880390810190915594509250600091505b60048260ff16101561085a575060ff811660009081526012602081905260409091205484019061084f90838363ffffffff610f6216565b600190910190610818565b7fb03c6e4d98649731c861f3ac1560370eb9b13fe3950dbe318f413df44aecc1fd838660405191825260208201526040908101905180910390a15050505050565b600a6020526000908152604090205481565b60ff1660009081526012602052604090205490565b600054600160a060020a031681565b600e5481565b60005433600160a060020a039081169116146108f257600080fd5b6109046012838363ffffffff610f9916565b7f3c943c1401d461f1e9a9793a341ba4f600dc3643686cb337621026d523049715338383604051600160a060020a03909316835260ff90911660208301526040808301919091526060909101905180910390a15050565b60175481565b60115460ff1681565b60005474010000000000000000000000000000000000000000900460ff1681565b60ff1660009081526012602052604090206003015490565b6000805433600160a060020a039081169116146109bf57600080fd5b60005474010000000000000000000000000000000000000000900460ff16156109e757600080fd5b6109ef610cbd565b15156109fa57600080fd5b60115460ff161515610a0b57600080fd5b600e5460095411610a1b57600080fd5b601054600754610a309163ffffffff610fd316565b601054909150610a46908263ffffffff610fe516565b6010556011546101009004600160a060020a03166108fc82150282604051600060405180830381858888f193505050501515610a8157600080fd5b7f9f7cbddba892cf26a7cd63d61d3c8d085df04bbbe7601e53311038ca6dab196b3382426040518084600160a060020a0316600160a060020a03168152602001838152602001828152602001935050505060405180910390a150565b60105481565b60005433600160a060020a03908116911614610afe57600080fd5b6000805474ff00000000000000000000000000000000000000001916740100000000000000000000000000000000000000001790557f4898556e3bd8b06263e50e938f30f736c1fd2030390474dd6bc0b28d8c5450373342604051600160a060020a03909216825260208201526040908101905180910390a1565b600c6020526000908152604090205481565b600d6020526000908152604090205481565b60005433600160a060020a03908116911614610bb857600080fd5b601454610100900460ff168015610bce57600080fd5b610c0a6001610beb62093a80600254610fe590919063ffffffff16565b601291906402540be400629896806428bed0160063ffffffff610ffb16565b610c466002610c2762127500600254610fe590919063ffffffff16565b6012919064028fa6ae00624c4b406445d964b80063ffffffff610ffb16565b610c826003610c636224ea00600254610fe590919063ffffffff16565b601291906402cb417800622625a06485e0abb60063ffffffff610ffb16565b600354610cab9060129060049064037e11d600620f42406501d1a94a200063ffffffff610ffb16565b506014805461ff001916610100179055565b600f54600954600091901015610cd1611070565b80610cd95750805b91505090565b60005433600160a060020a03908116911614610cfa57600080fd5b600160a060020a0381161515610d0f57600080fd5b600054600160a060020a0380831691167f8be0079c531659141344cd1fd0a4f28419497f9722a3daafe3b4186f6b6457e060405160405180910390a36000805473ffffffffffffffffffffffffffffffffffffffff1916600160a060020a0392909216919091179055565b60085481565b60ff1660009081526012602052604090206001015490565b600f5481565b600154600160a060020a031681565b600073__SaleStagesLib_________________________63922d38be601260405160e060020a63ffffffff8416028152600481019190915260240160206040518083038186803b1515610dff57600080fd5b5af41515610e0c57600080fd5b505050604051805191505090565b60015460009081908190600160a060020a031663313ce5676040518163ffffffff1660e060020a028152600401602060405180830381600087803b1515610e6057600080fd5b5af11515610e6d57600080fd5b5050506040518051905060ff16925082600a0a850291508484029050610e9e81600854610fe590919063ffffffff16565b600855600954610eb4908363ffffffff610fe516565b600955600160a060020a0386166000908152600d6020526040902054610ee0908363ffffffff610fe516565b600160a060020a0387166000908152600d6020908152604080832093909355600c90522054610f15908263ffffffff610fe516565b600160a060020a0387166000908152600c6020526040902055610f39868284611078565b505050505050565b60005474010000000000000000000000000000000000000000900460ff1690565b60ff8216600090815260208490526040902054429011610f8157600080fd5b60ff9091166000908152602092909252604090912055565b60ff8216600090815260208490526040902054429011610fb857600080fd5b60ff9091166000908152602092909252604090912060010155565b600082821115610fdf57fe5b50900390565b600082820183811015610ff457fe5b9392505050565b600019850160ff811660009081526020889052604090205485901061101f57600080fd5b5060ff948516600090815260208790526040812094855560018086019490945560028501556003840191909155600490920191909155918201805460ff198116908316909301909116919091179055565b600354421190565b600154600160a060020a03166340c10f19848360405160e060020a63ffffffff8516028152600160a060020a0390921660048301526024820152604401602060405180830381600087803b15156110ce57600080fd5b5af115156110db57600080fd5b505050604051805190505082600160a060020a031633600160a060020a03167efe0e12b43090c1fc19a34aefa5cc138a4eeafc60ab800f855c730b3fb9480e84844260405180848152602001838152602001828152602001935050505060405180910390a35050505600a165627a7a72305820e1de1e130e4694f2869ecaafefa20015ef859324cd3e2216c47d4a3ccfc10ec20029",
  "source": "pragma solidity 0.4.21;\n\nimport './PickToken.sol';\nimport './CappedCrowdsale.sol';\nimport './SaleStagesLib.sol';\nimport './SafeMath.sol';\n\n\n/*\n * PickCrowdsale and PickToken are a part of Pickeringware ltd's smart contracts\n * This uses the SaleStageLib which is also a part of Pickeringware ltd's smart contracts\n * We create the stages initially in the constructor such that stages cannot be added after the sale has started\n * We then pre-allocate necessary accounts prior to the sale starting\n * This contract implements the stages lib functionality with overriding functions for stages implementation\n*/\ncontract PickCrowdsale is CappedCrowdsale {\n\n  using SaleStagesLib for SaleStagesLib.StageStorage;\n  using SafeMath for uint256;\n\n  SaleStagesLib.StageStorage public stages;\n\n  bool preallocated = false;\n  bool stagesSet = false;\n  address private founders;\n  address private bounty;\n  address private buyer;\n  uint256 public burntBounty;\n  uint256 public burntFounder;\n\n  event ParticipantWithdrawal(address participant, uint256 amount, uint256 datetime);\n  event StagePriceChanged(address admin, uint8 stage, uint256 price);\n  event ExtendedStart(uint256 oldStart, uint256 newStart);\n\n  modifier onlyOnce(bool _check) {\n    if(_check) {\n      revert();\n    }\n    _;\n  }\n\n  function PickCrowdsale(uint256 _startTime, uint256 _endTime, uint256 _rate, address _wallet, address _beneficiary, address _buyer, address _founders, address _bounty, uint256 _softCap, uint256 _hardCap, PickToken _token)\n  \tCappedCrowdsale(_startTime, _endTime, _rate, _wallet, _beneficiary, _softCap, _hardCap, _token)\n     public { \n    stages.init();\n    stages.createStage(0, _startTime, 0, 0, 0);\n    founders = _founders;\n    bounty = _bounty;\n    buyer = _buyer;\n  }\n\n  function setPreallocations() external onlyOwner onlyOnce(preallocated) {\n    preallocate(buyer, 1250000, 10000000000);\n    preallocate(founders, 1777777, 0);\n    preallocate(bounty, 444445, 0);\n    preallocated = true;\n  }\n\n  function setStages() external onlyOwner onlyOnce(stagesSet) {\n    stages.createStage(1, startTime.add(1 weeks), 10000000000, 10000000, 175000000000);  //Deadline 1 day (86400)  after start - price: 0.001  - min: 90 - cap: 1,250,000\n    stages.createStage(2, startTime.add(2 weeks), 11000000000, 5000000, 300000000000); //Deadline 2 days (172800) after start - price: 0.0011 - min: 60 - cap: 3,000,000 \n    stages.createStage(3, startTime.add(4 weeks), 12000000000, 2500000, 575000000000);  //Deadline 4 days (345600) after start - price: 0.0012 - cap: 5,750,000 \n    stages.createStage(4, endTime, 15000000000, 1000000, 2000000000000);               //Deadline 1 week after start - price: 0.0015 - cap: 20,000,000 \n    stagesSet = true;\n  }\n\n  // Creates new stage for the crowdsale\n  // Can ONLY be called by the owner of the contract as should never change after creating them on initialisation\n  function createStage(uint8 _stage, uint256 _deadline, uint256 _price, uint256 _minimum, uint256 _cap ) internal onlyOwner {\n    stages.createStage(_stage, _deadline, _price, _minimum, _cap);\n  }\n\n  // Creates new stage for the crowdsale\n  // Can ONLY be called by the owner of the contract as should never change after creating them on initialisation\n  function changePrice(uint8 _stage, uint256 _price) public onlyOwner {\n    stages.changePrice(_stage, _price);\n    StagePriceChanged(msg.sender, _stage, _price);\n  }\n\n  // Get stage is required to rethen the stage we are currently in\n  // This is necessary to check the stage details listed in the below functions\n  function getStage() public view returns (uint8 stage) {\n    return stages.getStage();\n  }\n\n  function getStageDeadline(uint8 _stage) public view returns (uint256 deadline) { \n    return stages.stages[_stage].deadline;\n  }\n\n  function getStageTokensSold(uint8 _stage) public view returns (uint256 sold) { \n    return stages.stages[_stage].tokensSold;\n  }\n\n  function getStageCap(uint8 _stage) public view returns (uint256 cap) { \n    return stages.stages[_stage].cap;\n  }\n\n  function getStageMinimum(uint8 _stage) public view returns (uint256 min) { \n    return stages.stages[_stage].minimumBuy;\n  }\n\n  function getStagePrice(uint8 _stage) public view returns (uint256 price) { \n    return stages.stages[_stage].tokenPrice;\n  }\n\n  // This is used for extending the sales start time (and the deadlines of each stage) accordingly\n  function extendStart(uint256 _newStart) external onlyOwner {\n    require(_newStart > startTime);\n    require(_newStart > now); \n    require(now < startTime);\n\n    uint256 difference = _newStart - startTime;\n    uint256 oldStart = startTime;\n    startTime = _newStart;\n    endTime = endTime + difference;\n\n    // Loop through every stage in the sale\n    for (uint8 i = 0; i < 4; i++) {\n      // Extend that stages deadline accordingly\n      uint256 temp = stages.stages[i].deadline;\n      temp = temp + difference;\n\n      stages.changeDeadline(i, temp);\n    }\n\n    ExtendedStart(oldStart, _newStart);\n  }\n\n  // @Override crowdsale contract to check the current stage price\n  // @return tokens investors are due to recieve\n  function tokensToRecieve(uint256 _wei) internal view returns (uint256 tokens) {\n    uint8 stage = getStage();\n    uint256 price = getStagePrice(stage);\n\n    return _wei.div(price);\n  }\n\n  // overriding Crowdsale validPurchase to add extra stage logic\n  // @return true if investors can buy at the moment\n  function validPurchase(uint256 _tokens) internal view returns (bool) {\n    bool isValid = false;\n    uint8 stage = getStage();\n\n    if(stages.checkMinimum(stage, _tokens) && stages.checkCap(stage, _tokens)){\n      isValid = true;\n    }\n\n    return super.validPurchase(_tokens) && isValid;\n  }\n\n  // Override crowdsale finalizeSale function to log balance change plus tokens sold in that stage\n  function finalizeSale(uint256 _weiAmount, uint256 _tokens, uint128 _buyer) internal {\n    // Collect ETH and send them a token in return\n    balanceOf[msg.sender] = balanceOf[msg.sender].add(_weiAmount);\n    tokenBalanceOf[msg.sender] = tokenBalanceOf[msg.sender].add(_tokens);\n    balancePerID[_buyer] = balancePerID[_buyer].add(_weiAmount);\n\n    // update state\n    weiRaised = weiRaised.add(_weiAmount);\n    tokensSent = tokensSent.add(_tokens);\n\n    uint8 stage = getStage();\n    stages.stages[stage].tokensSold = stages.stages[stage].tokensSold.add(_tokens);\n  }\n\n  /**\n   * Preallocate tokens for the early investors.\n   */\n  function preallocate(address receiver, uint tokens, uint weiPrice) internal {\n    uint decimals = token.decimals();\n    uint tokenAmount = tokens * 10 ** decimals;\n    uint weiAmount = weiPrice * tokens; \n\n    presaleWeiRaised = presaleWeiRaised.add(weiAmount);\n    tokensSent = tokensSent.add(tokenAmount);\n    tokenBalanceOf[receiver] = tokenBalanceOf[receiver].add(tokenAmount);\n\n    presaleBalanceOf[receiver] = presaleBalanceOf[receiver].add(weiAmount);\n\n    produceTokens(receiver, weiAmount, tokenAmount);\n  }\n\n  // If the sale is unsuccessful (has halted or reached deadline and didnt reach softcap)\n  // Allows participants to withdraw their balance\n  function unsuccessfulWithdrawal() external {\n      require(balanceOf[msg.sender] > 0);\n      require(hasEnded() && tokensSent < softCap || hasHalted());\n      uint256 withdrawalAmount;\n\n      withdrawalAmount = balanceOf[msg.sender];\n      balanceOf[msg.sender] = 0; \n\n      msg.sender.transfer(withdrawalAmount);\n      assert(balanceOf[msg.sender] == 0);\n\n      ParticipantWithdrawal(msg.sender, withdrawalAmount, now);\n  }\n\n  // Burn the percentage of tokens not sold from the founders and bounty wallets\n  // Must do it this way as solidity doesnt deal with decimals\n  function burnFoundersTokens(uint256 _bounty, uint256 _founders) internal {\n      require(_founders < 177777700000);\n      require(_bounty < 44444500000);\n\n      // Calculate the number of tokens to burn from founders and bounty wallet\n      burntFounder = _founders;\n      burntBounty = _bounty;\n\n      token.reclaimAndBurn(founders, burntFounder);\n      token.reclaimAndBurn(bounty, burntBounty);\n  }\n}",
  "sourcePath": "/Users/jackpickering/Desktop/Development/AX1 versions/AX1_portal_staging/contracts/PickCrowdsale.sol",
  "compiler": {
    "name": "solc",
    "version": "0.4.21+commit.dfe3193c.Emscripten.clang"
  },
  "schemaVersion": "2.0.0",
  "updatedAt": "2018-04-04T17:12:25.985Z"
}