{
  "contractName": "SaleStagesLib",
  "abi": [
    {
      "constant": false,
      "inputs": [
        {
          "name": "self",
          "type": "SaleStagesLib.StageStorage storage"
        }
      ],
      "name": "init",
      "outputs": [],
      "payable": false,
      "stateMutability": "nonpayable",
      "type": "function"
    },
    {
      "constant": true,
      "inputs": [
        {
          "name": "self",
          "type": "SaleStagesLib.StageStorage storage"
        }
      ],
      "name": "getStage",
      "outputs": [
        {
          "name": "stage",
          "type": "uint8"
        }
      ],
      "payable": false,
      "stateMutability": "view",
      "type": "function"
    }
  ],
  "bytecode": "0x610120610030600b82828239805160001a6073146000811461002057610022565bfe5b5030600052607381538281f3007300000000000000000000000000000000000000003014606060405260043610605f5763ffffffff7c0100000000000000000000000000000000000000000000000000000000600035041663922d38be81146064578063965f01e7146083575b600080fd5b606d6004356098565b60405160ff909116815260200160405180910390f35b8115608d57600080fd5b609660043560e7565b005b60018082015460009160ff90911601815b8160ff168160ff16101560dc5760ff8116600090815260208590526040902054421160d55780925060e0565b60010160a9565b8192505b5050919050565b600101805460ff191690555600a165627a7a7230582078a7cbc627f496e7203dcd200edba39ce72110fde9f595e85dabde9dd5822a3e0029",
  "source": "pragma solidity 0.4.21;\n\nimport './SafeMath.sol';\n\n/*\n * SaleStagesLib is a part of Pickeringware ltd's smart contracts\n * Its intended use is to abstract the implementation of stages away from a contract to ease deployment and codel length\n * It uses a stage struct to store specific details about each stage\n * It has several functions which are used to get/change this data\n*/\n\nlibrary SaleStagesLib {\n\tusing SafeMath for uint256;\n\n\t// Stores Stage implementation\n\tstruct Stage{\n        uint256 deadline;\n        uint256 tokenPrice;\n        uint256 tokensSold;\n        uint256 minimumBuy;\n        uint256 cap;\n\t}\n\n\t// The struct that is stored by the contract\n\t// Contains counter to iterate through map of stages\n\tstruct StageStorage {\n \t\tmapping(uint8 => Stage) stages;\n \t\tuint8 stageCount;\n\t}\n\n\t// Initiliase the stagecount to 0\n\tfunction init(StageStorage storage self) public {\n\t\tself.stageCount = 0;\n\t}\n\n\t// Create stage adds new stage to stages map and increments stage count\n\tfunction createStage(\n\t\tStageStorage storage self, \n\t\tuint8 _stage, \n\t\tuint256 _deadline, \n\t\tuint256 _price,\n\t\tuint256 _minimum,\n\t\tuint256 _cap\n\t) internal {\n        // Ensures stages cannot overlap each other\n        uint8 prevStage = _stage - 1;\n        require(self.stages[prevStage].deadline < _deadline);\n\t\t\n        self.stages[_stage].deadline = _deadline;\n\t\tself.stages[_stage].tokenPrice = _price;\n\t\tself.stages[_stage].tokensSold = 0;\n\t\tself.stages[_stage].minimumBuy = _minimum;\n\t\tself.stages[_stage].cap = _cap;\n\t\tself.stageCount = self.stageCount + 1;\n\t}\n\n   /*\n    * Crowdfund state machine management.\n    *\n    * We make it a function and do not assign the result to a variable, so there is no chance of the variable being stale.\n    * Each one of these conditions checks if the time has passed into another stage and therefore, act as appropriate\n    */\n    function getStage(StageStorage storage self) public view returns (uint8 stage) {\n        uint8 thisStage = self.stageCount + 1;\n\n        for (uint8 i = 0; i < thisStage; i++) {\n            if(now <= self.stages[i].deadline){\n                return i;\n            }\n        }\n\n        return thisStage;\n    }\n\n    // Both of the below are checked on the overridden validPurchase() function\n    // Check to see if the tokens they're about to purchase is above the minimum for this stage\n    function checkMinimum(StageStorage storage self, uint8 _stage, uint256 _tokens) internal view returns (bool isValid) {\n    \tif(_tokens < self.stages[_stage].minimumBuy){\n    \t\treturn false;\n    \t} else {\n    \t\treturn true;\n    \t}\n    }\n\n    // Both of the below are checked on the overridden validPurchase() function\n    // Check to see if the tokens they're about to purchase is above the minimum for this stage\n    function changeDeadline(StageStorage storage self, uint8 _stage, uint256 _deadline) internal {\n        require(self.stages[_stage].deadline > now);\n        self.stages[_stage].deadline = _deadline;\n    }\n\n    // Checks to see if the tokens they're about to purchase is below the cap for this stage\n    function checkCap(StageStorage storage self, uint8 _stage, uint256 _tokens) internal view returns (bool isValid) {\n    \tuint256 totalTokens = self.stages[_stage].tokensSold.add(_tokens);\n\n    \tif(totalTokens > self.stages[_stage].cap){\n    \t\treturn false;\n    \t} else {\n    \t\treturn true;\n    \t}\n    }\n\n    // Refund a particular participant, by moving the sliders of stages he participated in\n    function refundParticipant(StageStorage storage self, uint256 stage1, uint256 stage2, uint256 stage3, uint256 stage4) internal {\n        self.stages[1].tokensSold = self.stages[1].tokensSold.sub(stage1);\n        self.stages[2].tokensSold = self.stages[2].tokensSold.sub(stage2);\n        self.stages[3].tokensSold = self.stages[3].tokensSold.sub(stage3);\n        self.stages[4].tokensSold = self.stages[4].tokensSold.sub(stage4);\n    }\n    \n\t// Both of the below are checked on the overridden validPurchase() function\n    // Check to see if the tokens they're about to purchase is above the minimum for this stage\n    function changePrice(StageStorage storage self, uint8 _stage, uint256 _tokenPrice) internal {\n        require(self.stages[_stage].deadline > now);\n\n        self.stages[_stage].tokenPrice = _tokenPrice;\n    }\n}",
  "sourcePath": "/Users/jackpickering/Desktop/Development/AX1 versions/AX1_portal_staging/contracts/SaleStagesLib.sol",
  "compiler": {
    "name": "solc",
    "version": "0.4.21+commit.dfe3193c.Emscripten.clang"
  },
  "schemaVersion": "2.0.0",
  "updatedAt": "2018-04-04T17:12:25.966Z"
}